:020000040000fa
:080000000001040000000000f3
:020000040000fa
:04000800c80100002b
:020000040000fa
:04000c00c801000027
:020000040000fa
:04001000c801000023
:020000040000fa
:04001400c80100001f
:020000040000fa
:04001800c80100001b
:020000040000fa
:04001c00c801000017
:020000040000fa
:04002000c801000013
:020000040000fa
:04002400c80100000f
:020000040000fa
:04002800c80100000b
:020000040000fa
:04002c00c801000007
:020000040000fa
:04003000c801000003
:020000040000fa
:04003400c8010000ff
:020000040000fa
:04003800c8010000fb
:020000040000fa
:04003c00c8010000f7
:020000040000fa
:04004000e2290000b1
:020000040000fa
:04004400c8010000ef
:020000040000fa
:04004800c8010000eb
:020000040000fa
:04004c00c8010000e7
:020000040000fa
:04005000c8010000e3
:020000040000fa
:04005400c8010000df
:020000040000fa
:04005800c8010000db
:020000040000fa
:04005c00c8010000d7
:020000040000fa
:04006000c8010000d3
:020000040000fa
:04006400c8010000cf
:020000040000fa
:04006800c8010000cb
:020000040000fa
:04006c00c8010000c7
:020000040000fa
:04007000c8010000c3
:020000040000fa
:04007400c8010000bf
:020000040000fa
:04007800c8010000bb
:020000040000fa
:04007c00c8010000b7
:020000040000fa
:04008000262a00002c
:020000040000fa
:04008400c8010000af
:020000040000fa
:04008800142600003a
:020000040000fa
:04008c00c8010000a7
:020000040000fa
:04009000c8010000a3
:020000040000fa
:04009400c80100009f
:020000040000fa
:04009800c80100009b
:020000040000fa
:04009c00c801000097
:020000040000fa
:0400a000c801000093
:020000040000fa
:0400a400c80100008f
:020000040000fa
:0400a800c80100008b
:020000040000fa
:0400ac00c801000087
:020000040000fa
:0400b000c801000083
:020000040000fa
:0400b400c80100007f
:020000040000fa
:0400b800c80100007b
:020000040000fa
:0400bc00c801000077
:020000040000fa
:0400c000c801000073
:020000040000fa
:0400c400c80100006f
:020000040000fa
:0400c800c80100006b
:020000040000fa
:0400cc00c801000067
:020000040000fa
:0400d000c801000063
:020000040000fa
:0400d400c80100005f
:020000040000fa
:0400d800c80100005b
:020000040000fa
:04010800c80100002a
:020000040000fa
:04010c00c801000026
:020000040000fa
:04011000c801000022
:020000040000fa
:04011400c80100001e
:020000040000fa
:04011800c80100001a
:020000040000fa
:04011c00c801000016
:020000040000fa
:04012000c801000012
:020000040000fa
:04012400c80100000e
:020000040000fa
:04012800c80100000a
:020000040000fa
:04012c00c801000006
:020000040000fa
:04013000c801000002
:020000040000fa
:04013400c8010000fe
:020000040000fa
:04013800c8010000fa
:020000040000fa
:04013c00c8010000f6
:020000040000fa
:04014000c8010000f2
:020000040000fa
:04014400c8010000ee
:020000040000fa
:04014800c8010000ea
:020000040000fa
:04014c00c8010000e6
:020000040000fa
:04015000c8010000e2
:020000040000fa
:04015400c8010000de
:020000040000fa
:04015800c8010000da
:020000040000fa
:04015c00c8010000d6
:020000040000fa
:04016000c8010000d2
:020000040000fa
:04016400c8010000ce
:020000040000fa
:04016800c8010000ca
:020000040000fa
:04016c00c8010000c6
:020000040000fa
:04017000c8010000c2
:020000040000fa
:04017400c8010000be
:020000040000fa
:04017800c8010000ba
:020000040000fa
:04017c00c8010000b6
:020000040000fa
:04018000c8010000b2
:020000040000fa
:04018400c8010000ae
:020000040000fa
:04018800c8010000aa
:020000040000fa
:04018c00c8010000a6
:020000040000fa
:04019000c8010000a2
:020000040000fa
:04019400c80100009e
:020000040000fa
:04019800c80100009a
:020000040000fa
:04019c00c801000096
:020000040000fa
:0401a000c801000092
:020000040000fa
:0401a400c80100008e
:020000040000fa
:0401a800c80100008a
:020000040000fa
:0401ac00c801000086
:020000040000fa
:0401b000c801000082
:020000040000fa
:0401b400c80100007e
:020000040000fa
:0401b800c80100007a
:020000040000fa
:0401bc00c801000076
:020000040000fa
:0401c000c801000072
:020000040000fa
:0401c400c80100006e
:020000040000fa
:0401c800c80100006a
:020000040000fa
:0401cc00c801000066
:020000040000fa
:0401d000c801000062
:020000040000fa
:0401d400c80100005e
:020000040000fa
:0401d800c80100005a
:020000040000fa
:10020000af8520000e7f22000e0188000000000054
:10021000000020000000e000020032000001200089
:1002200020028800140007005b0007000000e000c7
:1002300003003a0040b6220001002000020037000f
:100240000000200001002000810f7000010032003a
:1002500014000700000020000000e000020032004f
:100260000000020000000000ae2b020000000000b1
:100270000040da000000fe004440a90000b4200065
:100280000000e0000300320000002000a001880010
:100290004440a800000006008a1f78008b1f7800e9
:1002a0000000060091018800800478000000eb0047
:1002b0001a003700e284440032a0b4009905ba0065
:1002c000e284440032a0b4009906ba00e2844400fb
:1002d00032a0b4000006eb00476fde00fd07b2005d
:1002e000636ce10003003a00ebff07000000eb0045
:1002f0000a003700606ce10004003a00005deb008a
:100300008b05e900fdff3e00040037006168e10055
:10031000010032000086eb000b00070019c7ba008d
:100320001905ba000e04e00003003a000a00e000dc
:10033000e0ff3a0000000600fe07b2009e018800c0
:100340008a047800f5ff3700395dba008b05e900b3
:100350000c003200295dba008b05e900080032006c
:100360000c00e00003003a00e284440032a0b40034
:10037000f5ff370019ddba008b05e900faff3a00f6
:100380008904e800e184440032a0b40000000600c3
:100390000040da000000fe000000050003f0a200ab
:1003a000889fbe008a9fbe008c1f78002a0107002c
:1003b000310133006450e1004f0032006420e1005d
:1003c0005200320003826c0007003b000905d00098
:1003d0000306d000820f54000c065d0002003900b5
:1003e00002003200890178000306780085825500fa
:1003f00004003d000003fd008103fd008502ea00ca
:100400008b854200840f720002003b0060001000e8
:10041000e08018006011b8000005eb007a28e100c8
:100420000a00390006007800c75ddd00f707b2005a
:10043000878075002d003700828171000a017800e5
:10044000610560008180d1000080d3008502e90051
:10045000f9ff3b00060440008784480002003b008f
:1004600060041400e0841c000988a3000700320027
:100470008a81710082817100610164008904d10068
:100480000884d3008b05e800170037000978a30023
:1004900013003a000b00e000130034008b05e90064
:1004a0000804440089844c000a4474000978a300bd
:1004b0000d003a000b00e000070034008b05e90056
:1004c0000804440089844c0001003a000b0020001d
:1004d0000978a300f7ff32000001eb0002003700ab
:1004e000828171000a017800a00007000cf0a700cb
:1004f00001f0a000e90037006420e10002003a00aa
:10050000838f6c00e90033000801be000200be00ca
:10051000e2003700889fbe008a9fbe008c1f7800d3
:10052000cd000700d400330003866c006450e10066
:100530002e0032006420e100330032006150e100ff
:100540002f0032006120e100310032008585550026
:10055000eb07b00009002000080420000500370068
:100560000804440089844c000a003100060343005b
:1005700087834b000001530081815b00f8ff33004b
:100580000203be000800a0000804440089844c0057
:10059000f6ff3900c639dd00830173000100320027
:1005a000130020008904d1000884d3000998a30017
:1005b000050032000800a7000300a0008904d10054
:1005c0000884d3008b05e8008904d1000884d30097
:1005d0000001eb000281d2006400070001f0a100dd
:1005e0000cf0a70001f0a000ac0037006420e1008f
:1005f000ae0032000801be000200be00f7ff370067
:100600006120e100a90032006000b800f3ff37006c
:100610000000200001f82700f0ff3700839f6800ea
:100620000100e00002003d0060001000e0801800c2
:100630000300e00002003d0060011100e0811900ac
:10064000060107004f00e00002003b0060001000c0
:10065000e080180000000600140020000f013700a1
:10066000f4ff2f000d0137000001be0065000700f8
:100670000470a70003f0a1006509b1001600320064
:100680000d0035006828e10006003500f0ff2f005e
:10069000f1ff27000300e00013003b0001002800e9
:1006a0000000050000004000818048008502e9004c
:1006b000fcff3a0008003700f88f420002003c00bf
:1006c0008000eb00000005008100d1000080d30015
:1006d0008502e800fcff3a000300e00002003b0056
:1006e00060001000e0801800000006000001be005d
:1006f000440007000470a70003f0a10003f8a30062
:1007000013003a006509b1001000320009003500fd
:100710006928e10002003500010028000000050002
:1007200000004000818048008502e900fcff3a009b
:1007300000000600f88f4200050035008100d1005e
:100740000080d3008502e800fcff3a0000000600ac
:100750008000eb00000005004f89de008201780078
:10076000e90037006011b800f70037008100200071
:10077000618055000b003d000b00200061fe2f0042
:100780000100e1001d0034008281710061016400fc
:100790008904d1000884d3000000e800faff3a0081
:1007a000710020006100640003007000020060001e
:1007b0000900320061044400e0844c000988a5006f
:1007c000050032008b05e8006808e10002003a00ed
:1007d0008904d1000884d300f20f20000258e10000
:1007e00005003d00c75ddd00f907b2008980750096
:1007f00008007800000006000bf827008b00780046
:1008000000000500c70ade00f107b200f50fb200d4
:1008100008003200e1cf4200020032000170a00067
:1008200024000500810f700001003200040805005b
:1008300044000500810f700002003a00140005001a
:100840008502e9000000400081c04800fcff3b0039
:100850000170a000240005000004be00e9ff0700ad
:100860000003be000405be000200be00e5ff070055
:10087000844f7500000006000200be006450e100d5
:10088000050036006420e100020036000968a3007c
:1008900001003a000800be000160a0004f06780089
:1008a0004f05be004f04be0000000600f0ff2f0001
:1008b000f1ff2700f9ff3700889fbe008a9fbe0026
:1008c0008c1f7800e4ff0700ebff330003866c0009
:1008d0006450e100240032006420e100270032006f
:1008e0006150e100220032006120e100210032006d
:1008f0008b854200eb07b1000134b800003ab80024
:100900000804420089844a00013ab8000030b80067
:100910008880400009014a000400330000004000c4
:1009200081804800020149008b05e900c909dd000a
:10093000830170000100320013002000c814de00a3
:100940004814dd004709de001200b200c808de00ce
:100950000884700085ff070001f0a1000cf0a700db
:1009600001f0a000cdff37006120e100cfff320091
:100970000801be000200be00f7ff37006150e10031
:10098000fcff3a00c9ff3700889fbe008a9fbe0067
:100990008c1f78000004be009aff07000478a300b3
:1009a00026003a006120e1002500320009f8a3008a
:1009b00025003a006420e10021003200f507b10073
:1009c0000508a300020032000000400081804800ba
:1009d0006044b80003102000020020000000400026
:1009e000818048000805440089854c000a054100c3
:1009f0008b8549000a0550008b85580003003300a1
:100a00000a00be0002047400838474008301d100d4
:100a10000281d300830f7100f0ff3a008904d100f6
:100a20000884d3006001490082017800c1adde0076
:100a3000fb07b0004dff070098ff37000960a000da
:100a40000800be0095ff3700120220008241880096
:100a5000f0ff2f00f1ff270090ff37006022b80061
:100a6000060220000000d0008180d2000482d20063
:100a70008582d2000000a0000202520083825a0048
:100a8000030031000202420083824a000000a100fc
:100a90000603e900f3ff3a0000000600889fbe004d
:100aa0008a9fbe00841f78006bff07004f0078000c
:100ab00011003300f0ff2f00838f6c0006003b0015
:100ac000040565000a00a7000800370009f0a60029
:100ad0001000200008003700820f5400838f5c0054
:100ae000030039001000200001003e00000020003b
:100af00009f0a7000000ea004f05be004f04be0049
:100b00000000e00000000600881f78000304780061
:100b10000300e00007003d0060001000e0801800c6
:100b200060011900e081190002003b0001f02d0076
:100b3000030037000400070008f0a70001f0a00040
:100b40004f04780000000600889fbe008a9fbe0008
:100b500000827000040271000482710026003200dd
:100b60000004be000200be006011b8006b09200046
:100b7000950220000182cf000a0039000541b10032
:100b80000082cf00070039000541b1000982cf0083
:100b9000040039000541b1000882cf00010039008e
:100ba0000541b10005425200120032000a003b002c
:100bb00082817100610164008100d1000080d30056
:100bc0008984d3000884d3008b05e8000442e80040
:100bd000f7ff3a00070037000804440089844c00fe
:100be00000004800818048008b05e9000442e900cc
:100bf000f9ff3a00ddfe07004f05be004f04be00be
:040c000000000600ea
:020000040000fa
:100c0400000000007a4400001dfa00007a4400004d
:100c140019f400007b44000014ee00007c44000042
:100c2400f0e700007d440000bae100007e440000cb
:100c340075db00007f4400008f6a000080440000e0
:100c440054e700008044000019640000814400005f
:100c5400cde0000081440000795d00008244000082
:100c64001dda000082440000b856000083440000ee
:100c74004cd3000083440000d74f0000844400009c
:100c840052cc000084440000c548000085440000a4
:100c94002fc50000854400009141000086440000f7
:100ca400ecbd0000864400003d3a0000874400008b
:100cb4007fb6000087440000b8320000884400007a
:100cc400f2ae0000884400001b2b000089440000a1
:100cd40033a70000894400004c2300008a4400002c
:100ce4005c9f00008a4400005c1b00008b440000f1
:100cf400549700008b440000441300008c4400000f
:100d04002b8f00008c4400000a0b00008d4400006f
:100d1400e18600008d440000a80200008e4400001b
:100d2400667e00008e44000025fa00008e44000018
:100d3400cb7500008f44000071f100008f44000067
:100d44000e6d000090440000a4e8000090440000f0
:100d54002964000091440000a6df000091440000d3
:100d64001b5b00009244000087d600009244000000
:100d7400ec510000934400003fcd00009344000078
:100d84009348000094440000d7c30000944400003a
:100d9400123f00009544000046ba0000954400004c
:100da400713500009644000093b0000096440000a2
:100db400a62b000097440000b8a60000974400004a
:100dc400ba21000098440000b49c0000984400003c
:100dd400a61700009944000087920000994400007f
:100de400680d00009a440000398800009a4400000d
:100df4000a0300009b440000cb7d00009b440000dc
:100e040083f800009b440000337300009c440000fe
:100e1400d3ed00009c440000736800009d44000072
:100e240002e300009d440000895d00009e44000030
:100e340008d800009e4400007f5200009f44000038
:100e4400eecc00009f4400004c470000a04400008a
:100e5400aac10000a0440000f83b0000a144000027
:100e64003db60000a14400007b300000a244000015
:100e7400b0aa0000a2440000dd240000a344000046
:100e8400fa9e0000a34400000e190000a4440000d0
:100e94001b930000a4440000270d0000a54400009b
:100ea4001b870000a54400000e010000a6440000ba
:100eb400fa7a0000a6440000d5f40000a64400001d
:100ec400a86e0000a744000073e80000a7440000d7
:100ed40035620000a8440000f0db0000a8440000d4
:100ee400a2550000a944000044cf0000a94400001a
:100ef400dd480000aa44000077c20000aa440000b4
:100f0400003c0000ab44000079b50000ab44000095
:100f1400f22e0000ac44000062a80000ac440000c3
:100f2400c3210000ad4400001b9b0000ad44000041
:100f34006a140000ae440000b28d0000ae4400000c
:100f4400f2060000af44000029800000af44000016
:100f540050f90000af4400006f720000b04400007c
:100f640085eb0000b044000093640000b14400002d
:100f74009add0000b144000098560000b24400001d
:100f840085cf0000b244000073480000b344000061
:100f940050c10000b3440000253a0000b4440000ee
:100fa400f2b20000b4440000b62b0000b5440000c7
:100fb4006aa40000b54400001f1d0000b6440000f0
:100fc400c3950000b64400005e0e0000b744000064
:100fd400f2860000b74400007dff0000b744000023
:100fe40000780000b844000073f00000b84400002a
:100ff400dd680000b944000048e10000b944000085
:10100400a2590000ba440000f4d10000ba44000020
:10101400354a0000bb44000077c20000bb44000016
:10102400a83a0000bc440000d9b20000bc4400004f
:10103400fa2a0000bd44000012a30000bd440000d1
:101044001b1b0000be44000023930000be440000ac
:10105400310c0000bf44000073840000bf44000052
:10106400fafa0000bf440000d9720000c044000036
:10107400b0ea0000c04400007f620000c1440000e8
:101084003dda0000c1440000fc510000c2440000ed
:10109400aac90000c244000050410000c34400003b
:1010a400eeb80000c344000083300000c4440000d4
:1010b40008a80000c44400008d1f0000c5440000bf
:1010c40002970000c54400006f0e0000c6440000f3
:1010d400d3850000c64400002ffd0000c644000074
:1010e40083740000c7440000c7eb0000c74400003d
:1010f40002630000c84400003dda0000c844000058
:1011040068510000c94400008bc80000c9440000b5
:10111400a63f0000ca440000b0b60000ca44000064
:10112400ba2d0000cb440000b4a40000cb4400005e
:10113400a61b0000cc4400008f920000cc440000a9
:1011440071090000cd4400004a800000cd44000035
:1011540012f70000cd440000db6d0000ce44000017
:1011640093e40000ce440000445b0000cf44000040
:10117400ecd10000cf4400008b480000d0440000b4
:101184001bbf0000d0440000aa350000d144000079
:1011940029ac0000d1440000a0220000d244000089
:1011a4000e990000d2440000750f0000d3440000e3
:1011b400cb850000d344000021fc0000d344000090
:1011c40066720000d4440000ace80000d44400007f
:1011d400e15e0000d54400000ed50000d5440000b7
:1011e4002b4b0000d644000048c10000d644000048
:1011f40054370000d744000060ad0000d74400001d
:101204005c230000d844000050990000d84400003a
:10121400330f0000d944000017850000d9440000b2
:10122400f2fa0000d9440000bc700000da44000067
:101234007fe60000da440000395c0000db44000073
:10124400ecd10000db44000096470000dc440000c1
:101254002fbd0000dc440000c9320000dd44000062
:1012640052a80000dd440000d31d0000de4400004d
:101274004c930000de440000bc080000df44000082
:101284001d7e0000df44000085f30000df44000001
:10129400cd680000e044000014de0000e0440000db
:1012a40054530000e14400008bc80000e1440000f6
:1012b400ba3d0000e2440000e1b20000e244000054
:1012c400f8270000e3440000069d0000e34400000a
:1012d4000c120000e44400000a870000e44400000b
:1012e40000fc0000e4440000ee700000e54400004f
:1012f400cbe50000e5440000a05a0000e6440000ed
:1013040075cf0000e644000039440000e7440000c3
:10131400eeb80000e7440000a22d0000e8440000fd
:101324004ea20000e8440000e9160000e944000071
:101334007d8b0000e944000008000000ea4400003e
:101344008b740000ea44000006e90000ea4400004f
:10135400795d0000eb440000dbd10000eb440000a9
:1013640035460000ec4400008fba0000ec44000055
:10137400d12e0000ed44000012a30000ed44000053
:101384004c170000ee4400007d8b0000ee4400008a
:101394009eff0000ee440000b6730000ef4400001e
:1013a400c7e70000ef440000cf5b0000f0440000fa
:1013b400cfcf0000f0440000be430000f144000021
:1013c400aeb70000f14400008d2b0000f244000091
:1013d400649f0000f244000033130000f344000053
:1013e400fa860000f3440000b8fa0000f344000059
:1013f400666e0000f444000014e20000f4440000af
:10140400b2550000f544000048c90000f54400004e
:10141400d53c0000f644000052b00000f644000041
:101424008fc20000c943000000c00000ca4300008e
:10143400b8be0000cb43000029bc0000cc43000030
:101444009ab90000cd4300000ab70000ce43000063
:101454007bb40000cf430000ecb10000d043000097
:101464005caf0000d1430000cdac0000d2430000cb
:101474003daa0000d3430000aea70000d4430000ff
:101484001fa50000d543000048a10000d64300007a
:10149400b89e0000d7430000e19a0000d843000042
:1014a40052980000d94300007b940000da43000006
:1014b400ec910000db430000148e0000dc430000cc
:1014c4003d8a0000dd43000066860000de43000024
:1014d4008f820000df430000b87e0000e04300007c
:1014e400e17a0000e14300000a770000e2430000d3
:1014f40033730000e34300005c6f0000e44300002a
:101504003d6a0000e543000066660000e643000013
:101514008f620000e7430000715d0000e8430000b3
:1015240052580000e94300007b540000ea430000e5
:101534005c4f0000eb4300003d4a0000ec43000018
:1015440066460000ed43000048410000ee43000001
:10155400293c0000ef4300000a370000f04300007c
:10156400ec310000f1430000cd2c0000f2430000f8
:10157400ae270000f343000048210000f4430000bc
:10158400291c0000f54300000a170000f643000080
:10159400a4100000f7430000850b0000f84300008e
:1015a40066060000f943000000000000fa43000052
:1015b4009af90000fa4300007bf40000fb430000aa
:1015c40014ee0000fc430000aee70000fd43000001
:1015d40048e10000fe430000e1da0000ff430000a0
:1015e4003d6a0000004400000ae7000000440000d7
:1015f400d763000001440000a4e00000014400009f
:10160400715d0000024400003dda00000244000065
:101614000a5700000344000033d3000003440000d1
:10162400005000000444000029cc000004440000e1
:10163400f6480000054400001fc5000005440000f2
:10164400484100000644000014be000006440000a7
:101654003d3a00000744000066b60000074400005d
:101664008f32000008440000b8ae000008440000b7
:10167400e12a0000094400000aa700000944000010
:10168400332300000a4400005c9f00000a44000069
:10169400851b00000b4400000a9700000b44000067
:1016a400331300000c4400005c8f00000c44000065
:1016b400e10a00000d4400000a8700000d44000008
:1016c4008f0200000e440000b87e00000e440000ab
:1016d4003dfa00000e440000c37500000f440000f2
:1016e40048f100000f440000cd6c000010440000dd
:1016f40052e8000010440000d763000011440000c9
:101704005cdf000011440000e15a000012440000b4
:1017140066d6000012440000ec510000134400009f
:1017240071cd00001344000052480000144400002e
:10173400d7c30000144400005c3f000015440000bf
:101744003dba000015440000c335000016440000f3
:10175400a4b0000016440000852b000017440000cc
:1017640066a6000017440000ec21000018440000a5
:10177400cd9c000018440000ae170000194400007e
:101784008f92000019440000710d00001a440000fb
:10179400528800001a440000330300001b44000078
:1017a400147e00001b44000052f800001b4400009b
:1017b400337300001c44000014ee00001c440000bd
:1017c400526800001d44000033e300001d44000083
:1017d400715d00001e44000052d800001e44000049
:1017e4008f5200001f440000cdcc00001f440000b5
:1017f4000a47000020440000ecc10000204400001f
:10180400293c00002144000066b600002144000089
:10181400a430000022440000e1aa00002244000099
:101824001f25000023440000b89e0000234400004c
:10183400f618000024440000339300002444000000
:10184400710d0000254400000a87000025440000b3
:101854004801000026440000e17a0000264400000c
:101864001ff5000026440000b86e00002744000065
:1018740052e8000027440000ec6100002844000006
:1018840029dc000028440000c3550000294400005e
:101894005ccf000029440000f64800002a44000000
:1018a4008fc200002a440000293c00002b440000a1
:1018b400c3b500002b440000b82e00002c440000e7
:1018c40052a800002c440000ec2100002d4400002c
:1018d400e19a00002d4400007b1400002e44000017
:1018e400718d00002e4400000a0700002f44000000
:1018f400008000002f4400009af900002f440000eb
:101904008f7200003044000085eb0000304400007a
:101914007b6400003144000071dd000031440000ac
:1019240066560000324400005ccf000032440000e0
:10193400524800003344000048c100003344000012
:101944003d3a00003444000033b300003444000046
:10195400852b0000354400007ba4000035440000c2
:10196400cd1c000036440000c3950000364400003e
:10197400140e0000374400000a87000037440000ba
:101984005cff000037440000ae77000038440000dc
:10199400a4f0000038440000f66800003944000058
:1019a40048e10000394400009a5900003a4400001c
:1019b400ecd100003a4400003d4a00003b440000e2
:1019c4008fc200003b440000e13a00003c440000a8
:1019d4008fb200003c440000e12a00003d440000b6
:1019e40033a300003d440000e11a00003e4400001f
:1019f400339300003e440000e10a00003f4400002d
:101a0400338300003f440000e1fa00003f4400003b
:101a14008f72000040440000e1ea000040440000ee
:101a24008f620000414400003dda000041440000a0
:101a3400ec510000424400009ac9000042440000f6
:101a44004841000043440000f6b80000434400004d
:101a5400a43000004444000052a8000044440000a4
:101a64005c1f0000454400000a9700004544000044
:101a7400b80e000046440000c38500004644000040
:101a840071fd0000464400007b74000047440000e0
:101a940085eb000047440000336300004844000025
:101aa4003dda000048440000485100004944000069
:101ab40052c80000494400005c3f00004a44000052
:101ac40066b600004a440000712d00004b4400003b
:101ad4007ba400004b440000851b00004c44000024
:101ae4008f9200004c4400009a0900004d4400000d
:101af400008000004d4400000af700004d4400003f
:101b0400146e00004e4400007be400004e440000cc
:101b1400855b00004f440000ecd100004f440000fe
:101b240052480000504400005cbf000050440000d4
:101b3400c33500005144000029ac000051440000aa
:101b44008f22000052440000f69800005244000026
:101b54005c0f000053440000c385000053440000a0
:101b640029fc0000534400008f720000544400001c
:101b7400f6e8000054440000b85e0000554400003c
:101b84001fd5000055440000e14a000056440000ff
:101b940048c10000564400000a37000057440000c2
:101ba40071ad000057440000332300005844000086
:101bb4009a990000584400005c0f0000594400004a
:101bc4001f85000059440000e1fa00005944000058
:101bd400a47000005a44000066e600005a44000065
:101be400295c00005b440000ecd100005b44000071
:101bf400ae4700005c44000071bd00005c4400007e
:101c04008f3200005d44000052a800005d440000d3
:101c1400141e00005e440000339300005e44000084
:101c2400f60800005f440000147e00005f440000da
:101c340033f300005f440000f668000060440000d5
:101c440014de0000604400003353000061440000cf
:101c540052c8000061440000713d0000624400006d
:101c64008fb2000062440000ae270000634400000d
:101c7400cd9c000063440000ec11000064440000ab
:101c84000a8700006444000029fc0000644400004a
:101c9400a470000065440000c3e500006544000032
:101ca400e15a0000664400005ccf00006644000076
:101cb4007b44000067440000f6b80000674400005d
:101cc400712d0000684400008fa2000068440000e9
:101cd4000a17000069440000858b00006944000075
:101ce400000000006a4400007b7400006a440000a5
:101cf400f6e800006a440000715d00006b440000d7
:101d0400ecd100006b440000664600006c44000007
:101d14003dba00006c440000b82e00006d44000081
:101d240033a300006d4400000a1700006e44000055
:101d3400858b00006e4400005cff00006e440000d0
:101d4400d77300006f440000aee700006f4400004a
:101d5400855b00007044000000d000007044000067
:101d6400d743000071440000aeb700007144000086
:101d7400852b0000724400005c9f00007244000048
:101d840033130000734400000a870000734400000a
:101d9400e1fa000073440000b86e000074440000cf
:101da400ece1000074440000c355000075440000d9
:101db400f6c8000075440000cd3c000076440000e5
:101dc400a4b0000076440000d7230000774400004c
:101dd4000a97000077440000e10a000078440000fc
:101de400147e00007844000048f1000078440000ac
:101df4007b64000079440000aed700007944000001
:101e0400e14a00007a44000014be00007a44000055
:101e1400483100007b4400007ba400007b440000a8
:101e2400ae1700007c440000e18a00007c440000fe
:101e340071fd00007c440000a47000007d4400009b
:101e440033e300007d440000665600007e44000039
:101e5400f6c800007e440000293c00007f440000d6
:101e6400b8ae00007f440000a410000080440000cd
:101e74003d4a000080440000858300008044000047
:101e8400cdbc00008044000014f600008044000033
:101e94005c2f000081440000a4680000814400001d
:101ea400eca100008144000033db00008144000009
:101eb4002914000082440000714d00008244000097
:101ec400b886000082440000aebf000082440000d7
:101ed400f6f8000082440000ec3100008344000066
:101ee400336b00008344000029a4000083440000f5
:101ef4001fdd000083440000141600008444000029
:101f04005c4f0000844400005288000084440000b8
:101f140048c10000844400003dfa000084440000ed
:101f24003333000085440000296c00008544000020
:101f3400cda4000085440000c3dd000085440000fa
:101f4400b816000086440000ae4f0000864400002e
:101f5400528800008644000048c100008644000006
:101f6400ecf9000086440000e132000087440000e0
:101f7400856b00008744000029a40000874400000a
:101f84001fdd000087440000c315000088440000e2
:101f9400664e0000884400000a8700008844000060
:101fa400aebf00008844000052f8000088440000de
:101fb400f6300000894400009a690000894400005a
:101fc4003da20000894400008fda0000894400002b
:101fd400331300008a440000d74b00008a440000f9
:101fe400298400008a440000cdbc00008a4400001b
:101ff4001ff500008a440000712d00008b4400008e
:10200400146600008b440000669e00008b440000b0
:10201400b8d600008b4400000a0f00008c44000076
:10202400ae4700008c440000008000008c44000097
:1020340052b800008c44000052f000008c440000b0
:10204400a42800008d440000f66000008d440000c8
:10205400489900008d4400009ad100008d4400008e
:102064009a0900008e440000ec4100008e440000f8
:10207400ec7900008e4400003db200008e44000064
:102084003dea00008e4400008f2200008f440000cf
:102094008f5a00008f4400008f9200008f4400008c
:1020a4008fca00008f4400008f020000904400009b
:1020b4008f3a0000904400008f72000090440000aa
:1020c4008faa0000904400008fe2000090440000ba
:1020d4008f1a0000914400008f52000091440000c8
:1020e4008f8a0000914400003dc20000914400002a
:1020f4003dfa000091440000ec31000092440000dd
:10210400ec690000924400009aa10000924400008f
:102114009ad9000092440000481100009344000042
:10212400f648000093440000a4800000934400009b
:1021340052b800009344000052f0000093440000a1
:102144000028000094440000ae5f000094440000a6
:102154000a97000094440000b8ce000094440000a4
:102164006606000095440000143e000095440000fb
:1021740071750000954400001fad000095440000f7
:10218400cde4000095440000291c000096440000a2
:10219400d753000096440000338b0000964400009f
:1021a4008fc20000964400003dfa000096440000ef
:1021b4009a31000097440000f6680000974400003c
:1021c40052a0000097440000aed7000097440000de
:1021d4000a0f00009844000066460000984400007e
:1021e400c37d0000984400001fb50000984400001f
:1021f40029ec000098440000852300009944000065
:10220400e15a000099440000ec9100009944000058
:1022140048c9000099440000520000009a4400009c
:10222400ae3700009a440000b86e00009a440000e3
:10223400c3a500009a4400001fdd00009a4400007a
:10224400291400009b440000334b00009b44000011
:102254003d8200009b44000048b900009b440000fc
:1022640052f000009b4400005c2700009c440000e6
:10227400145e00009c4400001f9500009c44000074
:020000040000fa
:102284000000fa0000c8bf00e14f5000e7003a0028
:10229400204180004800de00804078005083200008
:1022a400014878002041800080407800408320006d
:1022b4000148780001c8bf000004e0000f003a00a4
:1022c40060c0b300a20b070010c0b300d90b070015
:1022d40020c0b3005f01070010e8b70001812000af
:1022e40091407800d08320000148780001c8bf00e5
:1022f4000040e80001e8b7004500370001c8bf000e
:10230400e14f50000f003a0060c0b300900b07008b
:1023140020c0b300c70b070050c0b3004d01070035
:1023240011e8b7001181200091407800e08320007b
:102334000148780001c8bf000040e80001e8b70088
:102344003300370001c8bf00e24f50000f003a00cd
:1023540060c0b3007e0b070030c0b300b50b0700ac
:1023640020c0b3003b01070012e8b7002181200020
:1023740091407800f08320000148780001c8bf0034
:102384000040e80001e8b7002100370001c8bf00a1
:10239400e34f50000f003a0060c0b3006c0b07001d
:1023a40040c0b300a30b070020c0b30029010700fd
:1023b40013e8b700318120009140780000842000a8
:1023c4000148780001c8bf000040e80001e8b700f8
:1023d4000f00370001c8bf00e44f50000c003a0062
:1023e40060c0b3005a0b070050c0b300910b070044
:1023f40020c0b3001701070014e8b7004181200092
:102404009140780010842000014878000168ef00b2
:1024140010c0b3004e0b070099020700104088005b
:10242400104080004800de00804078007083200067
:1024340001487800104080008040780060832000cc
:102444000148780030c0b300410b0700b90407000d
:1024540020408800204080004800de008040780052
:10246400908320000148780020408000804078005c
:10247400808320000148780050c0b300340b07006b
:102484000603070040408800404080004800de000a
:1024940080407800c08320000148780040408000dc
:1024a40080407800b08320000148780060c0b30009
:1024b400270b070060c0b3005e0b0700e6040700ab
:1024c400b0408800b04080004800de0080407800c2
:1024d4003084200001487800b040800080407800bb
:1024e40020842000014878003084200010407800c7
:1024f4008040780010c0b300810a070040842000a7
:10250400104078008040780010c0b3007c0a0700b7
:1025140060c0b3000e0b070070c0b300450b07008a
:10252400cd040700c0408800c04080004800de00a1
:10253400804078005084200001487800c04080002a
:1025440080407800408420000148780060c0b300d7
:10255400ff0a070080c0b300360b0700be04070063
:10256400d0408800d04080004800de0080407800e1
:102574007084200001487800d040800080407800ba
:10258400608420000148780040c0b300f00a0700ce
:102594000040eb00d60407000040780006e8b700ce
:1025a4006180200091407800a083200001487800d9
:1025b40070c0b300e60a070010c0b300cc040700e3
:1025c400004078000ae8b700a1802000914078001c
:1025d400808420000148780080c0b300dc0a070032
:1025e40020c0b300c204070060408800604080003f
:1025f4004800de0080407800a08420000148780074
:102604006040800080407800908420000148780079
:10261400b701070070408800704080008040780057
:1026240030832000014878000068ef000080fa0041
:10263400000006001000fa00881f78005007980078
:1026440061079800624f98006e489000e54f500073
:1026540040003a000000eb00000f7800b01c20009e
:1026640010079800320037001e0090001e00400042
:102674000000d100200798002e009000c200dd0069
:1026840020a12800008040001000be005e019000e0
:10269400ee019000eff707000000e00003003a00ad
:1026a4002e0090001003b100670037002e00900048
:1026b400c200dd0020a12800008040001000be0000
:1026c40018c0b3005e019000ee019000e3f707002c
:1026d4000000e00001003c000044eb000804e000be
:1026e40003003200ae00900011079800100037007c
:1026f4002e009000c200dd0020a1280000804000d0
:102704001000be0018c0b3005e019000ee019000fe
:10271400d0f707000000e000010035000044eb00a2
:102724000804e00002003200ae009000010f7800bf
:102734001e0090001e005000e10f5000caff3e0032
:10274400f1fc2f001e804000300798003e009000ee
:102754003d0037000000eb00000f7800301020002f
:1027640010079800310037001e0090001e00400042
:102774000000d100400798004e009000c200dd0028
:1027840020602800008040001000be005e01900020
:10279400ee019000aff707000000e00002003a00ed
:1027a4004e009000280037004e009000c200dd006b
:1027b40020602800008040001000be0018c0b30054
:1027c4005e019000ee019000a4f707000000e00015
:1027d40001003c000044eb000804e0000300320068
:1027e400ce00900011079800100037004e009000b2
:1027f400c200dd0020602800008040001000be0000
:1028040018c0b3005e019000ee01900091f707003c
:102814000000e000010035000044eb000804e00083
:1028240002003200ce009000010f78001e009000dc
:102834001e005000e10f5000cbff3e009e007800c8
:10284400310798003e0090004f0478000080fa00a1
:10285400000006006a00fa00889fbe0000ef98009e
:102864006000b800008fbe000ee89000e54f5000f5
:1028740003003e000ee890000004e00002003a006d
:1028840000c0eb00170137000000eb003007980090
:102894000a003700080a0700800078003e00900014
:1028a40000004000000047008002b00001087800ea
:1028b4003e0090000000e800300798003e009000c1
:1028c400ff0f5000f3ff36000000eb0040079800b4
:1028d4002f0037000000eb00500798002400370059
:1028e4005e0090000000400000004700c01090000f
:1028f4005e0090000000e800000040000000470077
:1029040040109000808f5000160036005e0090004a
:102914000000400000004700c010900061079800cc
:102924005e0090000000e800000040000000470046
:10293400c01090005e0090000000400000004700be
:102944008002b000010878005e0090000000e800fa
:1029540000004000000047008002b0006e019000bb
:10296400020878005e0090000000e800500798001c
:102974004e009000ff0010005e009000808f500019
:10298400d7ff3e004e0090000000e800400798008a
:102994004e009000ff0f5000ceff36006000b800dc
:1029a400008fbe0080002000400798000a00370016
:1029b4004e009000000040000000470040109000ce
:1029c4008000eb001e0f40005e9748004e00900010
:1029d4000000e800400798004e009000f70f5000f8
:1029e400f3ff36001e00be00cc09dd004404de0007
:1029f40008847100c48cde00088fbe000ee89000cd
:102a0400e54f50005e003a00f0392000010020003c
:102a140070079800010f98001e01be00120f980065
:102a2400230f9800ae089000803821000088b90078
:102a3400000178001e0890006000b90000007800d2
:102a4400000141009e089000803821000008b80071
:102a54000101410082007800100f9800210f9800b6
:102a6400100f9800210f98001e089000ae089000e7
:102a74004008de0001002000100f9800210f98008c
:102a84001e089000ae08900035f70700f2512800a8
:102a9400b30d24009ef6070013f70700300f9800cb
:102aa400410f98003e099000ce0990007e009000ee
:102ab4008e0890000200400083804800300f980088
:102ac400410f98003e099000ce0990000071220049
:102ad40001002000800f5100818f59000200360050
:102ae40000c0eb007f0037000271220003002000c9
:102af4003e089000ce0890000000510081805900eb
:102b0400500f9800610f98005e089000ee08900046
:102b140013f707000004be003e089000ce089000a2
:102b24000ff707000001be000800be0078f607009a
:102b3400700f9800011798007e0990008e11900084
:102b440000002f00b159240071f607000200200094
:102b54000312240010f60700700f98000117980064
:102b64000ee990007e0890008e109000b1fe0700e0
:102b7400101798001e109000404798005800370026
:102b8400d05620000100200020179800311798002b
:102b94001e01be00120f9800230f9800ae0890008b
:102ba400803821000088b900000178001e089000d8
:102bb4006000b90000007800000141009e08900008
:102bc400803821000008b80001014100820078002b
:102bd400100f9800210f9800100f9800210f9800f3
:102be4001e089000ae0890004008de00010020009e
:102bf400100f9800210f98001e089000ae08900056
:102c0400520020000300200093f70700300f9800c3
:102c1400410f98003e099000ce0990002e109000bc
:102c2400be1090000200400083804800300f9800de
:102c3400410f98003e099000ce09900000712200d7
:102c440001002000800f5100818f590002003600de
:102c540000c0eb00230037000271220003002000b3
:102c64003e089000ce089000000051008180590079
:102c7400500f9800610f98005e089000ee089000d5
:102c8400b7f607000004be003e089000ce0890008e
:102c9400b3f607000001be000800be001cf60700e2
:102ca400700f9800011798007e0990008e11900013
:102cb40000002c00115c240015f60700700f98002a
:102cc400011798000ee990007e0890008e10900085
:102cd40058fe0700101798001e10900040479800f7
:102ce4004e4090004f04be000080fa000000060031
:102cf4001a00fa00889fbe00d3080700000f78006e
:102d0400d0562000010020001007980021079800e9
:102d14001e0078008000eb003007980041079800ff
:102d2400ce009000803821000088b90000017800ae
:102d34003e0090006000b9000000780000014100ee
:102d4400be009000803821000008b8000101410055
:102d540082007800300798004107980030079800f7
:102d6400410798003e009000ce0090004409dd0029
:102d74004c00de0000007100cc08de003007980033
:102d8400410798003e009000ce00900052002000c1
:102d94000300200030f707005007980061079800ef
:102da4005e019000ee0190001e009000ae009000c5
:102db4000200400083804800500798006107980093
:102dc4005e019000ee0190000071220001002000dd
:102dd400800f5100818f5900020036000000eb0083
:102de4002400370002712200030020005e009000de
:102df400ee00900000005100818059007007980097
:102e0400010f98007e0090008e08900054f6070091
:102e14000004be005e009000ee00900050f6070033
:102e24000001be000800be00b9f50700100f9800ad
:102e3400210f98001e099000ae09900000002c009c
:102e4400115c2400b2f50700100f9800210f9800c0
:102e540022c0b3001e089000ae089000f5fd0700e4
:102e6400300f98003e089000005f98000e589000c4
:102e74000080fb004f04be000080fa000000060042
:102e8400da07fa00889fbe008a1f78000040eb0032
:102e9400004f78006000b8001007980021079800e0
:102ea4000040eb00004f78000a0037001e85fb004d
:102eb400810807008000eb004251dd000201470059
:102ec4006a0141000089be00a004200072090700c5
:102ed4001e4fe80030c6b3009e40780080cf5000fb
:102ee400f2ff36000040eb0010479800470037001f
:102ef4001e4090000083fb001e4090000080fb00f9
:102f04004200dd00ea004700008040001000be00df
:102f1400823821000289b900020178006002b900f8
:102f24008401780003014100833821000300b800c4
:102f340001014100820078004231dd0002014700b6
:102f44006a0141000089be001e4090000081fb0020
:102f54001e4090000080fb004200dd00ea004700b4
:102f6400008040001000be00408cde00cf8cde00ec
:102f74004210dd00000047006a0040000888be00df
:102f84001e4090000080fb004200dd00ea00470084
:102f9400008040001001be001e4090000080fb0035
:102fa4004200dd00ea004700008040001000be003f
:102fb400009ab90004027800028bb90086027800f6
:102fc400050242000010b8000102420084007800ab
:102fd400300798004107980030079800410798008f
:102fe400e2408000f34080003e009000ce0090005c
:102ff4000200400083804800e0408800f1408800df
:103004001e4090000040e800104798009e40900049
:1030140030c6b30080cf5000b5ff3600e0408000da
:10302400f140800042062000030020008af60700d9
:10303400e0408800f1408800e0408000f1408000da
:10304400c7f507004ff60700a7f50700e040880022
:10305400f1408800e0408000f1408000c0f50700a6
:1030640042b82b00b3f7230012f607009ef50700c1
:10307400e0408800f1408800e2408000f340800096
:1030840012079800230798001e0090004f0578004f
:103094004f04be000080fa00000006001404fa0089
:1030a400889fbe008a9fbe006000b8005007980049
:1030b400610798000000eb00700798000040eb00e7
:1030c40020579800f0ff2f0001002000200f9800e7
:1030d400310f98006000b800400f9800510f98001d
:1030e400803e2000ec0807000000eb00000f780091
:1030f4000a003700f00707008000eb001e0178008b
:103104004211dd0002014700c202b0000089be0086
:10311400300c2000e00807001e0fe800900f20008c
:103124009e007800808f5000f2ff36000000eb0014
:1031340010079800290037001e0090004200dd00af
:10314400c10220008e804000008040001001be00bb
:103154002e089000be089000800f5100818f590006
:1031640008003d001e0090004200dd00c102200066
:103174008e804000008040001001be00220f9800a5
:10318400330f98001e0090004200dd00c1022000b1
:103194008e804000008040001001be004e08900068
:1031a400de089000800f5100818f59000800340020
:1031b4001e0090004200dd00c10220008e8040000d
:1031c400008040001001be00420f9800530f980089
:1031d4001e0090000000e800100798009e00900078
:1031e400900f2000808f5000d3ff36002e099000ee
:1031f400be0990004e089000de08900002004000d6
:10320400838048008180d1000080d300700f980033
:10321400011798000000eb002007980044003700d5
:103224002e0090000000e9004200dd00c1022000f1
:103234008e804000008040001001be007e08900097
:103244008e109000800f5100818f590015003c00b2
:103254002e0090004200dd00c10220008e8040005c
:10326400008040001001be007e0890008e10900087
:10327400800f5100818f59000a0034002e509000b5
:103284000040e80020579800ae0090007e009000b7
:1032940000805000000f9800ae0190007307980062
:1032a400200037002e0090000000e9004200dd00fd
:1032b400c10220008e804000008040001001be004a
:1032c4007e0890008e109000800f5100818f59006d
:1032d400140035002e0090004200dd00c1022000e1
:1032e4008e804000008040001001be007e089000e7
:1032f4008e109000800f5100818f590009003d000d
:103304002e5090000040e80020579800ae00900036
:103314007e00900000805000000f9800ae009000e6
:10332400710798002e0090000000e8002007980024
:10333400ae009000900f2000808f5000b8ff360040
:103344000e0890000000e000cf0032008e089000cc
:10335400d0072000808f5000cb003e000e08900064
:1033640000004000600f9800a10f20006e0890003c
:1033740000017800110009008280d800101798001d
:10338400ee0890001e1090000088b900000078003c
:10339400600f98008e089000a00f2000808f5000ce
:1033a4005e003600a00f2000600f98000000eb00c4
:1033b40040079800540037004e0090004200dd00a2
:1033c400c10220008e804000008040001001be0039
:1033d4007e0890008e1090000000510081805900fa
:1033e4004e0190004211dd0002014700c202b0000c
:1033f4000089be004e0090004200dd00c1022000a2
:103404008e804000008040001000be008238210001
:103414000289b900020178006002b90084017800d1
:1034240003014100833821000300b8000101410079
:10343400820078004e0190004211dd000201470035
:10344400c202b0000089be004e0090004200dd00c0
:10345400c10220008e804000008040001000be00a9
:10346400408dde00cf8dde004e0090004200dd0076
:1034740000004700c002b0000a88be004e00900061
:103484004200dd00c10220008e8040000080400028
:103494001001be004e0090004200dd00c102200079
:1034a4008e804000008040001000be00009ab900e9
:1034b40004027800028bb9008602780005024200fb
:1034c4000010b80001024200840078002017980020
:1034d4003117980020179800311798005e0190006a
:1034e400ee0190002e109000be10900002004000eb
:1034f4008380480050079800610798004e009000b0
:103504000000e80040079800ce0090006e0890008c
:10351400808f5000a8ff39005b0037000000eb00eb
:1035240030079800540037003e0090004200dd0050
:10353400c10220008e804000008040001001be00c7
:103544007e0890008e109000000051008180590088
:103554003e0190004211dd0002014700c202b000aa
:103564000089be003e0090004200dd00c102200040
:103574008e804000008040001000be008238210090
:103584000289b900020178006002b9008401780060
:1035940003014100833821000300b8000101410008
:1035a400820078003e0190004211dd0002014700d4
:1035b400c202b0000089be003e0090004200dd005f
:1035c400c10220008e804000008040001000be0038
:1035d400408cde00cf8cde003e0090004200dd0017
:1035e40000004700c002b0000888be003e00900002
:1035f4004200dd00c10220008e80400000804000b7
:103604001001be003e0090004200dd00c102200017
:103614008e804000008040001000be00009ab90077
:1036240004027800028bb900860278000502420089
:103634000010b800010242008400780020179800ae
:103644003117980020179800311798005e019000f8
:10365400ee0190002e109000be1090000200400079
:103664008380480050079800610798003e0090004e
:103674000000e80030079800be0090006e0890003b
:10368400808f5000a8ff39006e0890008000eb0086
:103694000001be005e009000ee009000def3070023
:1036a40050079800610798005e009000ee009000bb
:1036b40028f40700b3f40700eaf307005007980062
:1036c400610798005e009000ee00900021f407006e
:1036d400c2d32b00a301240076f40700e1f3070012
:1036e40050079800610798005e019000ee01900079
:1036f4003006200001002000800f5100818f590006
:1037040003003c006000b80050079800610798006f
:103714005e019000ee019000421798005317980044
:103724004e1090004f05be004f04be000080fa000a
:10373400000006001000fa00889fbe006000b80078
:1037440040079800510798006000b80010079800df
:10375400210798000000eb00600798000000eb00d0
:10376400000f7800010037001e0fe8001e007800eb
:10377400e90f5000fcff36006000b8001007980005
:10378400210798000040eb00604798000d003700c7
:1037940049060700700798007e0090008000eb0047
:1037a4001e019000ae01900002004000838048009a
:1037b40010079800210798006e4090000040e80030
:1037c40060479800ee409000f0c3b30080cf5000f3
:1037d400efff36001e009000ae0090004a09dd00a5
:1037e4004604de0008047100c68cde004807980019
:1037f40059079800de009000803821000088b90045
:10380400000178004e0090006000b90000007800cc
:1038140000014100ce009000803821000008b8006b
:103824000101410082007800400798005107980088
:1038340040079800510798004e009000de00900069
:103844004008de00600798006e0090004f04be0040
:103854000080fa00000006000c00fa00889fbe00f9
:103864006000b80010079800210798006000b800b5
:1038740010079800210798000000eb00000f780063
:103884000b0037000c060700300798003e0090003c
:103894008000eb001e019000ae0190000200400089
:1038a4008380480010079800210798001e0fe80045
:1038b400f00320009e007800808f5000f1ff360056
:1038c4001e009000ae0090004a09dd004604de00b0
:1038d40008047100c68cde00480798005907980058
:1038e4004e0090004f04be000080fa000000060065
:1038f4001000fa00889fbe008a9fbe008c9fbe0005
:10390400204f98006000b800200798003107980005
:103914006000b80020079800310798000000eb0011
:1039240010079800030037001e0090000000e80014
:10393400100798009e00900030062000808f5000f1
:10394400f9ff36000000eb00100798000d00370067
:10395400d9050700400798004e0090008000eb0056
:103964002e019000be0190000200400083804800b8
:1039740020079800310798001e0090000000e8001e
:10398400100798009e009000f0032000808f5000e4
:10399400efff36002e009000be009000ca09dd0043
:1039a4004601de0002817100620798004689de004c
:1039b400720798006e019000fe01900022079800a3
:1039c400330798002e489000e14f500008003a0059
:1039d4002e009000be009000c809dd004806de00fd
:1039e4000c867100c88ede000c0f780018003700ba
:1039f4002e4890000004e00008003a002e009000d9
:103a0400be0090004809dd004805de000a0571008b
:103a1400c88dde000a0f78000d0037002e48900094
:103a2400e24f500008003a002e009000be009000c3
:103a3400c909dd004704de0008847100c78cde007c
:103a4400080f78000200370090032300000f78006d
:103a54001e0078004f06be004f05be004f04be0096
:103a64000080fa00000006000800fa002007980011
:103a7400614798000000eb00000f78000000eb00a5
:103a84001007980009003700ae0090001e00900057
:103a940000804000104078000080fb001e0f4000b2
:103aa4001e0090000000e800100798006e4090008f
:103ab4008080fb001e009000808f5000f2ff3e00cb
:103ac4001e0078000080fa00000006000200fa00e0
:103ad400004f7800114798001e80fb00ea0f500049
:103ae40033003200ea0f500007003c00e70f50009b
:103af4001b003200e90f500023003200e60f500093
:103b04000d0032005c003700ed0f50003c00320025
:103b1400ed0f500003003c00ec0f50002e0032006b
:103b240055003700ee0f50003f003200ef0f5000f9
:103b340047003200500037001e4090006140600092
:103b44000080fb00610060004600dd00011680007b
:103b54000160a100010070000016880046003700d3
:103b64001e409000614060000080fb006100600026
:103b74004700dd00011680000170a1000100700003
:103b8400001688003c0037001e4090006140600031
:103b94000080fb00610060004900dd000116800028
:103ba4000190a10001007000001688003200370067
:103bb4001e409000614060000080fb0061006000d6
:103bc4004a00dd000116800001a0a1000100700080
:103bd40000168800280037001e40900061406000f5
:103be4000080fb00610060004c00dd0001168000d5
:103bf40001c0a10001007000001688001e003700fb
:103c04001e409000614060000080fb006100600085
:103c14004d00dd000116800001d0a10001007000fc
:103c240000168800140037001e40900061406000b8
:103c34000080fb00610060004e00dd000116800082
:103c440001e0a10001007000001688000a0037009e
:103c54001e409000614060000080fb004f00dd00ca
:103c640002168000f1ff270081006100010070004e
:103c740000168800000000000080fa000000060022
:103c84000200fa00004f7800114798001e80fb00e4
:103c9400cf80de00f200200003002000820f5000dd
:103ca400838f5800b0003e00006001000f00370011
:103cb4001700370020003700290037003200370092
:103cc4003b003700440037004d00370056003700f2
:103cd4005f00370068003700710037007a00370052
:103ce400830037008c003700950037001e40900099
:103cf400614060000080fb006100600031168000bc
:103d04000100a10001007000301688009700370000
:103d14001e409000614060000080fb006100600074
:103d240000004000311680000110a1000100700065
:103d3400301688008d0037001e40900061406000fe
:103d44000080fb00610060004200dd00311680004d
:103d54000120a100010070003016880083003700a4
:103d64001e409000614060000080fb006100600024
:103d74004300dd00311680000130a1000100700015
:103d840030168800790037001e40900061406000c2
:103d94000080fb00610060004400dd0031168000fb
:103da4000140a10001007000301688006f00370048
:103db4001e409000614060000080fb0061006000d4
:103dc4004500dd00311680000150a10001007000a3
:103dd40030168800650037001e4090006140600086
:103de4000080fb00610060004600dd0031168000a9
:103df4000160a10001007000301688005b003700ec
:103e04001e409000614060000080fb006100600083
:103e14004700dd00311680000170a1000100700030
:103e240030168800510037001e4090006140600049
:103e34000080fb00610060004800dd003116800056
:103e44000180a1000100700030168800470037008f
:103e54001e409000614060000080fb006100600033
:103e64004900dd00311680000190a10001007000be
:103e7400301688003d0037001e409000614060000d
:103e84000080fb00610060004a00dd003116800004
:103e940001a0a10001007000301688003300370033
:103ea4001e409000614060000080fb0061006000e3
:103eb4004b00dd003116800001b0a100010070004c
:103ec40030168800290037001e40900061406000d1
:103ed4000080fb00610060004c00dd0031168000b2
:103ee40001c0a10001007000301688001f003700d7
:103ef4001e409000614060000080fb006100600093
:103f04004d00dd003116800001d0a10001007000d9
:103f140030168800150037001e4090006140600094
:103f24000080fb00610060004e00dd00311680005f
:103f340001e0a10001007000301688000b0037007a
:103f44001e409000614060000080fb004f00dd00d7
:103f540032168000f1ff270081006100010070002b
:103f64003016880001003700000000000080fa00cd
:103f7400000006000200fa00004f78001147980084
:103f84001e80fb00e40f50002e003200e40f5000ae
:103f940007003c00e20f500016003200e20f500010
:103fa4001e003c00e10f5000080032004d003700b5
:103fb400ee0f500037003200ef0f50003f00320088
:103fc400ed0f500029003200460037001e409000db
:103fd400614060000080fb00610060000000400060
:103fe400611680000110a1000100700060168800b5
:103ff4003c0037001e409000614060000080fb00e0
:10400400610060004200dd00611680000120a10013
:104014000100700060168800320037001e409000d6
:10402400614060000080fb00610060004300dd002f
:10403400611680000130a100010070006016880044
:10404400280037001e409000614060000080fb00a3
:10405400610060004400dd00611680000140a100a1
:1040640001007000601688001e0037001e4090009a
:10407400614060000080fb00610060004d00dd00d5
:104084006116800001d0a100010070006016880054
:10409400140037001e409000614060000080fb0067
:1040a400610060004e00dd006116800001e0a100a7
:1040b40001007000601688000a0037001e4090005e
:1040c400614060000080fb004f00dd00621680004c
:1040d400f1ff270081006100010070006016880074
:1040e400000000000080fa00000006000200fa0050
:1040f400004f7800114798001e80fb00cf80de003f
:10410400f200200003002000820f5000838f58002b
:10411400b0003e00006001000f00370017003700b8
:104124002000370029003700320037003b003700f9
:10413400440037004d003700560037005f00370059
:1041440068003700710037007a00370083003700b9
:104154008c003700950037001e40900061406000dd
:104164000080fb0061006000911680000100a10046
:104174000100700090168800970037001e409000e0
:10418400614060000080fb006100600000004000ae
:10419400911680000110a1000100700090168800a3
:1041a4008d0037001e409000614060000080fb00dd
:1041b400610060004200dd00911680000120a10032
:1041c4000100700090168800830037001e409000a4
:1041d400614060000080fb00610060004300dd007e
:1041e400911680000130a100010070009016880033
:1041f400790037001e409000614060000080fb00a1
:10420400610060004400dd00911680000140a100bf
:1042140001007000901688006f0037001e40900067
:10422400614060000080fb00610060004500dd002b
:10423400911680000150a1000100700090168800c2
:10424400650037001e409000614060000080fb0064
:10425400610060004600dd00911680000160a1004d
:1042640001007000901688005b0037001e4090002b
:10427400614060000080fb00610060004700dd00d9
:10428400911680000170a100010070009016880052
:10429400510037001e409000614060000080fb0028
:1042a400610060004800dd00911680000180a100db
:1042b4000100700090168800470037001e409000ef
:1042c400614060000080fb00610060004900dd0087
:1042d400911680000190a1000100700090168800e2
:1042e4003d0037001e409000614060000080fb00ec
:1042f400610060004a00dd009116800001a0a10069
:104304000100700090168800330037001e409000b2
:10431400614060000080fb00610060004b00dd0034
:104324009116800001b0a100010070009016880071
:10433400290037001e409000614060000080fb00af
:10434400610060004c00dd009116800001c0a100f6
:1043540001007000901688001f0037001e40900076
:10436400614060000080fb00610060004d00dd00e2
:104374009116800001d0a100010070009016880001
:10438400150037001e409000614060000080fb0073
:10439400610060004e00dd009116800001e0a10084
:1043a40001007000901688000b0037001e4090003a
:1043b400614060000080fb004f00dd009216800029
:1043c400f1ff270081006100010070009016880051
:1043d40001003700000000000080fa000000060021
:1043e4000200fa00004f7800114798001e80fb007d
:1043f400e40f50003e003200e40f50000c003c007b
:10440400e10f50001c003200e10f500003003c009b
:104414000000e0000f00320067003700e20f500098
:104424001f003200e30f5000270032006200370003
:10443400e60f500042003200e60f5000360035000f
:10444400e70f500048003200e80f500050003200df
:10445400590037001e409000614060000080fb005e
:1044640061006000f11680000100a10001007000ed
:10447400f0168800500037001e4090006140600034
:104484000080fb006100600000004000f116800025
:104494000110a10001007000f016880046003700ea
:1044a4001e409000614060000080fb0061006000dd
:1044b4004200dd00f11680000120a100010070001f
:1044c400f01688003c0037001e40900061406000f8
:1044d4000080fb00610060004300dd00f1168000f5
:1044e4000130a10001007000f0168800320037008e
:1044f4001e409000614060000080fb00610060008d
:104504004400dd00f11680000140a10001007000ac
:10451400f0168800280037001e40900061406000bb
:104524000080fb00610060004500dd00f1168000a2
:104534000150a10001007000f01688001e00370031
:104544001e409000614060000080fb00610060003c
:104554004600dd00f11680000160a100010070003a
:10456400f0168800140037001e409000614060007f
:104574000080fb00610060004700dd00f116800050
:104584000170a10001007000f01688000a003700d5
:104594001e409000614060000080fb0061006000ec
:1045a4004800dd00f11680000180a10001007000c8
:1045b400f0168800000000000080fa0000000600e9
:1045c4000200fa00004f7800114798001e80fb009b
:1045d400cf80de00f200200003002000820f500094
:1045e400838f580088003e00006001000f003700f0
:1045f40017003700200037002900370084003700f7
:10460400830037003000370039003700420037009c
:104614004b0037007e0037007d0037005200370022
:104624005b003700640037006d0037001e409000c7
:10463400614060000080fb00610060002117800081
:104644000100a100010070002017880071003700ec
:104654001e409000614060000080fb00610060002b
:1046640000004000211780000110a100010070002b
:1046740020178800670037001e40900061406000ea
:104684000080fb00610060004200dd002117800013
:104694000120a10001007000201788005d00370090
:1046a4001e409000614060000080fb0061006000db
:1046b4004300dd00211780000130a10001007000db
:1046c40020178800530037001e40900061406000ae
:1046d4000080fb00610060004600dd0021178000bf
:1046e4000160a10001007000201788004900370014
:1046f4001e409000614060000080fb00610060008b
:104704004700dd00211780000170a1000100700046
:10471400201788003f0037001e4090006140600071
:104724000080fb00610060004800dd00211780006c
:104734000180a100010070002017880035003700b7
:104744001e409000614060000080fb00610060003a
:104754004900dd00211780000190a10001007000d4
:10476400201788002b0037001e4090006140600035
:104774000080fb00610060004c00dd002117800018
:1047840001c0a1000100700020178800210037003b
:104794001e409000614060000080fb0061006000ea
:1047a4004d00dd002117800001d0a1000100700040
:1047b40020178800170037001e40900061406000f9
:1047c4000080fb00610060004e00dd0021178000c6
:1047d40001e0a10001007000201788000d003700df
:1047e4001e409000614060000080fb004f00dd002f
:1047f40022178000f1ff2700810061000100700092
:104804002017880003003700000000000100370073
:10481400000000000080fa00000006000800fa0012
:104824001007980041479800320798004e409000c6
:10483400ef4f500035003e001e009000e50f500081
:1048440034003e003e0090000000e00003003a0007
:1048540010c0b300004f7800020037000040eb00a6
:10486400004f78001e009000e20f50001600320046
:10487400e20f500005003e000000e0000a00320094
:10488400e10f50000c00320023003700e40f500009
:1048940015003200e40f50000f003900e50f5000fe
:1048a400150032001c0037009e4078004e409000f6
:1048b40086fc0700180037009e4078004e409000a8
:1048c400effc0700140037009e4078004e40900033
:1048d400a8fd0700100037009e4078004e4090006d
:1048e40002fe07000c0037009e4078004e40900006
:1048f400bbfe0700080037009e4078004e40900041
:104904002fff070000000000030037000000000034
:1049140001003700000000000080fa0000000600db
:104924000400fa00000f78002147980032479800ed
:104934002e409000ef4f50000d003e001e00780006
:10494400e50f50000c003e003e40900061406000c6
:104954000080fb004f00dd0042178000f1ff2700bc
:1049640081006100010070004017880003003700d7
:104974000000000001003700000000000080fa0081
:10498400000006000600fa0010079800414798004e
:104994004e409000ef4f500003003e001e00900078
:1049a400e50f5000020036000040eb000500370020
:1049b400301780004c00de0061406000004f78003a
:1049c4001e4078000080fa00000006000000fa0093
:1049d4000080eb00401588000080eb000016880082
:1049e4000080eb00301688000080eb006016880021
:1049f4000080eb00901688000080eb00f016880021
:104a04000080eb002017880012002000f1c0b300e2
:104a14005000200081ff070012002000d1c0b30025
:104a2400500020007dff070012002000c1c0b30029
:104a34005000200079ff07001200200041c0b3009d
:104a44002000200075ff07001200200071c0b30091
:104a54005000200071ff07000001eb0061c0b300ab
:104a6400500020006dff070012002000f1c0b300c9
:104a74001000200069ff070012002000e1c0b3000d
:104a84003000200065ff070012002000f1c0b300d1
:104a94003000200061ff07001200200011c0b300a5
:104aa400300020005dff07001200200031c0b30079
:104ab4003000200059ff07001200200021c0b3007d
:104ac4003000200055ff07000001eb0031c0b300a7
:104ad4001000200051ff070012002000c1c0b300e5
:104ae400100020004dff070012002000d1c0b300c9
:104af4001000200049ff070012002000e1c0b300ad
:104b04001000200045ff070012002000d1c0b300b0
:104b14002000200041ff07001200200091c0b300d4
:104b2400300020003dff070012002000b1c0b30098
:104b34003000200039ff07000001eb00e1c0b300a2
:104b44002000200035ff070012002000c1c0b30080
:104b54003000200031ff07001200200021c0b30004
:104b6400100020002dff07000001eb0081c0b300fe
:104b74004000200029ff07001200200071c0b3008c
:104b84004000200025ff07001200200061c0b30090
:104b94004000200021ff0700e9e2a900e9a2a900e2
:104ba400e982a900cb82a800cba2a800cbc2a900ad
:104bb400d1a2a900d722a900d762a900d782a80050
:104bc4000080fa00000006000000fa00000028003f
:104bd400b010880000002800c0108800c000200029
:104be400f010880070002000000588008f20a900c4
:104bf4008f00a8001942a800000028006010880057
:104c04000000280070108800c0002000a010880058
:104c14008d40a9008d20a9000f42a8000080fa0051
:104c240000000600809fbe00821f78000000fa008a
:104c34008700a900e01080000040780026e8b70053
:104c44006182200091407800a0cab30080cf500058
:104c54000d003a0028c8bf000004e0000a003a0032
:104c64002768ef0027c8bf000080fb006282200095
:104c740012417800618520008270780010c0b30072
:104c840028e8b7001000370027c8bf000040e8003c
:104c940027e8b70027c8bf000080fb00628220001d
:104ca40012417800618520008270780027c8bf0017
:104cb400e24f5000040036002768ef0010c0b30034
:104cc40029e8b7002868ef000080fa004f01780057
:104cd4004f00be00004006000000fa0029c8bf00d3
:104ce400e14f50004f003a002968ef007085200022
:104cf400104078000080fb006101b900e0ff2f0044
:104d0400f1ff2f000200400083804800a200200031
:104d140003002000820f5000838f58003f003e00a4
:104d2400006001000a0037000d0037001000370052
:104d34001300370016003700190037001c00370035
:104d440023003700250037002c0037002f003700e0
:104d5400d722a80020c0b3002ee8b70031003700e6
:104d6400d722a90030c0b3002ee8b7002d003700c9
:104d7400d762a80040c0b3002ee8b700290037006e
:104d8400d762a90050c0b3002ee8b7002500370051
:104d9400d1a2a80060c0b3002ee8b70021003700fc
:104da400d1a2a90070c0b3002ee8b7001d003700df
:104db40011c0b30040062000c20107008025200076
:104dc4005041880080c0b3002ee8b70015003700ba
:104dd40090c0b3002ee8b700120037008040eb000b
:104de40040062000b70107008025200050418800bc
:104df400a0c0b3002ee8b7000a003700d782a9008c
:104e0400b0c0b3002ee8b70006003700d782a80070
:104e1400c0c0b3002ee8b7000200370000c0eb00aa
:104e24002ee8b7000080fa00000006000a00fa002d
:104e34004047980031079800420798004e40900080
:104e4400e14f500013003a000000eb00000f78001f
:104e54000c0037003e0090001e0040001040780017
:104e64000080fb00801088000000000071108000aa
:104e740000102000008060000000e000fbff320012
:104e84001e0fe8004e0090009e007800808f5000b6
:104e9400f0ff39004e409000e24f500016003a00f7
:104ea4000000eb00100798000f003700be009000d0
:104eb4001e00900000804000104078000080fb003d
:104ec400d010880000000000c110800000102000f5
:104ed400008060000000e000fbff32001e00900034
:104ee4000000e800100798009e0090004e0090001b
:104ef400808f5000edff39000080fa0000000600aa
:104f04000200fa00004f7800114798001e40780014
:104f1400e14f500009003a001e4090000080fb0061
:104f24008010880000000000711080000010200034
:104f3400008060000000e000fbff32001e407800ab
:104f4400e24f500009003a001e4090000080fb0030
:104f5400d010880000000000c11080000010200064
:104f6400008060000000e000fbff32000080fa00d7
:104f7400000006000000fa0022c8bf00e14f500004
:104f84001b003a0020832000a1cab3000148780026
:104f9400e182200091407800b0842000014878002c
:104fa40011c2b30020832000affa0700004078004c
:104fb40052c5b3008240400030852000014878008b
:104fc4004085200051c5b30001487800320220001a
:104fd4002183200020c0b30094ff070000c0eb0031
:104fe4002ee8b7002268ef0010c0b30000e8b70055
:104ff4000080fa00000006000000fa001221ef0011
:105004000a21ef0000fa20007008880070ff2f00ca
:10501400401588004004200000158800c04320008b
:105024001015880020002000201588003000200082
:1050340030158800f000200050158800a1e2a80077
:105044000080fa00000006000400fa0013e1a80042
:105054000000000021048000008020000080600027
:105064000000e000fbff32008560a90013e1a90005
:10507400311480007014800080804000b0148000df
:1050840080804000f0148000008040008000eb002d
:10509400008fbe001e00be004e09dd004200de008f
:1050a40000007100c208de00008fbe001e00780000
:1050b4000080fa00000006000400fa00ce82a90075
:1050c400ce82a800e6e2a9000040eb002047980049
:1050d40005003700ce82a900ce82a8002e409000a1
:1050e4000040e800204798002e409000e54f500013
:1050f400f8ff36000040eb00304798000d00370001
:10510400ce82a900ce82a8001e00780000004000d4
:1051140080007800301780004600de0061406000a7
:105124000080fb00008f40003e4090000040e800fb
:10513400304798003e409000ef4f5000f0ff36009b
:10514400e6e2a8001e0078000080fa0000000600d5
:105154000200fa00004f78001e80fb00e40f5000ac
:105164001e003200e40f500007003c00e20f500024
:1051740012003200e20f500014003c00e10f500016
:105184000a00320029003700e60f50001b003200ed
:10519400e60f500015003500e70f50001b003200e9
:1051a400e80f50001d00320020003700d7e2a900ac
:1051b400d7c2a900cbe2a9001c003700d7e2a9009e
:1051c400d7c2a900cbe2a80018003700d7e2a90093
:1051d400d7c2a800cbe2a90014003700d7e2a90087
:1051e400d7c2a800cbe2a80010003700d7e2a8007d
:1051f400d7c2a900cbe2a9000c003700d7e2a8006f
:10520400d7c2a900cbe2a80008003700d7e2a80063
:10521400d7c2a800cbe2a90004003700d7e2a80057
:10522400d7c2a800cbe2a800000000000080fa006a
:10523400000006000200fa00004f78001e80fb0008
:10524400e40f50001e003200e40f500007003c0041
:10525400e20f500012003200e20f500014003c0034
:10526400e10f50000a00320029003700e60f500019
:105274001b003200e60f500015003500e70f500008
:105284001b003200e80f50001d00320020003700e0
:10529400d642a900d662a900d622a9001c00370074
:1052a400d642a900d662a900d622a8001800370069
:1052b400d642a900d662a800d622a900140037005d
:1052c400d642a900d662a800d622a8001000370052
:1052d400d642a800d662a900d622a9000c00370045
:1052e400d642a800d662a900d622a800080037003a
:1052f400d642a800d662a800d622a900040037002e
:10530400d642a800d662a800d622a8000000000059
:105314000080fa00000006000000fa000021ef00ff
:105324000080eb00100888000421a8008460a90014
:105334008c60a900200020002008880005e1a80056
:105344000621ef00102720006008880084c0a9000f
:10535400b1048000f08f2f00008060000090a00056
:10536400b00488008cc0a8000002280080088800cf
:1053740011e1a8001821ef0010002000e0088800c7
:10538400000320000009880086c0a9008ec0a9007f
:1053940000322000f004880021e1a8001421ef006d
:1053a4000080eb00d008880086a0a9008ea0a90088
:1053b40000012800f00888000080fa0000000600c0
:1053c4003600f800809fbe00829fbe00849fbe000e
:1053d400869fbe000000fa0084c0a90050418000ee
:1053e4000000e9005041880051418000400620003f
:1053f400808f500001003a004700070023c8bf0017
:105404000040e80023e8b70023c8bf00f84f50006d
:105414000600360000088000204188000021ef00cb
:105424002368ef0010c0b30022e8b7000080fa0040
:105434004f03be004f02be004f01be004f00be002e
:105444003600f90000400600801f78000000fa00d2
:1054540086c0a900604180006100600000407800bf
:105464000004e00002003200cba2a90001003700d2
:10547400cba2a800604180000000e00003003200dd
:10548400604180000000e900604188000080fa006b
:105494004f007800004006000200fa00000f780078
:1054a4001421ef00000000001e0078008000d100ed
:1054b400a0088000808f5000fbff3e000080fa00af
:1054c400000006000400fa00000f7800214798004d
:1054d4008ec0a800ca42a90080cbb3005f000700b9
:1054e400ca42a8002e409000614060000080fb008a
:1054f400610060004e00dd005116800001e0a10053
:1055040001007000501688001e0078002c0007006f
:105514000080fa00000006000000fa00ca42a90058
:1055240080cab3004d000700ca42a8008ec0a9007b
:105534000080fa00000006000200fa00004f780024
:105544009e40780060c1b300020007000080fa00aa
:10555400000006000200fa00004f7800114798008e
:10556400ca42a9001e4078003c000700ca42a800b5
:10557400ca42a9001e40900038000700ca42a80091
:105584000080fa00000006000600fa004047980078
:10559400ca42a9004e40900030000700ca42a80049
:1055a400ca42a9000040eb002c000700004f78001d
:1055b400ca42a8001e4078000080fa0000000600dd
:1055c4000200fa00000f7800ff3ffc001e00780084
:1055d40000004000604188000000fc000080fa00e8
:1055e400000006000000fa008500a9008d00a90053
:1055f400c104800080ff2f00008060000020a00014
:10560400c004880023c2a90023a2a9002362a90020
:105614002342a9002322a9002302a80022e2a90010
:1056240022c2a90022a2a80010118000c001b30068
:1056340010118800101180003000b3001011880090
:1056440020c2a90021a2a80021e2a8008500a90087
:105654008d00a9000080fa00000006000600fa0090
:10566400404798000000eb00000f78004e40900087
:105674000080fb0020118800050037001e0fe800a1
:10568400005327009e007800808f500006003e00e3
:105694002104800000102000008060000000e00071
:1056a400f6ff320001003700000000008500a90069
:1056b40020118000204798002e4090000080fa00be
:0456c40000000600dc
:020000040000fa
:1056c800320800002400000000000000000800006c
:1056d80020000000000000002c080000020000006c
:1056e8000000000020080000060000000000000084
:1056f8005608000004000000000000002608000012
:1057080006000000000000002e0800000200000053
:1057180002000000ff000000300800000200000046
:08572800000000000000000079
:020000040000fa
:105730000000fa00a6fc0700abff070023fd0700ee
