:020000040000fa
:080000000001040000000000f3
:020000040000fa
:040008009202000060
:020000040000fa
:04000c00920200005c
:020000040000fa
:040010009202000058
:020000040000fa
:040014009202000054
:020000040000fa
:040018009202000050
:020000040000fa
:04001c00920200004c
:020000040000fa
:040020009202000048
:020000040000fa
:040024009202000044
:020000040000fa
:040028009202000040
:020000040000fa
:04002c00920200003c
:020000040000fa
:040030009202000038
:020000040000fa
:040034009202000034
:020000040000fa
:040038009202000030
:020000040000fa
:04003c00920200002c
:020000040000fa
:04004000c8010000f3
:020000040000fa
:040044009202000024
:020000040000fa
:040048009202000020
:020000040000fa
:04004c00920200001c
:020000040000fa
:040050009202000018
:020000040000fa
:040054009202000014
:020000040000fa
:040058009202000010
:020000040000fa
:04005c00920200000c
:020000040000fa
:040060009202000008
:020000040000fa
:040064009202000004
:020000040000fa
:040068009202000000
:020000040000fa
:04006c0092020000fc
:020000040000fa
:0400700092020000f8
:020000040000fa
:0400740092020000f4
:020000040000fa
:0400780092020000f0
:020000040000fa
:04007c0092020000ec
:020000040000fa
:040080000c0200006e
:020000040000fa
:0400840092020000e4
:020000040000fa
:04008800340200003e
:020000040000fa
:04008c0092020000dc
:020000040000fa
:0400900092020000d8
:020000040000fa
:0400940092020000d4
:020000040000fa
:0400980092020000d0
:020000040000fa
:04009c0092020000cc
:020000040000fa
:0400a00092020000c8
:020000040000fa
:0400a40092020000c4
:020000040000fa
:0400a80092020000c0
:020000040000fa
:0400ac0092020000bc
:020000040000fa
:0400b00092020000b8
:020000040000fa
:0400b40092020000b4
:020000040000fa
:0400b80092020000b0
:020000040000fa
:0400bc0092020000ac
:020000040000fa
:0400c00092020000a8
:020000040000fa
:0400c40092020000a4
:020000040000fa
:0400c80092020000a0
:020000040000fa
:0400cc00920200009c
:020000040000fa
:0400d0009202000098
:020000040000fa
:0400d4009202000094
:020000040000fa
:0400d8009202000090
:020000040000fa
:04010800920200005f
:020000040000fa
:04010c00920200005b
:020000040000fa
:040110009202000057
:020000040000fa
:040114009202000053
:020000040000fa
:04011800920200004f
:020000040000fa
:04011c00920200004b
:020000040000fa
:040120009202000047
:020000040000fa
:040124009202000043
:020000040000fa
:04012800920200003f
:020000040000fa
:04012c00920200003b
:020000040000fa
:040130009202000037
:020000040000fa
:040134009202000033
:020000040000fa
:04013800920200002f
:020000040000fa
:04013c00920200002b
:020000040000fa
:04014000c8010000f2
:020000040000fa
:040144009202000023
:020000040000fa
:04014800920200001f
:020000040000fa
:04014c00920200001b
:020000040000fa
:040150009202000017
:020000040000fa
:040154009202000013
:020000040000fa
:04015800920200000f
:020000040000fa
:04015c00920200000b
:020000040000fa
:040160009202000007
:020000040000fa
:040164009202000003
:020000040000fa
:0401680092020000ff
:020000040000fa
:04016c0092020000fb
:020000040000fa
:0401700092020000f7
:020000040000fa
:0401740092020000f3
:020000040000fa
:0401780092020000ef
:020000040000fa
:04017c0092020000eb
:020000040000fa
:040180000c0200006d
:020000040000fa
:0401840092020000e3
:020000040000fa
:04018800340200003d
:020000040000fa
:04018c0092020000db
:020000040000fa
:0401900092020000d7
:020000040000fa
:0401940092020000d3
:020000040000fa
:0401980092020000cf
:020000040000fa
:04019c0092020000cb
:020000040000fa
:0401a00092020000c7
:020000040000fa
:0401a40092020000c3
:020000040000fa
:0401a80092020000bf
:020000040000fa
:0401ac0092020000bb
:020000040000fa
:0401b00092020000b7
:020000040000fa
:0401b40092020000b3
:020000040000fa
:0401b80092020000af
:020000040000fa
:0401bc0092020000ab
:020000040000fa
:0401c00092020000a7
:020000040000fa
:0401c40092020000a3
:020000040000fa
:0401c800920200009f
:020000040000fa
:0401cc00920200009b
:020000040000fa
:0401d0009202000097
:020000040000fa
:0401d4009202000093
:020000040000fa
:0401d800920200008f
:020000040000fa
:10020000cf8520000e7f22000e0188000000000034
:10021000000020000000e000020032000001200089
:100220002002880014000700c00007000000e00062
:1002300003003a00a039230001002000020037002b
:100240000000200001002000810f7000010032003a
:1002500014000700000020000000e000020032004f
:100260000000020000000000ea330200000000006d
:100270000040da000000fe004440a90000b4200065
:100280000000e0000300320000002000a001880010
:100290004440a800000006008a1f78008b1f7800e9
:1002a0000000060091018800800478000000eb0047
:1002b0001a003700e284440032a0b4009905ba0065
:1002c000e284440032a0b4009906ba00e2844400fb
:1002d00032a0b4000006eb00476fde00fd07b2005d
:1002e000636ce10003003a00ebff07000000eb0045
:1002f0000a003700606ce10004003a00005deb008a
:100300008b05e900fdff3e00040037006168e10055
:10031000010032000086eb000b00070019c7ba008d
:100320001905ba000e04e00003003a000a00e000dc
:10033000e0ff3a0000000600fe07b2009e018800c0
:100340008a047800f5ff3700395dba008b05e900b3
:100350000c003200295dba008b05e900080032006c
:100360000c00e00003003a00e284440032a0b40034
:10037000f5ff370019ddba008b05e900faff3a00f6
:100380008904e800e184440032a0b40000000600c3
:100390003600f800809fbe00829fbe00849fbe0092
:1003a000869fbe000000fa0084c0a9005041800072
:1003b0000000e900504188005141800040062000c3
:1003c000808f500001003a003218070023c8bf0098
:1003d0000040e80023e8b70023c8bf00f84f5000f2
:1003e0000600360000088000204188000021ef0050
:1003f0002368ef0010c0b30022e8b7000080fa00c5
:100400004f03be004f02be004f01be004f00be00b2
:100410003600f90000400600801f78000000fa0056
:1004200086c0a90060418000610060000040780043
:100430000004e00002003200cba2a9000100370056
:10044000cba2a800604180000000e0000300320061
:10045000604180000000e900604188000080fa00ef
:100460004f00780000400600809fbe00821f780089
:100470000000fa008700a900e0108000004078002a
:1004800026e8b7006182200091407800a0cab3003e
:1004900080cf50000e003a0028c8bf000004e000e2
:1004a0000b003a002768ef0027c8bf000080fb0060
:1004b00061822000914078006285200000004100a8
:1004c0000148780010c0b30028e8b70011003700d9
:1004d00027c8bf000040e80027e8b70027c8bf00d2
:1004e0000080fb006182200091407800628520003e
:1004f000000041000148780027c8bf00e24f5000cb
:10050000040036002768ef0010c0b30029e8b700e8
:100510002868ef000080fa004f0178004f00be000d
:10052000004006000040da000000fe000000050068
:10053000839f68000100e00002003d0060001000a1
:10054000e08018000300e00002003d00600111009f
:10055000e08119005f0007004f00e00002003b004f
:1005600060001000e0801800000006001400200069
:10057000bd033700f4ff2f00bb0337000001be00ae
:100580003f0007000470a70003f0a1006509b10057
:10059000160032000d0035006828e1000600350025
:1005a000f0ff2f00f1ff27000300e00013003b00e5
:1005b0000100280000000500000040008180480084
:1005c0008502e900fcff3a0008003700f88f42007e
:1005d00002003c008000eb00000005008100d1001b
:1005e0000080d3008502e800fcff3a000300e00031
:1005f00002003b0060001000e080180000000600d0
:100600000001be001e0007000470a70003f0a10057
:1006100003f8a30013003a006509b100100032008e
:10062000090035006928e1000200350001002800ba
:100630000000050000004000818048008502e900bc
:10064000fcff3a0000000600f88f4200050035006c
:100650008100d1000080d3008502e800fcff3a0051
:10066000000006008000eb00000005004f89de005e
:1006700082017800970337006011b800a5033700a6
:10068000c70ade00f107b200f50fb2000800320021
:10069000e1cf4200020032000170a00024000500fa
:1006a000810f7000010032000408050044000500bd
:1006b000810f700002003a00140005008502e90075
:1006c0000000400081c04800fcff3b000170a0001a
:1006d000240005006022b800060220000000d000bf
:1006e0008180d2000482d2008582d2000000a00066
:1006f0000202520083825a000300310002024200cb
:1007000083824a000000a1000603e900f3ff3a00db
:100710000000060007f82700078361000638e100a3
:1007200004003a00f7072000878361008703710007
:1007300001003a0003f0a200889fbe008a9fbe001d
:100740008c9fbe00470ade000480a100c71ade00ad
:100750000580a100070028000785600087856100eb
:10076000f70f20000720e1009e0032000728e1007b
:100770009c003200010678000400e000b400320062
:10078000f7072000878060000170a0000500e000ee
:10079000c0003200f7072000878161000370a000cd
:1007a000050652000f003a000b50e1000b0032002a
:1007b0000308e10002003a000200e1007e0032007e
:1007c0000204500083845800040031000001fd0041
:1007d0008101fd008402fd008a05fd006044b8002f
:1007e000210037000520e10005003d000001fd006b
:1007f0008101fd008402fd008a05fd00050652000e
:100800007a60e100050035000170a1004722dd009b
:10081000848070008a807000630037006044b800f4
:10082000ef02660007ff2f00070666000500e000e4
:1008300006003400f08312008714dd000511de008d
:10084000071bdd00060171008519de007060e10004
:10085000050035000904780082047800030178005f
:100860008001eb00700656000b50e10003003a00d7
:100870000200400083804800040037006004140038
:10088000e0841c0002005800838058000188a30007
:10089000060032008100d1000080d3008984d3009b
:1008a0000884d3000402e800270037000178a30081
:1008b00025003a000100e000030032008186cf00ed
:1008c000698656000a0037008c0020000000e00016
:1008d00004003a0009007800880478000004eb0066
:1008e000700252008086cf000d0646000c06e9001b
:1008f0007060e10006003500800078000900780093
:10090000880478000004eb00700656007002520064
:100910000c00e0000c0034008c08dd00f003160031
:100920000703de00868070000c00dd00074bde0050
:10093000060070008c4cdd000743de0086847400e6
:100940000c44dd000c0252006120e1002000350063
:10095000610160000700280087816400f7ff27001d
:1009600087836400070374000300e0000600320080
:1009700082037300040032000000e800e0804800b9
:100980000188a3000e003a00f70f20000720e100c5
:100990004a003d000170a1004722dd008100720085
:1009a0008a8070000000be004f06be004f05be00ea
:1009b0004f04be00000006006000b800faff3700d8
:1009c0008100d1000080d3000402e800eeff370070
:1009d0000401780089017400a10107008a80700079
:1009e000f1ff3700f7010700070278000001fd0062
:1009f0008101fd00f3010700870278008503720082
:100a00000778a300040032000001fd008101fd0011
:100a100006020700e4ff3700850362000768a300b1
:100a2000080032000b50e10003003200f0ff2f00fd
:100a3000f1ff2700dcff37000001fd008101fd0010
:100a4000d9ff37000468a300d7ff3200faff370050
:100a5000f8ff2700888360000b003a000000e000e8
:100a600009003a00830364008283730002003200ad
:100a70000200be00ccff37000b50e100ceff3a0071
:100a80000200be00c8ff370014002000810064008f
:100a90003eff3700f8ff27008883610004003a001a
:100aa0000200e00002003a008c007800beff370030
:100ab000150020008301640039ff370001f827008a
:100ac0000000200081007500b7ff3700889fbe003e
:100ad0008a9fbe008c9fbe001b0020000202be0049
:100ae0000586680006002800060666004709de0045
:100af000f20fb200820032000243e80080003200b0
:100b0000c729de00f30fb2007d0032000343e80086
:100b10007b003200f107b2000170a000f507b200bf
:100b20000570a000c708dd004903de008680700064
:100b30004700dd00c72add004923de0086827200ff
:100b40004722dd000305510004035000858358004f
:100b50000300310000004000818048000a05e900e0
:100b60008c1f78008a9fbe000400500085805800ca
:100b70000402420085824a00000040008180480053
:100b80000005eb000004be006033b8000406be00a0
:100b90000d48e10056003100110009004dccd8008d
:100ba0000c01b8000d02b8008481410060824a0047
:100bb0008283530003045c0084845c0060055d0054
:100bc0000a00e00025003a00800578000d40e100b1
:100bd0004900310088007800070078001100090002
:100be0004d88d8000c01b8000d02b8008481410086
:100bf00060824a006003110083835b0004045c0090
:100c0000e0845c000900e00021003a004f01be00d2
:100c10000300e0002b003200e301600007067300d0
:100c20008c81710001003200640070004200de001f
:100c30004e5edd000c007000c258de0001e0a00036
:100c400083010700cf017800818071004f06be004c
:100c50004f05be004f04be00000006008c83430019
:100c60000d044c00e0844c0060054d000000e900dc
:100c70000a00e000d4ff32008c8343000d044c00d6
:100c8000e0844c0060054d000000e900ceff370015
:100c90000c0343008d834b0060044c00e0844c0047
:100ca0000000e9000900e000d8ff32000c03430017
:100cb0008d834b0060044c00e0844c000000e90090
:100cc000d2ff37004200de004e5edd000c007000f7
:100cd000c258de0001e0a000cf0178000300e00070
:100ce000daff320060001000e0801800d7ff370004
:100cf000f0ff2f00aaff3700f0ff2f00b9ff3700e9
:100d00000404be002f010700870678000004fd00e0
:100d10008104fd002b010700078366000678a3000d
:100d2000030032000960a7000800be002c00370055
:100d30000d78a300020032000800be002800370032
:100d40000778a30026003a0001f0a10009f0a100f5
:100d50000668a30003003200f1ff2700f0ff2f0018
:100d6000baff37000d68a300030032000800be0080
:100d70008c807000b5ff37000768a30007003a00b9
:100d80000648a30003003200f1ff2700f0ff2f0008
:100d9000aeff37000d48a300030032006000b8002a
:100da0008c807000a9ff37000748a30004003200c0
:100db00001f82700000020008c807000a3ff37009e
:100dc000760107000004fd008104fd0002057800a3
:100dd000720107000802be008a01780059ff37003f
:100de0000160a000120220008241880097ff3700b6
:100df0000100e000120032000500e00010003200a7
:100e0000889fbe008a9fbe008c9fbe000006eb003c
:100e100001f8a3000300320060001000e080180019
:100e20000cf0a00005f8a3000300320060021200dd
:100e3000e0821a000cf0a2008005eb0041ff3700b1
:100e40006000b80002000500038368000700280066
:100e500007036300470ade000480a100c71ade0012
:100e60000580a100f70f20000720e10042003200ba
:100e70000728e10040003200889fbe008a9fbe0024
:100e80008c1f7800f107b200f307b2000400e00005
:100e9000640032000170a0000500e000680032002c
:100ea0000370a00085054200eb07b1000204b80002
:100eb0000302b8008484440060854a00020ab80036
:100ec000848444000a854a00030ab80004054500ea
:100ed000040033000804d0008984d2000a85d200bf
:100ee0008b05e9006158e1003d003500021020004b
:100ef000090161000308200089816100f7072000d3
:100f00008783640008867300c84cde00c853dd0088
:100f1000878474004855de000300e00006003200bc
:100f200082037600040032008904e80060054d0069
:100f30000a88a3000c003a00f70f20000758e100d0
:100f400044003d000a70a100c75ddd000a85750000
:100f50008a007300090078004f0678004f05be0034
:100f60004f04be00000006000a05d1008984d300aa
:100f70008b05e800f0ff3700881f78000604780032
:100f800090000700070278000001fd008101fd00cc
:100f90008c00070087027800850372000778a300a1
:100fa000050032000001fd008101fd009f000700e7
:100fb0004f04780000000600850372000748a30074
:100fc00003003200f0ff2f00f1ff2700f8ff370089
:100fd0000000200001f8270088807000f4ff37002f
:100fe000880178004848dd00808171004848de00b3
:100ff000c850dd0001007000c850de000604780013
:101000000b0178001600070088807000d2ff3700bf
:101010000500e00005003200170020003a0007003c
:101020009dff370081037000f9ff3a0086007800c9
:101030004f0678004f05be004f04be0000000500bb
:1010400083037100f9ff3200270020002e00070003
:1010500094ff370001f8270086807000f4ff370006
:101060000100e00026003200610111007810e1006b
:1010700023003c006022b8007010e100040035003d
:1010800080027800010078008000eb0070015100c0
:101090000200e0000900340070031100062add00a0
:1010a000822ade008603dd00878272000200de00f5
:1010b000860bdd00070070008208de00848171006d
:1010c000f4ff27000482620084817100040028007c
:1010d000848262006102600005f0a6000000060044
:1010e00004827100070032000000e800e080480040
:1010f000000006000002be006000b800efff3700ed
:101100006000b80000000600889fbe000004eb00ed
:101110006138e10016003a000100e00008003a00e2
:10112000c800de004800dd00880020000100e0006b
:1011300003003a00c800de004800dd0068044400f7
:101140008184cf00e9845400060034008908dd0062
:10115000f08314008703de00878070000900dd0043
:1011600009044400610214004f04be0000000600a0
:101170000300e00008003a00c811de004811dd005d
:10118000880020000300e00003003a00c811de00e0
:101190004811dd00680444008384cf00e9845400d2
:1011a000060034008919dd00f08314008713de0087
:1011b000878171000911dd0009044400e102140077
:1011c000e9ff37002700200001f0a70017002000ea
:1011d000470bde00f60fb200040032000643e800c1
:1011e0000a0032004702b300000006000103780045
:1011f000f607b2000603700002003a000703b300ce
:10120000000006008702b30000000600010378001a
:10121000f607b20006037000020032000770a0005b
:10122000000006000760a000000006000478a3008c
:10123000040032000578a300030032000168a30017
:1012400001003a000200be000160a000000006009c
:1012500081017000270032008002eb0001f8a3003a
:101260000300320060001000e0801800150020002c
:10127000f40720000202420020003400f70320009f
:1012800087036000060420000003630002082000ba
:10129000000161004700de00c909dd000080710027
:1012a000c708de000600e000080032008703710076
:1012b000060032001000b0000180b0000188a300d9
:1012c00002003200c108de000402e800f107b200ab
:1012d000f30f20000320e10003003d004722dd0062
:1012e000810072002900370001f827000000eb00a0
:1012f000260037006000b8000000060068021200f7
:101300007f20e100020034006000b8001f003700b9
:101310006011b8007020e100040035008001780001
:10132000010078008000eb00700252000400e00031
:1013300009003400f00312000719dd008419de00f3
:101340000703dd00868171000400de00070bdd006d
:10135000060070008408de00f7ff27008383630027
:1013600087037100060028000303630007003200b2
:101370000700e00003003a00610160000281730091
:10138000020032001000b0000180b0000500a6008d
:101390000000060001f0a000000006004f0ade0079
:1013a0004709de00f107b200f20fb2000b00320075
:1013b000f207b1000170a000c708dd00c901de001e
:1013c000838070004700dd000400a60000000600d6
:1013d00060001000e080180000000600810f70001f
:1013e00001003a00000006008182cf000500e00005
:1013f00010003e008082cf00ee8242007028e100a3
:101400000400390007003e00800078000000eb0077
:101410000e003700708312008600de000500dd003c
:101420000a003700708352008600dd000000eb00e8
:1014300006003700e28252008508dd00708312004a
:101440000603de00868070000500dd007507b00031
:101450000501ea000400a60000000600600010007c
:10146000e080180000000600889fbe008a9fbe0032
:10147000841f78007c0007004f00780011003300c3
:10148000f0ff2f00838f6c0006003b000405650011
:101490000a00a7000800370009f0a600100020008d
:1014a00008003700820f5400838f5c00030039006e
:1014b0001000200001003e000000200009f0a700fd
:1014c0000000ea004f05be004f04be000000e0002f
:1014d00000000600881f7800030478000300e00085
:1014e00007003d0060001000e08018006001190056
:1014f000e081190002003b0001f02d0003003700dd
:101500000400070008f0a70001f0a0004f047800d5
:1015100000000600889fbe008a9fbe000082700007
:101520000402710004827100260032000004be0033
:101530000200be006011b8006b0920009502200077
:101540000182cf000a0039000541b1000082cf00be
:10155000070039000541b1000982cf0004003900bd
:101560000541b1000882cf00010039000541b100fa
:1015700005425200120032000a003b0082817100d5
:10158000610164008100d1000080d3008984d30010
:101590000884d3008b05e8000442e800f7ff3a0016
:1015a000070037000804440089844c00000048000c
:1015b000818048008b05e9000442e900f9ff3a0008
:1015c000030007004f05be004f04be0000000600e8
:1015d00081002000618055000b003d000b002000c1
:1015e00061fe2f000100e1001d00340082817100c6
:1015f000610164008904d1000884d3000000e80080
:10160000faff3a00710020006100640003007000de
:10161000020060000900320061044400e0844c00d4
:101620000988a500050032008b05e8006808e10084
:1016300002003a008904d1000884d300f20f200090
:101640000258e10005003d00c75ddd00f907b2006a
:101650008980750008007800000006000bf827005c
:101660008b007800000005000004be0004fc0700a9
:101670000003be000405be000200be0000fc07001f
:10168000844f750000000600889fbe008a9fbe0040
:101690008c9fbe000004be000400200005f8270057
:1016a0008583600004037800840f5300858f5b00fe
:1016b00007003a000801be000800be00e2fd070076
:1016c0000001be000800be001bfc07001000370030
:1016d000e00f5000e08f58000f003c0081017800bf
:1016e00003f0a10000017800e00f5100e08f5900e5
:1016f0006a00320010022000d04288000801be00bb
:101700000800be0003fc07000001be00effc07005c
:101710000004be0061003700478cde00cf8cde0085
:10172000e00f5400e08f5c000f003a006044b80006
:10173000040037000000400081804800610444003c
:10174000e0844c0004002000050820008181620034
:1017500004017800e00f5100e08f5900f5ff3200de
:1017600061041400e0841c00f807b1000980b10096
:1017700081017800f307b200000178000200be008a
:101780000170a0000808a300020032000000400021
:10179000818048008984d1000884d3000000400083
:1017a00081804800940120000200200003102000e6
:1017b0006055b8006066b8000c0341008d83490095
:1017c000800f5300818f5b0006003c00060641003d
:1017d0008786490006005000878058000a054100ae
:1017e0008b85490000004000818048008301d100c2
:1017f0000281d3000402e900efff3a00e00f50003d
:10180000e08f58001b0032000226240023da20005b
:101810000000200001f82300befb070002002000aa
:1018200003f8230053fb07000000e000110035001f
:101830000226240023da20000000200001f8230003
:10184000bdfb07000200200003f8230049fb07004e
:101850000000e0000300340062054500e0854d0013
:10186000040037006000b800610065000005450015
:1018700081854d00c744dd000800200000002000e5
:1018800001f0230008044000898448008b85d100c2
:101890000a85d3000804450089844d000800be0075
:1018a0004f06be004f05be004f04be0000000600fc
:020000040000fa
:1018b000000000007a4400001dfa00007a44000095
:1018c00019f400007b44000014ee00007c4400008a
:1018d000f0e700007d440000bae100007e44000013
:1018e00075db00007f4400008f6a00008044000028
:1018f00054e70000804400001964000081440000a7
:10190000cde0000081440000795d000082440000c9
:101910001dda000082440000b85600008344000035
:101920004cd3000083440000d74f000084440000e3
:1019300052cc000084440000c548000085440000eb
:101940002fc500008544000091410000864400003e
:10195000ecbd0000864400003d3a000087440000d2
:101960007fb6000087440000b832000088440000c1
:10197000f2ae0000884400001b2b000089440000e8
:1019800033a70000894400004c2300008a44000073
:101990005c9f00008a4400005c1b00008b44000038
:1019a000549700008b440000441300008c44000056
:1019b0002b8f00008c4400000a0b00008d440000b7
:1019c000e18600008d440000a80200008e44000063
:1019d000667e00008e44000025fa00008e44000060
:1019e000cb7500008f44000071f100008f440000af
:1019f0000e6d000090440000a4e800009044000038
:101a00002964000091440000a6df0000914400001a
:101a10001b5b00009244000087d600009244000047
:101a2000ec510000934400003fcd000093440000bf
:101a30009348000094440000d7c300009444000081
:101a4000123f00009544000046ba00009544000093
:101a5000713500009644000093b0000096440000e9
:101a6000a62b000097440000b8a600009744000091
:101a7000ba21000098440000b49c00009844000083
:101a8000a6170000994400008792000099440000c6
:101a9000680d00009a440000398800009a44000054
:101aa0000a0300009b440000cb7d00009b44000023
:101ab00083f800009b440000337300009c44000046
:101ac000d3ed00009c440000736800009d440000ba
:101ad00002e300009d440000895d00009e44000078
:101ae00008d800009e4400007f5200009f44000080
:101af000eecc00009f4400004c470000a0440000d2
:101b0000aac10000a0440000f83b0000a14400006e
:101b10003db60000a14400007b300000a24400005c
:101b2000b0aa0000a2440000dd240000a34400008d
:101b3000fa9e0000a34400000e190000a444000017
:101b40001b930000a4440000270d0000a5440000e2
:101b50001b870000a54400000e010000a644000001
:101b6000fa7a0000a6440000d5f40000a644000064
:101b7000a86e0000a744000073e80000a74400001e
:101b800035620000a8440000f0db0000a84400001b
:101b9000a2550000a944000044cf0000a944000061
:101ba000dd480000aa44000077c20000aa440000fb
:101bb000003c0000ab44000079b50000ab440000dd
:101bc000f22e0000ac44000062a80000ac4400000b
:101bd000c3210000ad4400001b9b0000ad44000089
:101be0006a140000ae440000b28d0000ae44000054
:101bf000f2060000af44000029800000af4400005e
:101c000050f90000af4400006f720000b0440000c3
:101c100085eb0000b044000093640000b144000074
:101c20009add0000b144000098560000b244000064
:101c300085cf0000b244000073480000b3440000a8
:101c400050c10000b3440000253a0000b444000035
:101c5000f2b20000b4440000b62b0000b54400000e
:101c60006aa40000b54400001f1d0000b644000037
:101c7000c3950000b64400005e0e0000b7440000ab
:101c8000f2860000b74400007dff0000b74400006a
:101c900000780000b844000073f00000b844000071
:101ca000dd680000b944000048e10000b9440000cc
:101cb000a2590000ba440000f4d10000ba44000068
:101cc000354a0000bb44000077c20000bb4400005e
:101cd000a83a0000bc440000d9b20000bc44000097
:101ce000fa2a0000bd44000012a30000bd44000019
:101cf0001b1b0000be44000023930000be440000f4
:101d0000310c0000bf44000073840000bf44000099
:101d1000fafa0000bf440000d9720000c04400007d
:101d2000b0ea0000c04400007f620000c14400002f
:101d30003dda0000c1440000fc510000c244000034
:101d4000aac90000c244000050410000c344000082
:101d5000eeb80000c344000083300000c44400001b
:101d600008a80000c44400008d1f0000c544000006
:101d700002970000c54400006f0e0000c64400003a
:101d8000d3850000c64400002ffd0000c6440000bb
:101d900083740000c7440000c7eb0000c744000084
:101da00002630000c84400003dda0000c84400009f
:101db00068510000c94400008bc80000c9440000fd
:101dc000a63f0000ca440000b0b60000ca440000ac
:101dd000ba2d0000cb440000b4a40000cb440000a6
:101de000a61b0000cc4400008f920000cc440000f1
:101df00071090000cd4400004a800000cd4400007d
:101e000012f70000cd440000db6d0000ce4400005e
:101e100093e40000ce440000445b0000cf44000087
:101e2000ecd10000cf4400008b480000d0440000fb
:101e30001bbf0000d0440000aa350000d1440000c0
:101e400029ac0000d1440000a0220000d2440000d0
:101e50000e990000d2440000750f0000d34400002a
:101e6000cb850000d344000021fc0000d3440000d7
:101e700066720000d4440000ace80000d4440000c6
:101e8000e15e0000d54400000ed50000d5440000fe
:101e90002b4b0000d644000048c10000d64400008f
:101ea00054370000d744000060ad0000d744000064
:101eb0005c230000d844000050990000d844000082
:101ec000330f0000d944000017850000d9440000fa
:101ed000f2fa0000d9440000bc700000da440000af
:101ee0007fe60000da440000395c0000db440000bb
:101ef000ecd10000db44000096470000dc44000009
:101f00002fbd0000dc440000c9320000dd440000a9
:101f100052a80000dd440000d31d0000de44000094
:101f20004c930000de440000bc080000df440000c9
:101f30001d7e0000df44000085f30000df44000048
:101f4000cd680000e044000014de0000e044000022
:101f500054530000e14400008bc80000e14400003d
:101f6000ba3d0000e2440000e1b20000e24400009b
:101f7000f8270000e3440000069d0000e344000051
:101f80000c120000e44400000a870000e444000052
:101f900000fc0000e4440000ee700000e544000096
:101fa000cbe50000e5440000a05a0000e644000034
:101fb00075cf0000e644000039440000e74400000b
:101fc000eeb80000e7440000a22d0000e844000045
:101fd0004ea20000e8440000e9160000e9440000b9
:101fe0007d8b0000e944000008000000ea44000086
:101ff0008b740000ea44000006e90000ea44000097
:10200000795d0000eb440000dbd10000eb440000f0
:1020100035460000ec4400008fba0000ec4400009c
:10202000d12e0000ed44000012a30000ed4400009a
:102030004c170000ee4400007d8b0000ee440000d1
:102040009eff0000ee440000b6730000ef44000065
:10205000c7e70000ef440000cf5b0000f044000041
:10206000cfcf0000f0440000be430000f144000068
:10207000aeb70000f14400008d2b0000f2440000d8
:10208000649f0000f244000033130000f34400009a
:10209000fa860000f3440000b8fa0000f3440000a0
:1020a000666e0000f444000014e20000f4440000f6
:1020b000b2550000f544000048c90000f544000096
:1020c000d53c0000f644000052b00000f644000089
:1020d0008fc20000c943000000c00000ca430000d6
:1020e000b8be0000cb43000029bc0000cc43000078
:1020f0009ab90000cd4300000ab70000ce430000ab
:102100007bb40000cf430000ecb10000d0430000de
:102110005caf0000d1430000cdac0000d243000012
:102120003daa0000d3430000aea70000d443000046
:102130001fa50000d543000048a10000d6430000c1
:10214000b89e0000d7430000e19a0000d843000089
:1021500052980000d94300007b940000da4300004d
:10216000ec910000db430000148e0000dc43000013
:102170003d8a0000dd43000066860000de4300006b
:102180008f820000df430000b87e0000e0430000c3
:10219000e17a0000e14300000a770000e24300001a
:1021a00033730000e34300005c6f0000e443000071
:1021b0003d6a0000e543000066660000e64300005b
:1021c0008f620000e7430000715d0000e8430000fb
:1021d00052580000e94300007b540000ea4300002d
:1021e0005c4f0000eb4300003d4a0000ec43000060
:1021f00066460000ed43000048410000ee43000049
:10220000293c0000ef4300000a370000f0430000c3
:10221000ec310000f1430000cd2c0000f24300003f
:10222000ae270000f343000048210000f443000003
:10223000291c0000f54300000a170000f6430000c7
:10224000a4100000f7430000850b0000f8430000d5
:1022500066060000f943000000000000fa43000099
:102260009af90000fa4300007bf40000fb430000f1
:1022700014ee0000fc430000aee70000fd43000048
:1022800048e10000fe430000e1da0000ff430000e7
:102290003d6a0000004400000ae70000004400001e
:1022a000d763000001440000a4e0000001440000e6
:1022b000715d0000024400003dda000002440000ad
:1022c0000a5700000344000033d300000344000019
:1022d000005000000444000029cc00000444000029
:1022e000f6480000054400001fc50000054400003a
:1022f000484100000644000014be000006440000ef
:102300003d3a00000744000066b6000007440000a4
:102310008f32000008440000b8ae000008440000fe
:10232000e12a0000094400000aa700000944000057
:10233000332300000a4400005c9f00000a440000b0
:10234000851b00000b4400000a9700000b440000ae
:10235000331300000c4400005c8f00000c440000ac
:10236000e10a00000d4400000a8700000d4400004f
:102370008f0200000e440000b87e00000e440000f2
:102380003dfa00000e440000c37500000f44000039
:1023900048f100000f440000cd6c00001044000024
:1023a00052e8000010440000d76300001144000010
:1023b0005cdf000011440000e15a000012440000fc
:1023c00066d6000012440000ec51000013440000e7
:1023d00071cd000013440000524800001444000076
:1023e000d7c30000144400005c3f00001544000007
:1023f0003dba000015440000c3350000164400003b
:10240000a4b0000016440000852b00001744000013
:1024100066a6000017440000ec21000018440000ec
:10242000cd9c000018440000ae17000019440000c5
:102430008f92000019440000710d00001a44000042
:10244000528800001a440000330300001b440000bf
:10245000147e00001b44000052f800001b440000e2
:10246000337300001c44000014ee00001c44000004
:10247000526800001d44000033e300001d440000ca
:10248000715d00001e44000052d800001e44000090
:102490008f5200001f440000cdcc00001f440000fc
:1024a0000a47000020440000ecc100002044000066
:1024b000293c00002144000066b6000021440000d1
:1024c000a430000022440000e1aa000022440000e1
:1024d0001f25000023440000b89e00002344000094
:1024e000f618000024440000339300002444000048
:1024f000710d0000254400000a87000025440000fb
:102500004801000026440000e17a00002644000053
:102510001ff5000026440000b86e000027440000ac
:1025200052e8000027440000ec610000284400004d
:1025300029dc000028440000c355000029440000a5
:102540005ccf000029440000f64800002a44000047
:102550008fc200002a440000293c00002b440000e8
:10256000c3b500002b440000b82e00002c4400002e
:1025700052a800002c440000ec2100002d44000073
:10258000e19a00002d4400007b1400002e4400005e
:10259000718d00002e4400000a0700002f44000047
:1025a000008000002f4400009af900002f44000032
:1025b0008f7200003044000085eb000030440000c2
:1025c0007b6400003144000071dd000031440000f4
:1025d00066560000324400005ccf00003244000028
:1025e000524800003344000048c10000334400005a
:1025f0003d3a00003444000033b30000344400008e
:10260000852b0000354400007ba400003544000009
:10261000cd1c000036440000c39500003644000085
:10262000140e0000374400000a8700003744000001
:102630005cff000037440000ae7700003844000023
:10264000a4f0000038440000f6680000394400009f
:1026500048e10000394400009a5900003a44000063
:10266000ecd100003a4400003d4a00003b44000029
:102670008fc200003b440000e13a00003c440000ef
:102680008fb200003c440000e12a00003d440000fd
:1026900033a300003d440000e11a00003e44000066
:1026a000339300003e440000e10a00003f44000074
:1026b000338300003f440000e1fa00003f44000083
:1026c0008f72000040440000e1ea00004044000036
:1026d0008f620000414400003dda000041440000e8
:1026e000ec510000424400009ac90000424400003e
:1026f0004841000043440000f6b800004344000095
:10270000a43000004444000052a8000044440000eb
:102710005c1f0000454400000a970000454400008b
:10272000b80e000046440000c38500004644000087
:1027300071fd0000464400007b7400004744000027
:1027400085eb00004744000033630000484400006c
:102750003dda0000484400004851000049440000b0
:1027600052c80000494400005c3f00004a44000099
:1027700066b600004a440000712d00004b44000082
:102780007ba400004b440000851b00004c4400006b
:102790008f9200004c4400009a0900004d44000054
:1027a000008000004d4400000af700004d44000086
:1027b000146e00004e4400007be400004e44000014
:1027c000855b00004f440000ecd100004f44000046
:1027d00052480000504400005cbf0000504400001c
:1027e000c33500005144000029ac000051440000f2
:1027f0008f22000052440000f6980000524400006e
:102800005c0f000053440000c385000053440000e7
:1028100029fc0000534400008f7200005444000063
:10282000f6e8000054440000b85e00005544000083
:102830001fd5000055440000e14a00005644000046
:1028400048c10000564400000a3700005744000009
:1028500071ad0000574400003323000058440000cd
:102860009a990000584400005c0f00005944000091
:102870001f85000059440000e1fa0000594400009f
:10288000a47000005a44000066e600005a440000ac
:10289000295c00005b440000ecd100005b440000b8
:1028a000ae4700005c44000071bd00005c440000c5
:1028b0008f3200005d44000052a800005d4400001b
:1028c000141e00005e440000339300005e440000cc
:1028d000f60800005f440000147e00005f44000022
:1028e00033f300005f440000f6680000604400001d
:1028f00014de000060440000335300006144000017
:1029000052c8000061440000713d000062440000b4
:102910008fb2000062440000ae2700006344000054
:10292000cd9c000063440000ec11000064440000f2
:102930000a8700006444000029fc00006444000091
:10294000a470000065440000c3e500006544000079
:10295000e15a0000664400005ccf000066440000bd
:102960007b44000067440000f6b8000067440000a4
:10297000712d0000684400008fa200006844000030
:102980000a17000069440000858b000069440000bc
:10299000000000006a4400007b7400006a440000ec
:1029a000f6e800006a440000715d00006b4400001e
:1029b000ecd100006b440000664600006c4400004f
:1029c0003dba00006c440000b82e00006d440000c9
:1029d00033a300006d4400000a1700006e4400009d
:1029e000858b00006e4400005cff00006e44000018
:1029f000d77300006f440000aee700006f44000092
:102a0000855b00007044000000d0000070440000ae
:102a1000d743000071440000aeb7000071440000cd
:102a2000852b0000724400005c9f0000724400008f
:102a300033130000734400000a8700007344000051
:102a4000e1fa000073440000b86e00007444000016
:102a5000ece1000074440000c35500007544000020
:102a6000f6c8000075440000cd3c0000764400002c
:102a7000a4b0000076440000d72300007744000093
:102a80000a97000077440000e10a00007844000043
:102a9000147e00007844000048f1000078440000f3
:102aa0007b64000079440000aed700007944000048
:102ab000e14a00007a44000014be00007a4400009d
:102ac000483100007b4400007ba400007b440000f0
:102ad000ae1700007c440000e18a00007c44000046
:102ae00071fd00007c440000a47000007d440000e3
:102af00033e300007d440000665600007e44000081
:102b0000f6c800007e440000293c00007f4400001d
:102b1000b8ae00007f440000a41000008044000014
:102b20003d4a00008044000085830000804400008e
:102b3000cdbc00008044000014f60000804400007a
:102b40005c2f000081440000a46800008144000064
:102b5000eca100008144000033db00008144000050
:102b60002914000082440000714d000082440000de
:102b7000b886000082440000aebf0000824400001e
:102b8000f6f8000082440000ec31000083440000ad
:102b9000336b00008344000029a40000834400003c
:102ba0001fdd000083440000141600008444000070
:102bb0005c4f000084440000528800008444000000
:102bc00048c10000844400003dfa00008444000035
:102bd0003333000085440000296c00008544000068
:102be000cda4000085440000c3dd00008544000042
:102bf000b816000086440000ae4f00008644000076
:102c0000528800008644000048c10000864400004d
:102c1000ecf9000086440000e13200008744000027
:102c2000856b00008744000029a400008744000051
:102c30001fdd000087440000c31500008844000029
:102c4000664e0000884400000a87000088440000a7
:102c5000aebf00008844000052f800008844000025
:102c6000f6300000894400009a69000089440000a1
:102c70003da20000894400008fda00008944000072
:102c8000331300008a440000d74b00008a44000040
:102c9000298400008a440000cdbc00008a44000062
:102ca0001ff500008a440000712d00008b440000d5
:102cb000146600008b440000669e00008b440000f8
:102cc000b8d600008b4400000a0f00008c440000be
:102cd000ae4700008c440000008000008c440000df
:102ce00052b800008c44000052f000008c440000f8
:102cf000a42800008d440000f66000008d44000010
:102d0000489900008d4400009ad100008d440000d5
:102d10009a0900008e440000ec4100008e4400003f
:102d2000ec7900008e4400003db200008e440000ab
:102d30003dea00008e4400008f2200008f44000016
:102d40008f5a00008f4400008f9200008f440000d3
:102d50008fca00008f4400008f02000090440000e2
:102d60008f3a0000904400008f72000090440000f1
:102d70008faa0000904400008fe200009044000001
:102d80008f1a0000914400008f520000914400000f
:102d90008f8a0000914400003dc200009144000071
:102da0003dfa000091440000ec3100009244000024
:102db000ec690000924400009aa1000092440000d7
:102dc0009ad900009244000048110000934400008a
:102dd000f648000093440000a480000093440000e3
:102de00052b800009344000052f0000093440000e9
:102df0000028000094440000ae5f000094440000ee
:102e00000a97000094440000b8ce000094440000eb
:102e10006606000095440000143e00009544000042
:102e200071750000954400001fad0000954400003e
:102e3000cde4000095440000291c000096440000e9
:102e4000d753000096440000338b000096440000e6
:102e50008fc20000964400003dfa00009644000036
:102e60009a31000097440000f66800009744000083
:102e700052a0000097440000aed700009744000025
:102e80000a0f0000984400006646000098440000c5
:102e9000c37d0000984400001fb500009844000066
:102ea00029ec0000984400008523000099440000ac
:102eb000e15a000099440000ec91000099440000a0
:102ec00048c9000099440000520000009a440000e4
:102ed000ae3700009a440000b86e00009a4400002b
:102ee000c3a500009a4400001fdd00009a440000c2
:102ef000291400009b440000334b00009b44000059
:102f00003d8200009b44000048b900009b44000043
:102f100052f000009b4400005c2700009c4400002d
:102f2000145e00009c4400001f9500009c440000bb
:020000040000fa
:102f30000000fa0000c8bf00e14f5000dd003a0079
:102f4000204180004800de0080407800508320004f
:102f500001487800204180008040780040832000b4
:102f60000148780001c8bf000004e0000f003a00eb
:102f700060c0b300be0c070010c0b300f50c070022
:102f800020c0b3006c01070010e8b70001812000e9
:102f900091407800d08320000148780001c8bf002c
:102fa0000040e80001e8b7004500370001c8bf0055
:102fb000e14f50000f003a0060c0b300ac0c0700b6
:102fc00020c0b300e30c070050c0b3005a01070053
:102fd00011e8b7001181200091407800e0832000c3
:102fe0000148780001c8bf000040e80001e8b700d0
:102ff0003300370001c8bf00e24f50000f003a0015
:1030000060c0b3009a0c070030c0b300d10c0700b9
:1030100020c0b3004801070012e8b700218120005a
:1030200091407800f08320000148780001c8bf007b
:103030000040e80001e8b7002100370001c8bf00e8
:10304000e34f50000f003a0060c0b300880c070047
:1030500040c0b300bf0c070020c0b300360107001a
:1030600013e8b700318120009140780000842000ef
:103070000148780001c8bf000040e80001e8b7003f
:103080000f00370001c8bf00e44f50000c003a00a9
:1030900060c0b300760c070050c0b300ad0c070051
:1030a00020c0b3002401070014e8b70041812000cc
:1030b0009140780010842000014878000168ef00fa
:1030c00010c0b3006a0c0700ed0207001040880032
:1030d000104080004800de008040780070832000af
:1030e0000148780010408000804078006083200014
:1030f0000148780030c0b3005d0c07006805070088
:1031000020408800204080004800de008040780099
:1031100090832000014878002040800080407800a3
:10312000808320000148780050c0b300500c070095
:103130006503070040408800404080004800de00f2
:1031400080407800c0832000014878004040800023
:1031500080407800b08320000148780060c0b30050
:10316000430c070060c0b3007a0c0700a2050700fb
:10317000b0408800b04080004800de008040780009
:103180003084200001487800b04080008040780002
:10319000208420000148780060c0b300340c070090
:1031a00070c0b3006b0c070093050700c040880097
:1031b000c04080004800de0080407800508420003d
:1031c00001487800c04080008040780040842000a2
:1031d0000148780060c0b300250c070080c0b30030
:1031e0005c0c070084050700d0408800d0408000b8
:1031f0004800de008040780070842000014878009c
:10320000d040800080407800608420000148780031
:1032100040c0b300160c07000040eb00a0050700fb
:103220000040780006e8b7006180200091407800f7
:10323000a08320000148780070c0b3000c0c070088
:1032400010c0b30096050700004078000ae8b700f8
:10325000a1802000914078008084200001487800ff
:1032600080c0b300020c070020c0b3008c0507002b
:1032700060408800604080004800de0080407800a8
:10328000a0842000014878006040800080407800e1
:1032900090842000014878000d02070070408800eb
:1032a0007040800080407800308320000148780022
:1032b0000068ef000080fa00000006001000fa002d
:1032c000881f7800ea0147008089be006e00470031
:1032d000024878006e00470010407800e54f50002b
:1032e0004b003a000000eb00000f7800b11c2000fa
:1032f0000e80e80001087800390037000e80e800f1
:10330000100078001e0040008000d10064004700db
:10331000010878006400470010007800c200dd005a
:1033200080062900008040001000be006a014700ae
:103330001201be008df407000000e00004003a0016
:1033400064004700100078001003b10077003700d8
:103350006400470010007800c200dd0080062900ec
:10336000008040001000be0018c0b3006a01470092
:103370001201be007ff407000000e00001003c00e5
:103380000044eb000804e000040032000e80e80076
:10339000e40047001108780011003700640047007e
:1033a00010007800c200dd00800629000080400087
:1033b0001000be0018c0b3006a0147001201be0031
:1033c0006af407000000e000010035000044eb0053
:1033d0000804e0000200320064004700100f78008b
:1033e0000e80e800100078001e005000e10f500031
:1033f000c2ff3e00f2fc2f009e0041006600470025
:103400000108780066004700100078004700370088
:103410000000eb00000f7800311020000e80e80063
:1034200001087800380037000e80e80010007800ae
:103430001e0040008000d1006800470001087800ad
:103440006800470010007800c200dd0080c5280039
:10345000008040001000be006a0147001201be005b
:1034600042f407000000e00003003a006800470053
:10347000100078002d003700680047001000780029
:10348000c200dd0080c52800008040001000be00a2
:1034900018c0b3006a0147001201be0035f40700ee
:1034a0000000e00001003c000044eb000804e000e4
:1034b000040032000e80e800e800470011087800a0
:1034c000110037006800470010007800c200dd00de
:1034d00080c52800008040001000be0018c0b30066
:1034e0006a0147001201be0020f407000000e0005e
:1034f000010035000044eb000804e0000200320047
:1035000068004700100f78000e80e8001000780077
:103510001e005000e10f5000c3ff3e006600470050
:103520001e08780066004700100078004f047800fd
:103530000080fa00000006006a00fa00889fbe00c2
:10354000810620008e804000804878006000b8002e
:10355000008fbe00800620000e0040001040780062
:10356000e54f500005003e00800620000e004000a0
:10357000104078000004e00002003a0000c0eb00b8
:10358000500137008000eb0066004700010878001a
:103590000d003700080b0700800078006600470028
:1035a0001000780000004000000047008002b000da
:1035b0000108780066004700100078008000e800ed
:1035c0006600470001087800660047001000780098
:1035d000ff0f5000efff36008000eb00680047004f
:1035e00001087800400037008000eb006a004700c7
:1035f00001087800300037006a00470010007800aa
:1036000000004000000047008002b00090007800f9
:103610006a004700100078000000e8000000400049
:10362000000047008002b00010007800808f50003a
:103630001c0036006a0047001000780000004000bf
:10364000800047006c0047008102b000110878003c
:103650006a004700100078000000e8000000400009
:10366000000047008002b000900078006a00470028
:103670001000780000004000000047008002b00009
:10368000010878006a004700100078000000e80098
:1036900000004000000047008002b000ec0047003e
:1036a000110878006a004700100078008000e800e8
:1036b0006a004700010878006800470010007800a1
:1036c0007f001000ea00470091007800810f500051
:1036d000c9ff3e0068004700100078008000e80045
:1036e0006800470001087800680047001000780073
:1036f000ff0f5000bcff36006000b800008fbe0016
:103700008100200068004700010878000e003700a3
:1037100068004700100078000000400000004700eb
:103720008002b000100078008000eb001e0f400007
:103730005e97480068004700100078008000e800ad
:103740006800470001087800680047001000780012
:10375000f70f5000eeff36001e00be004c09dd00e2
:103760004404de0008047100c48cde00088fbe0033
:10377000800620000e00400010407800e54f500009
:1037800069003a00f0392000010020006e01470076
:103790000089be00720047003e1878002e107800a5
:1037a0007400470090007800803821000088b9003c
:1037b0000001780072004700100078006000b90036
:1037c000000078000001410072004700900078007e
:1037d000803821000008b800010141008200780013
:1037e000720147000089be00720147000089be00d7
:1037f000720047001000be004008de0001002000fb
:10380000720147000089be00720047001000be0030
:1038100099f30700f2512800b30d2400abf4070020
:1038200077f30700760147000089be007600470065
:103830001001be006e0047001000be0002004000f4
:1038400083804800760147000089be00760047006b
:103850001001be000071220001002000800f510005
:10386000818f59000200360000c0eb009500370040
:103870000271220003002000760047001000be0005
:1038800000005100818059007a0147000089be0084
:103890007a0047001000be0077f307000004be0066
:1038a000760047001000be0073f307000001be0061
:1038b0000800be0085f407007e0147000089be00b5
:1038c0007e0047001001be0000002f00b159240007
:1038d0007ef4070002002000031224008df307008d
:1038e0007e0147000089be00800620000e004000d7
:1038f000104178007e0047001000be006ffe0700f8
:1039000080007800200220000e00400001087800ae
:10391000200220000e004000900078006400470064
:103920000148780065003700d056200001002000d3
:10393000420220000e0141000089be0072004700d3
:103940003e1878002e107800740047009000780030
:10395000803821000088b90000017800720047001b
:10396000100078006000b9000000780000014100fc
:103970007200470090007800803821000008b800ed
:103980000101410082007800720147000089be00f9
:10399000720147000089be00720047001000be009f
:1039a0004008de0001002000720147000089be00cf
:1039b000720047001000be005200200003002000eb
:1039c00044f30700760147000089be0076004700f7
:1039d0001001be00400220000e0040001000be009a
:1039e0000200400083804800760147000089be0045
:1039f000760047001001be00007122000100200087
:103a0000800f5100818f59000200360000c0eb008a
:103a10002c003700027122000300200076004700ce
:103a20001000be0000005100818059007a0147005b
:103a30000089be007a0047001000be000ef30700a8
:103a40000004be00760047001000be000af3070025
:103a50000001be000800be001cf407007e01470004
:103a60000089be007e0047001001be0000002c004f
:103a7000115c240015f407007e0147000089be0098
:103a8000800620000e004000104178007e004700b4
:103a90001000be0009fe0700800078002002200010
:103aa0000e00400001087800200220000e004000b7
:103ab00090007800640047000148780064004700e7
:103ac000104078004f04be000080fa00000006009d
:103ad0001a00fa00889fbe009b090700000f7800bb
:103ae000d0562000010020000e81e8000089be00b1
:103af0001e0078008000eb00660147000089be00d0
:103b00006800470090007800803821000088b900e4
:103b10000001780066004700100078006000b900de
:103b20000000780000014100660047009000780026
:103b3000803821000008b8000101410082007800af
:103b4000660147000089be00660147000089be008b
:103b5000660047001000be004409dd004c00de0096
:103b600000007100cc08de00660147000089be003d
:103b7000660047001000be00520020000300200035
:103b8000d4f207006a0147000089be006a004700be
:103b90001001be000e80e8001000be0002004000d0
:103ba000838048006a0147000089be006a00470020
:103bb0001001be000071220001002000800f5100a2
:103bc000818f5900020036000000eb002900370009
:103bd00002712200030020006a0047001000be00ae
:103be00000005100818059006e0147000089be002d
:103bf0006e0047001000be009ff207000004be00e8
:103c00006a0047001000be009bf207000001be00e2
:103c10000800be00adf30700720147000089be0036
:103c2000720047001001be0000002c00115c24004f
:103c3000a6f30700720147000089be0022c0b3004e
:103c4000720047001000be009cfd07008000780055
:103c50007600470001087800760047009000780061
:103c6000780047000148780078004700104078004d
:103c70000080fb004f04be000080fa000000060038
:103c8000da07fa00889fbe008a1f78000040eb0028
:103c9000004f78006000b8000e81e8000089be0087
:103ca0000040eb00004f78000a0037001e85fb0043
:103cb000410907008000eb004251dd00020147008e
:103cc0006a0141000089be00a00420008e0a07009e
:103cd0001e4fe80030c6b3009e40780080cf5000f1
:103ce000f2ff36008040eb000e00e800014878004b
:103cf0004f0037000e00e800104078000083fb0002
:103d00000e00e800104078000080fb004200dd005b
:103d1000ea004700008040001000be008238210009
:103d20000289b900020178006002b90084017800bc
:103d300003014100833821000300b8000101410064
:103d4000820078004231dd00020147006a01410033
:103d50000089be000e00e800104078000081fb00e2
:103d60000e00e800104078000080fb004200dd00fb
:103d7000ea004700008040001000be00408cde00da
:103d8000cf8cde004210dd00000047006a004000da
:103d90000888be000e00e800104078000080fb009c
:103da0004200dd00ea004700008040001001be0034
:103db0000e00e800104078000080fb004200dd00ab
:103dc000ea004700008040001000be00009ab900e1
:103dd00004027800028bb9008602780005024200d6
:103de0000010b8000102420084007800660147001c
:103df0000089be00660147000089be00e2408000e5
:103e0000f3408000660047001000be000200400042
:103e100083804800e0408800f14088000e00e80000
:103e2000104078008040e8000e00e800014878006b
:103e30000e00e8009040780030c6b30080cf5000fc
:103e4000acff3600e0408000f140800042062000d8
:103e5000030020001ff20700e0408800f1408800c6
:103e6000e0408000f140800003f2070006f6070002
:103e7000e3f10700e0408800f1408800e040800066
:103e8000f1408000fcf1070042b82b00b3f723009b
:103e9000edf30700daf10700e0408800f140880008
:103ea0000e80e800e2408000f34080000288be00ff
:103eb0000e80e800100078004f0578004f04be0027
:103ec0000080fa00000006001404fa00889fbe007b
:103ed0008a9fbe006000b8006a0147000089be00ea
:103ee0008000eb006e004700010878008040eb0086
:103ef0007200470001487800f0ff2f000100200009
:103f0000740147000089be006000b80078014700d6
:103f10000089be00803e2000fb0907000000eb0086
:103f2000000f78000a003700a30807008000eb00ac
:103f30001e0178004211dd0002014700c202b000fc
:103f40000089be00300c2000ef0907001e0fe800ba
:103f5000900f20009e007800808f5000f2ff360006
:103f60008000eb000e80e800010878002f00370089
:103f70000e80e800100078004200dd00c102200041
:103f80008e804000008040001001be007400470099
:103f90001000be00800f5100818f590009003d00c4
:103fa0000e80e800100078004200dd00c102200011
:103fb0008e804000808040007400470031187800f7
:103fc000211078000e80e800100078004200dd002b
:103fd000c10220008e804000008040001001be0021
:103fe000780047001000be00800f5100818f5900fb
:103ff000090034000e80e800100078004200dd0067
:10400000c10220008e804000808040007800470080
:1040100031187800211078000e80e8001000780038
:104020008000e8000e80e800010878000e80e800bb
:1040300090007800900f2000808f5000ccff360059
:10404000740047001001be00780047001000be0059
:1040500002004000838048008180d1000080d300ae
:104060007e0147000089be008000eb00640047002d
:1040700001087800560037006400470010007800ff
:104080000000e9004200dd00c10220008e804000f7
:10409000008040001001be007e0047001000be00fe
:1040a000800f5100818f59001c003c0064004700c4
:1040b000100078004200dd00c10220008e80400028
:1040c000008040001001be007e0047001000be00ce
:1040d000800f5100818f590010003400720047009a
:1040e000104078008040e8007200470001487800e6
:1040f00064004700900078006e00470010007800d0
:104100008080500070004700010878006e00470072
:10411000e4004700110878002800370064004700d9
:10412000100078000000e9004200dd00c10220001c
:104130008e804000008040001001be007e004700dd
:104140001000be00800f5100818f59001b00350008
:1041500064004700100078004200dd00c10220002a
:104160008e804000008040001001be007e004700ad
:104170001000be00800f5100818f59000f003d00dc
:1041800072004700104078008040e800720047004d
:104190000148780064004700900078006e004700f6
:1041a00010007800808050007000470001087800ff
:1041b0006e004700e40047001108780064004700e3
:1041c000100078008000e8006400470001087800d3
:1041d0006400470090007800900f2000808f50000e
:1041e000a5ff360070004700100078000000e000d6
:1041f000fc0032007000470090007800d0072000db
:10420000808f5000f7003e007000470010007800db
:10421000800040007c00470001087800a00f2000cb
:10422000fc004700910078000101780011000900ae
:104230000280d8008000fd00200220000e00400017
:10424000010878007c0047009000780020022000e0
:104250000e004000100078000088b900800078004f
:104260007c0047000108780070004700900078004b
:10427000a00f2000808f50006f003600a10f20009b
:104280007c004700010878008000eb0068004700d0
:1042900001087800610037006800470010007800ce
:1042a0004200dd00c10220008e80400000804000fe
:1042b0001001be007e0047001000be00000051004b
:1042c0008180590068014700120178004211dd0029
:1042d00002014700c202b0000089be00680047002a
:1042e000100078004200dd00c10220008e804000f6
:1042f000008040001000be00823821000289b90011
:10430000020178006002b9008401780003014100d5
:10431000833821000300b8000101410082007800c9
:1043200068014700120178004211dd0002014700d8
:10433000c202b0000089be0068004700100078008b
:104340004200dd00c10220008e804000008040005d
:104350001000be00408dde00cf8dde0068004700fb
:10436000100078004200dd0000004700c002b000ed
:104370000a88be0068004700100078004200dd0097
:10438000c10220008e804000008040001001be006d
:1043900068004700100078004200dd00c1022000e4
:1043a0008e804000008040001000be00009ab900de
:1043b00004027800028bb9008602780005024200f0
:1043c0000010b80001024200840078004202200080
:1043d0000e0141000089be00420220000e01410092
:1043e0000089be006a0047001001be0040022000a4
:1043f0000e0040001000be00020040008380480014
:104400006a0147000089be0068004700100078007c
:104410008000e80068004700010878006800470055
:10442000900078007c00470010007800808f5000da
:1044300099ff39006b0037008000eb0066004700f1
:10444000010878006100370066004700100078001e
:104450004200dd00c10220008e804000008040004c
:104460001001be007e0047001000be000000510099
:104470008180590066014700120178004211dd0079
:1044800002014700c202b0000089be00660047007a
:10449000100078004200dd00c10220008e80400044
:1044a000008040001000be00823821000289b9005f
:1044b000020178006002b900840178000301410024
:1044c000833821000300b800010141008200780018
:1044d00066014700120178004211dd000201470029
:1044e000c202b0000089be006600470010007800dc
:1044f0004200dd00c10220008e80400000804000ac
:104500001000be00408cde00cf8cde00660047004d
:10451000100078004200dd0000004700c002b0003b
:104520000888be0066004700100078004200dd00e9
:10453000c10220008e804000008040001001be00bb
:1045400066004700100078004200dd00c102200034
:104550008e804000008040001000be00009ab9002c
:1045600004027800028bb90086027800050242003e
:104570000010b800010242008400780042022000ce
:104580000e0141000089be00420220000e014100e0
:104590000089be006a0047001001be0040022000f2
:1045a0000e0040001000be00020040008380480062
:1045b0006a0147000089be006600470010007800cd
:1045c0008000e800660047000108780066004700a8
:1045d000900078007c00470010007800808f500029
:1045e00099ff39007c004700100078008000eb0044
:1045f0006a0247000001be001400be00ccef0700b5
:104600006a0147000089be006a0047001000be0032
:1046100016f007001cf40700d8ef07006a014700f6
:104620000089be006a0047001000be000ff00700be
:10463000c2d32b00a301240003f20700cfef070031
:104640006a0147000089be006a0047001001be00f1
:104650003006200001002000800f5100818f59009a
:1046600003003c006000b8006a0147000089be00fa
:10467000800220000e004000ea0047003118780058
:1046800021107800800220000e0040001000780009
:104690004f05be004f04be000080fa000000060077
:1046a0001000fa00889fbe006000b8006801470053
:1046b0000089be006000b8000e81e8000089be00dd
:1046c0008000eb006c004700010878000000eb0060
:1046d000000f7800010037001e0fe8001e00780070
:1046e000e90f5000fcff36006000b8000e81e800c2
:1046f0000089be008040eb0066004700014878005a
:1047000012003700ac060700800078006e004700fa
:10471000010878006e004700100078008000eb0070
:104720000e81e8001201be000200400083804800b4
:104730000e81e8000089be00660047001040780046
:104740008040e800660047000148780066004700a6
:1047500090407800f0c3b30080cf5000e9ff3600ee
:104760000e80e8001000be004a09dd004604de00ad
:1047700008047100c68cde00680047000888be008f
:104780006a00470090007800803821000088b90056
:104790000001780068004700100078006000b90050
:1047a0000000780000014100680047009000780098
:1047b000803821000008b800010141008200780023
:1047c000680147000089be00680147000089be00fb
:1047d000680047001000be004008de006c01470082
:1047e000000978006c004700100078004f04be00fc
:1047f0000080fa00000006000c00fa00889fbe004e
:104800006000b8000e81e8000089be006000b800ba
:104810000e81e8000089be000000eb00000f780068
:104820000e0037006406070080007800660047002d
:104830000108780066004700100078008000eb0057
:104840000e81e8001201be00020040008380480093
:104850000e81e8000089be001e0fe800f003200072
:104860009e007800808f5000eeff36000e80e8003a
:104870001000be004a09dd004604de000804710095
:10488000c68cde00680047000888be00680047004c
:10489000100078004f04be000080fa0000000600ff
:1048a0001000fa00889fbe008a9fbe008c9fbe0049
:1048b000ea004700804878006000b80064014700c3
:1048c0000089be006000b800640147000089be0096
:1048d0008000eb000e80e80001087800050037003a
:1048e0000e80e800100078008000e8000e80e800ec
:1048f000010878000e80e800900078003006200063
:10490000808f5000f6ff36008000eb000e80e8003c
:1049100001087800120037002706070080007800a1
:104920006800470001087800680047001000780020
:104930008000eb00640147001201be00020040004d
:1049400083804800640147000089be000e80e800b3
:10495000100078008000e8000e80e8000108780070
:104960000e80e80090007800f0032000808f500057
:10497000e9ff3600640047001000be004a09dd0070
:104980004604de0008047100c68cde0064004700a7
:104990000888be006a00470010407800e14f5000d0
:1049a0000b003a00640047001000be004809dd001b
:1049b000c801de008301710063079800c889de002a
:1049c00073079800ee009000010f78001a0037007e
:1049d0006a004700104078000004e00008003a0038
:1049e000640047001000be004809dd004806de00f4
:1049f0000c067100c88ede000c0f78000e00370028
:104a00006a00470010407800e24f500008003a006a
:104a1000640047001000be00c909dd004705de0044
:104a20000a857100c78dde000a0f7800020037008a
:104a300090032300000f78001e0078004f06be0090
:104a40004f05be004f04be000080fa0000000600c3
:104a50000800fa006401470000097800660047007a
:104a6000014878000000eb00000f78008000eb00a8
:104a70000e80e800010878000d0037006400470050
:104a8000900078000e80e800100078000080400060
:104a9000104078000080fb001e0f40000e80e800f0
:104aa000100078008000e8000e80e800010878001f
:104ab00066004700104078000080fb008e80e80010
:104ac00091007800810f5000ecff3e001e0078003e
:104ad0000080fa00000006000200fa00004f780093
:104ae0000e00e800014878001e80fb00ea0f50002d
:104af00036003200ea0f500007003c00e70f50007c
:104b00001c003200e90f500025003200e60f500073
:104b10000d00320063003700ed0f500041003200fd
:104b2000ed0f500003003c00ec0f5000320032004b
:104b30005c003700ee0f500045003200ef0f5000d0
:104b40004e003200570037000e00e8001040780099
:104b5000614060000080fb00610060004600dd00f5
:104b6000011680000160a10001007000001688009d
:104b70004c0037000e00e8001040780061406000f3
:104b80000080fb00610060004700dd00011680002e
:104b90000170a1000100700000168800410037007c
:104ba0000e00e80010407800614060000080fb00cb
:104bb000610060004900dd00011680000190a10045
:104bc0000100700000168800360037000e00e80073
:104bd00010407800614060000080fb0061006000d0
:104be0004a00dd000116800001a0a1000100700054
:104bf000001688002b0037000e00e80010407800f7
:104c0000614060000080fb00610060004c00dd003e
:104c10000116800001c0a10001007000001688008c
:104c2000200037000e00e80010407800614060006e
:104c30000080fb00610060004d00dd000116800077
:104c400001d0a10001007000001688001500370097
:104c50000e00e80010407800614060000080fb001a
:104c6000610060004e00dd000116800001e0a1003f
:104c700001007000001688000a0037000e00e800ee
:104c800010407800614060000080fb004f00dd00b4
:104c90000116800001f0a1000100700000168800dc
:104ca000000000000080fa00000006000200fa0088
:104cb000004f78000e00e800014878001e80fb00dd
:104cc000cf80de00f200200003002000820f5000a1
:104cd000838f5800bf003e00006001000f003700c6
:104ce00018003700220037002c003700360037004c
:104cf000400037004a003700540037005e0037009c
:104d000068003700720037007c00370086003700eb
:104d1000900037009a003700a40037000e00e8002a
:104d200010407800614060000080fb00610060007e
:104d3000311680000100a1000100700030168800cb
:104d4000a50037000e00e8001040780061406000c8
:104d50000080fb0061006000000040003116800010
:104d60000110a10001007000301688009a00370081
:104d70000e00e80010407800614060000080fb00f9
:104d8000610060004200dd00311680000120a100ba
:104d900001007000301688008f0037000e00e80018
:104da00010407800614060000080fb0061006000fe
:104db0004300dd00311680000130a10001007000c9
:104dc00030168800840037000e00e800104078009c
:104dd000614060000080fb00610060004400dd0075
:104de000311680000140a1000100700030168800db
:104df000790037000e00e800104078006140600044
:104e00000080fb00610060004500dd00311680007d
:104e10000150a10001007000301688006e003700bc
:104e20000e00e80010407800614060000080fb0048
:104e3000610060004600dd00311680000160a100c5
:104e40000100700030168800630037000e00e80093
:104e500010407800614060000080fb00610060004d
:104e60004700dd00311680000170a10001007000d4
:104e700030168800580037000e00e8001040780017
:104e8000614060000080fb00610060004800dd00c0
:104e9000311680000180a1000100700030168800ea
:104ea0004d0037000e00e8001040780061406000bf
:104eb0000080fb00610060004900dd0031168000c9
:104ec0000190a100010070003016880042003700f8
:104ed0000e00e80010407800614060000080fb0098
:104ee000610060004a00dd003116800001a0a100d1
:104ef0000100700030168800370037000e00e8000f
:104f000010407800614060000080fb00610060009c
:104f10004b00dd003116800001b0a10001007000df
:104f2000301688002c0037000e00e8001040780092
:104f3000614060000080fb00610060004c00dd000b
:104f40003116800001c0a1000100700030168800f9
:104f5000210037000e00e80010407800614060003a
:104f60000080fb00610060004d00dd003116800014
:104f700001d0a10001007000301688001600370033
:104f80000e00e80010407800614060000080fb00e7
:104f9000610060004e00dd003116800001e0a100dc
:104fa00001007000301688000b0037000e00e8008a
:104fb00010407800614060000080fb004f00dd0081
:104fc0003116800001f0a100010070003016880049
:104fd00001003700000000000080fa000000060019
:104fe0000200fa00004f78000e00e8000148780047
:104ff0001e80fb00e40f500031003200e40f50002f
:1050000007003c00e20f500017003200e20f500092
:1050100020003c00e10f5000080032005300370030
:10502000ee0f50003c003200ef0f50004500320000
:10503000ed0f50002d0032004c0037000e00e8004c
:1050400010407800614060000080fb00610060005b
:1050500000004000611680000110a10001007000f6
:1050600060168800410037000e00e800104078000c
:10507000614060000080fb00610060004200dd00d4
:10508000611680000120a1000100700060168800f8
:10509000360037000e00e8001040780061406000e4
:1050a0000080fb00610060004300dd0061168000ad
:1050b0000130a10001007000601688002b0037004d
:1050c0000e00e80010407800614060000080fb00a6
:1050d000610060004400dd00611680000140a10015
:1050e0000100700060168800200037000e00e80004
:1050f00010407800614060000080fb0061006000ab
:105100004d00dd006116800001d0a100010070009b
:1051100060168800150037000e00e8001040780087
:10512000614060000080fb00610060004e00dd0017
:105130006116800001e0a100010070006016880087
:105140000a0037000e00e80010407800614060005f
:105150000080fb004f00dd006116800001f0a1001f
:105160000100700060168800000000000080fa0056
:10517000000006000200fa00004f78000e00e80070
:10518000014878001e80fb00cf80de00f200200086
:1051900003002000820f5000838f5800bf003e00a4
:1051a000006001000f0037001800370022003700b0
:1051b0002c00370036003700400037004a00370027
:1051c000540037005e003700680037007200370077
:1051d0007c00370086003700900037009a003700c7
:1051e000a40037000e00e800104078006140600025
:1051f0000080fb0061006000911680000100a100aa
:105200000100700090168800a50037000e00e8002d
:1052100010407800614060000080fb006100600089
:1052200000004000911680000110a10001007000f4
:10523000901688009a0037000e00e80010407800b1
:10524000614060000080fb00610060004200dd0002
:10525000911680000120a1000100700090168800c6
:105260008f0037000e00e8001040780061406000b9
:105270000080fb00610060004300dd0091168000ab
:105280000130a100010070009016880084003700f2
:105290000e00e80010407800614060000080fb00d4
:1052a000610060004400dd00911680000140a10013
:1052b0000100700090168800790037000e00e800a9
:1052c00010407800614060000080fb0061006000d9
:1052d0004500dd00911680000150a1000100700022
:1052e000901688006e0037000e00e800104078002d
:1052f000614060000080fb00610060004600dd004e
:10530000911680000160a1000100700090168800d5
:10531000630037000e00e800104078006140600034
:105320000080fb00610060004700dd0091168000f6
:105330000170a1000100700090168800580037002d
:105340000e00e80010407800614060000080fb0023
:10535000610060004800dd00911680000180a1001e
:1053600001007000901688004d0037000e00e80024
:1053700010407800614060000080fb006100600028
:105380004900dd00911680000190a100010070002d
:1053900090168800420037000e00e80010407800a8
:1053a000614060000080fb00610060004a00dd0099
:1053b0009116800001a0a1000100700090168800e5
:1053c000370037000e00e8001040780061406000b0
:1053d0000080fb00610060004b00dd009116800042
:1053e00001b0a10001007000901688002c00370069
:1053f0000e00e80010407800614060000080fb0073
:10540000610060004c00dd009116800001c0a10029
:105410000100700090168800210037000e00e8009f
:1054200010407800614060000080fb006100600077
:105430004d00dd009116800001d0a1000100700038
:1054400090168800160037000e00e8001040780023
:10545000614060000080fb00610060004e00dd00e4
:105460009116800001e0a1000100700090168800f4
:105470000b0037000e00e80010407800614060002b
:105480000080fb004f00dd009116800001f0a100bc
:105490000100700090168800010037000000000035
:1054a0000080fa00000006000200fa00004f7800b9
:1054b0000e00e800014878001e80fb00e40f500059
:1054c00042003200e40f50000c003c00e10f50009d
:1054d0001d003200e10f500003003c000000e0001e
:1054e0000f00320070003700e20f50002100320040
:1054f000e30f50002a0032006b003700e60f500027
:1055000048003200e60f50003b003500e70f500026
:105510004f003200e80f50005800320062003700a0
:105520000e00e80010407800614060000080fb0041
:1055300061006000f11680000100a1000100700010
:10554000f0168800580037000e00e8001040780080
:10555000614060000080fb006100600000004000ce
:10556000f11680000110a10001007000f016880003
:105570004d0037000e00e8001040780061406000e8
:105580000080fb00610060004200dd00f116800039
:105590000120a10001007000f016880042003700d1
:1055a0000e00e80010407800614060000080fb00c1
:1055b000610060004300dd00f11680000130a100b1
:1055c00001007000f0168800370037000e00e80078
:1055d00010407800614060000080fb0061006000c6
:1055e0004400dd00f11680000140a10001007000c0
:1055f000f01688002c0037000e00e80010407800fc
:10560000614060000080fb00610060004500dd003b
:10561000f11680000150a10001007000f016880012
:10562000210037000e00e800104078006140600063
:105630000080fb00610060004600dd00f116800084
:105640000160a10001007000f0168800160037000c
:105650000e00e80010407800614060000080fb0010
:10566000610060004700dd00f11680000170a100bc
:1056700001007000f01688000b0037000e00e800f3
:1056800010407800614060000080fb006100600015
:105690004800dd00f11680000180a10001007000cb
:1056a000f0168800000000000080fa0000000600ec
:1056b0000200fa00004f78000e00e8000148780070
:1056c0001e80fb00cf80de00f200200003002000df
:1056d000820f5000838f580093003e00006001004d
:1056e0000f00370018003700220037002c00370069
:1056f0008f0037008e003700340037003e0037003f
:105700004800370052003700890037008800370012
:105710005a003700640037006e0037007800370009
:105720000e00e80010407800614060000080fb003f
:1057300061006000211780000100a10001007000dd
:10574000201788007b0037000e00e800104078002a
