:020000040000fa
:080000000001040000000000f3
:020000040000fa
:04000800c80100002b
:020000040000fa
:04000c00c801000027
:020000040000fa
:04001000c801000023
:020000040000fa
:04001400c80100001f
:020000040000fa
:04001800c80100001b
:020000040000fa
:04001c00c801000017
:020000040000fa
:04002000c801000013
:020000040000fa
:04002400c80100000f
:020000040000fa
:04002800c80100000b
:020000040000fa
:04002c00c801000007
:020000040000fa
:04003000c801000003
:020000040000fa
:04003400c8010000ff
:020000040000fa
:04003800c8010000fb
:020000040000fa
:04003c00c8010000f7
:020000040000fa
:04004000c8010000f3
:020000040000fa
:04004400c8010000ef
:020000040000fa
:04004800c8010000eb
:020000040000fa
:04004c00c0020000ee
:020000040000fa
:04005000c8010000e3
:020000040000fa
:04005400c8010000df
:020000040000fa
:04005800c8010000db
:020000040000fa
:04005c00c8010000d7
:020000040000fa
:04006000c8010000d3
:020000040000fa
:04006400c8010000cf
:020000040000fa
:04006800c8010000cb
:020000040000fa
:04006c00c8010000c7
:020000040000fa
:04007000c8010000c3
:020000040000fa
:04007400c8010000bf
:020000040000fa
:04007800c8010000bb
:020000040000fa
:04007c00c8010000b7
:020000040000fa
:04008000c8010000b3
:020000040000fa
:04008400c8010000af
:020000040000fa
:04008800f80100007b
:020000040000fa
:04008c00c8010000a7
:020000040000fa
:04009000c8010000a3
:020000040000fa
:04009400c80100009f
:020000040000fa
:04009800c80100009b
:020000040000fa
:04009c00c801000097
:020000040000fa
:0400a000c801000093
:020000040000fa
:0400a400c80100008f
:020000040000fa
:0400a800c80100008b
:020000040000fa
:0400ac00c801000087
:020000040000fa
:0400b000c801000083
:020000040000fa
:0400b400c80100007f
:020000040000fa
:0400b800c80100007b
:020000040000fa
:0400bc00c801000077
:020000040000fa
:0400c000c801000073
:020000040000fa
:0400c400c80100006f
:020000040000fa
:0400c800c80100006b
:020000040000fa
:0400cc00c801000067
:020000040000fa
:0400d000c801000063
:020000040000fa
:0400d400c80100005f
:020000040000fa
:0400d800c80100005b
:020000040000fa
:04010800c80100002a
:020000040000fa
:04010c00c801000026
:020000040000fa
:04011000c801000022
:020000040000fa
:04011400c80100001e
:020000040000fa
:04011800c80100001a
:020000040000fa
:04011c00c801000016
:020000040000fa
:04012000c801000012
:020000040000fa
:04012400c80100000e
:020000040000fa
:04012800c80100000a
:020000040000fa
:04012c00c801000006
:020000040000fa
:04013000c801000002
:020000040000fa
:04013400c8010000fe
:020000040000fa
:04013800c8010000fa
:020000040000fa
:04013c00c8010000f6
:020000040000fa
:04014000c8010000f2
:020000040000fa
:04014400c8010000ee
:020000040000fa
:04014800c8010000ea
:020000040000fa
:04014c00c8010000e6
:020000040000fa
:04015000c8010000e2
:020000040000fa
:04015400c8010000de
:020000040000fa
:04015800c8010000da
:020000040000fa
:04015c00c8010000d6
:020000040000fa
:04016000c8010000d2
:020000040000fa
:04016400c8010000ce
:020000040000fa
:04016800c8010000ca
:020000040000fa
:04016c00c8010000c6
:020000040000fa
:04017000c8010000c2
:020000040000fa
:04017400c8010000be
:020000040000fa
:04017800c8010000ba
:020000040000fa
:04017c00c8010000b6
:020000040000fa
:04018000c8010000b2
:020000040000fa
:04018400c8010000ae
:020000040000fa
:04018800c8010000aa
:020000040000fa
:04018c00c8010000a6
:020000040000fa
:04019000c8010000a2
:020000040000fa
:04019400c80100009e
:020000040000fa
:04019800c80100009a
:020000040000fa
:04019c00c801000096
:020000040000fa
:0401a000c801000092
:020000040000fa
:0401a400c80100008e
:020000040000fa
:0401a800c80100008a
:020000040000fa
:0401ac00c801000086
:020000040000fa
:0401b000c801000082
:020000040000fa
:0401b400c80100007e
:020000040000fa
:0401b800c80100007a
:020000040000fa
:0401bc00c801000076
:020000040000fa
:0401c000c801000072
:020000040000fa
:0401c400c80100006e
:020000040000fa
:0401c800c80100006a
:020000040000fa
:0401cc00c801000066
:020000040000fa
:0401d000c801000062
:020000040000fa
:0401d400c80100005e
:020000040000fa
:0401d800c80100005a
:020000040000fa
:100200006fc420000e7f22000e0188000000000055
:10021000000020000000e000020032000001200089
:1002200020028800140007005b0007000000e000c7
:1002300003003a00e03920000100200002003700ee
:100240000000200001002000810f7000010032003a
:1002500014000700000020000000e000020032004f
:1002600000000200000000001a0702000000000069
:100270000040da000000fe004440a9000000200019
:100280000000e0000300320000002000a001880010
:100290004440a800000006008a1f78008b1f7800e9
:1002a0000000060091018800800478000000eb0047
:1002b0001a003700e284440032a0b4009905ba0065
:1002c000e284440032a0b4009906ba00e2844400fb
:1002d00032a0b4000006eb00476fde00fd07b2005d
:1002e000636ce10003003a00ebff07000000eb0045
:1002f0000a003700606ce10004003a00005deb008a
:100300008b05e900fdff3e00040037006168e10055
:10031000010032000086eb000b00070019c7ba008d
:100320001905ba000e04e00003003a000a00e000dc
:10033000e0ff3a0000000600fe07b2009e018800c0
:100340008a047800f5ff3700395dba008b05e900b3
:100350000c003200295dba008b05e900080032006c
:100360000c00e00003003a00e284440032a0b40034
:10037000f5ff370019ddba008b05e900faff3a00f6
:100380008904e800e184440032a0b40000000600c3
:0c0390000040da000000fe000000050044
:020000040000fa
:10039c000000fa000000280060108800000028000f
:1003ac007010880070002000a01088008d40a900fb
:1003bc008d20a8000f42a80000002800b010880073
:1003cc0000002800c010880070002000f010880089
:1003dc008f20a9008f00a8001942a8000080fa0005
:1003ec00000006003600f800809fbe00829fbe0011
:1003fc00849fbe00869fbe000000fa008700a90003
:10040c0000c8bf000080fb00e110800001417800b3
:10041c00018220008270780004c8bf000004e00054
:10042c0020003a0000c8bf000080fb000000e9007b
:10043c0001822000e140780050c5b30080cf50000d
:10044c0018003a0000c8bf000080fb0001822000a9
:10045c00e1407800a0cab30080cf500011003a00f0
:10046c0010c0b30004e8b70000c8bf000080fb0058
:10047c000000e90001822000e140780000822000a9
:10048c000148780000c8bf000080fb0001822000fa
:10049c00e1407800108220000148780010c0b300c1
:1004ac0000e8b70000c8bf000040e80000e8b70053
:1004bc0020822000104078000080fb00c800dd0086
:1004cc0030822000104078000080fb00008040004b
:1004dc004040880000c8bf008080fb004040800086
:1004ec0066004000808f500017003a0040408000aa
:1004fc006400400001822000614078000080fb0015
:10050c00c800dd00404080006500400002822000f1
:10051c00624078000080fb00008040003040880082
:10052c004040800064004000800078000082200081
:10053c001502070031408000810f500002003a0084
:10054c0010c0b3000ae8b70000c8bf00e34f40007a
:10055c00010036000068ef000080fa004f03be0077
:10056c004f02be004f01be004f00be003600f90026
:10057c0000400600809fbe00821f78000000fa0039
:10058c008520a90010408000911080000141780066
:10059c00e183200082707800104080000000e800a9
:1005ac001040880080408000e8005000104080001f
:1005bc00808f500002003a0010c0b3000be8b70067
:1005cc001140800070252000808f50000100360003
:1005dc000228ef000080fa004f0178004f00be00a7
:1005ec00004006000200fa00004f78001147980006
:1005fc001e407800e14f50000a003a001e40900067
:10060c000080fb008010880000000000711080004a
:10061c0000102000008060000000e000fbff3200b2
:10062c000c0037001e407800e24f500009003a00e1
:10063c001e4090000080fb00d010880000000000dd
:10064c00c110800000102000008060000000e0005d
:10065c00fbff32000080fa00000006000800fa00e0
:10066c002047980021079800320798002e409000f0
:10067c00e14f500015003a000040eb00004f7800ad
:10068c000d0037001e80fb00ae0090000080400083
:10069c00104078000080fb008010880000000000f3
:1006ac007110800000102000008060000000e0004d
:1006bc00fbff32001e4fe8009e80fb003e009000c6
:1006cc00808f5000efff3900170037002e4090004c
:1006dc00e24f500014003a000040eb00004f78004d
:1006ec000d0037001e80fb00ae0090000080400023
:1006fc00104078000080fb00d01088000000000043
:10070c00c110800000102000008060000000e0009c
:10071c00fbff32001e4fe8009e80fb003e00900065
:10072c00808f5000efff39000080fa0000000600b7
:020000040000fa
:10073c002008000012020000000000000008000069
:10074c000e000000000000001c0800000400000067
:10075c0000000000320a0000f60100000200000058
:10076c0010006600cc00000000000000000000003b
:10077c00000000000000000000000000000000006d
:10078c00000000000000000000000000000000005d
:10079c00000000000000000000000000000000004d
:1007ac00000000000000000000000000000000003d
:100a0c00280c00001e000000000000000e08000072
:0c0a1c000e0000000000000000000000c0
:020000040000fa
:100a28000200fa000ac8bf00e14f500066003a0011
:100a380040822000104078001ae8b7005082200059
:100a4800104078000ee8b70060822000104078005f
:100a58000fe8b70070822000104078000080fb008b
:100a68008040880080408000c800dd00808220002f
:100a7800104078000080fb00008040008040880023
:100a880090822000104078000080fb009040880091
:100a980090408000c800dd00a0822000104078004f
:100aa8000080fb000080400090408800b082200059
:100ab800104078000080fb00a0408800a040800023
:100ac800c800dd00c0822000104078000080fb00d4
:100ad80000804000a0408800d082200010407800ac
:100ae8000080fb00b0408800b0408000c800dd00f6
:100af800e0822000104078000080fb000080400069
:100b0800b0408800f0822000104078000080fb0090
:100b1800c0408800c0408000c800dd00008320007d
:100b2800104078000080fb0000804000c040880032
:100b38002200200021a3200010c0b300c8fe070037
:100b480010c0b3001be8b7001ac8bf00e24f50003e
:100b58001a003a0000c5b300720007000040eb001d
:100b6800004f7800080037001e80fb009e80fb00c5
:100b7800e58040000282200062c1780081c2200026
:100b8800827078001e4fe8009e80fb004040800085
:100b98000000e900808f5000f3ff390040408000da
:100ba8000000e9000001780081c2200010c0b300f5
:100bb800abfe070020c0b3001be8b7000a68ef00cf
:100bc8000068ef000468ef000080fa0000000600eb
:100bd8000200fa000bc8bf00e14f500045003a0080
:100be80060a320008040eb000148780070a320003b
:100bf800f1c4b30001487800b18120009140780029
:100c080080a32000014878000040eb00004f7800e6
:100c1800080037001e80fb00650040009e80fb0036
:100c2800e283200062c1780041a32000827078002e
:100c38001e4fe8009e80fb00804080006800500046
:100c4800808f5000f3ff3900f0a720008040eb00b0
:100c58000148780000a820008040eb000148780097
:100c680010a820008040eb000148780020a8200050
:100c78008040eb000148780030a820008040eb005d
:100c88000148780040a820008040eb000148780027
:100c980050a820008040eb000148780060a82000a0
:100ca8008040eb00014878003105200040a3200077
:100cb800360007004800de008040780070a8200059
:100cc800014878003105200040a320002f000700cc
:100cd8008040780080a82000014878005205200054
:100ce80041a3200020c0b3005dfe07000268ef00aa
:100cf8000b68ef000080fa00000006000000fa0010
:100d08000a21ef000080eb00700888000001200035
:100d1800900888008ce0a90013e1a8000080fa0080
:100d2800000006000200fa00004f78000a21ef00d8
:100d38009e80fb00007d20000088b900000078003c
:100d4800cf80de00e0408800f1408800000000000d
:100d5800500880006101b800e0408000f140800048
:100d6800800f5100818f5900f9ff39000080fa0087
:100d7800000006000000fa001b00070085fd0700c0
:100d8800deff07000080fa00000006000800fa00f5
:100d980020079800310798000000eb001007980022
:100da8000000eb00000f7800080037002e009000cc
:100db8001e004000104078000080fb009e0090005c
:100dc80000804000100798001e0fe8003e009000c9
:100dd8009e007800808f5000f4ff39001e009000bc
:100de8000080fa00000006000000fa000080eb0016
:100df800401588000080eb00001688000080eb009a
:100e0800301688000080eb0060168800e0ff2f0095
:100e180090168800f0ed2f00f0168800f0ff2400ef
:100e2800201788000080fa00000006000000fa0081
:100e3800d0ff07000060fe00f9fe070064ff07000e
:040e4800fcff370074
:020000040000fa
:0200000401f009
:04000000f2bf00004b
:020000040000fa
:0200000401f009
:04000400ffff0000fa
:020000040000fa
:0200000401f009
:04000800ffff0000f6
:020000040000fa
:0200000401f009
:04000c00ffff0000f2
:020000040000fa
:0200000401f009
:04001000ffff0000ee
:020000040000fa
:0200000401f009
:04001400ffff0000ea
:020000040000fa
:0200000401f009
:04001800ffff0000e6
:00000001FF
