:020000040800F2
:10000000406F0020450100083D3300085D270008CF
:1000100039330008211200086D4700080000000075
:10002000000000000000000000000000213900086E
:100030003918000800000000C5330008413C0008E2
:100040005F0100085F0100085F0100085F01000810
:100050005F0100085F0100085F0100085F01000800
:100060005F0100085F0100085F0100085F010008F0
:100070005F0100085F0100085F0100085F010008E0
:100080005F0100085F0100085F0100085F010008D0
:100090005F0100085F0100085F0100085F010008C0
:1000A0005F0100085F0100085F0100085F010008B0
:1000B000113E00085F0100085F0100085F010008B1
:1000C0005F0100085F0100085F0100085F01000890
:1000D0005F010008CD420008DD420008ED42000843
:1000E0005F0100085F0100085F0100085F01000870
:1000F0005F0100085F0100085F0100085F01000860
:100100005F0100085F0100085F0100085F0100084F
:100110005F010008BD4200085F0100085F010008A0
:100120005F0100085F0100085F0100085F0100082F
:10013000DFF80CD000F076FC004800478D51000835
:10014000406F00200648804706480047FEE7FEE76C
:10015000FEE7FEE7FEE7FEE7FEE7FEE7FEE7FEE777
:10016000B13D000831010008421C10F8011B0029B4
:10017000FBD1801A7047F0B480EA0102D40F42002C
:10018000B2EB410F02D20246084611464A0042D065
:10019000C30DDDB2C1F3C752AD1A202D35DAC1F35C
:1001A000160141F4000204B15242C5F1200602FAE0
:1001B00006F12A411044B3EBD05F23D0C4B1012D26
:1001C000A0EBC35009DCF0BC4FF0004202EAC3527E
:1001D000DBB200F5000000F019BB400000F18070B8
:1001E00000EBC350A0F1807040EAD170490009E0F3
:1001F000490841EAC071A0EBC35000F50000400877
:1002000000EBC350F0BC00F0F8BA6142012202EBEF
:100210004101001BF6E7F0BC704781F00041AAE7FE
:1002200080F00040A7E780EA010210B502F0004329
:10023000400022D04A001FD0010E01EB1261C0F332
:100240005600C2F3560240F4000042F40002A0FB44
:10025000022000047F39140400D0401C50EA1240F0
:1002600001D44000491EC2B20C0604EBD010401C61
:100270004008802A02D003E0002010BD20F00100D9
:10028000002900DA0020184310BD30B480EA0102D2
:1002900002F0004530F0004221F0004013D090B150
:1002A000C30DD40DC2F31601C0F31600E41A41F4D5
:1002B000000140F400027D34914201D3641C00E04F
:1002C0004900002C02DA30BC002070474FF40000D7
:1002D0000023914201D3891A034340084FEA4101A8
:1002E000F7D151B1914202D14FF0004105E002D265
:1002F0004FF0010101E06FF0010103EBC45028440D
:1003000030BC00F07ABA2DE9FE4F804681EA030046
:10031000C00F0C46009021F0004123F00045B8EBDF
:100320000200A94105D24046214690461C460B4694
:10033000024623F00040104347D0270DC7F30A00C0
:10034000C3F30A510290401A019040286BDAC3F3BC
:10035000130040F4801B0098924620B10023D2EB9A
:10036000030A63EB0B0B01985946C0F1400250465B
:1003700000F012FA06460D4650465946019A00F022
:100380002AFA10EB08006141002487EA115284EA3E
:10039000E7731A4340D0009A62B3019A012A4FEAE8
:1003A000075215DC001B61EB02014FF0004202EA2C
:1003B0000752CDE90042001C41F5801132462B4620
:1003C00000F061FA03B0BDE8F08F40462146F9E73E
:1003D000001B61EB0201001C41F5801300185B411A
:1003E0002018A2F5001747EB030140EAD570B619B3
:1003F0006D4111E06D084FEA360645EAC0754FEAD7
:100400000752001B61EB0201001C41F580114908F5
:100410004FEA30000019514132462B4603B0BDE887
:10042000F04F00F021BA0098012240000023D0EBE9
:10043000020263EBE073009821464FEAE074B8EBE8
:10044000000061EB0401E9E783F000435BE781F022
:10045000004158E72DE9FE4F81EA030404F000440F
:1004600021F0004100944FF0000B23F0004350EACC
:1004700001045ED052EA03045BD0C3F30A54C1F313
:100480000A552C44A4F2F3340194A0FB0254C1F3A6
:10049000130141F48011C3F3130343F4801301FBF0
:1004A000024400FB034E840A970A44EA815447EA57
:1004B0008357A4FB076802958D0A05FB07854FEA61
:1004C000932C04FB0C542705029D4FEA065847EA7B
:1004D0001637B5EB08056EEB070C870E920E47EA50
:1004E000811742EA8312A7FB0201B6EB0B0164EB12
:1004F00000042B0D43EA0C335E1844EB1C50DA4623
:100500005146E7FB0201C5F313044FEA0B3343EAFC
:1005100014534FEA0432019C43EA0603A4F10C048D
:100520000294009CCDE900B400F0ADF903B0BDE841
:10053000F08F00200146F9E72DE9F04D81EA030430
:1005400004F0004B21F0004514464FF0000A23F060
:10055000004150EA050220D054EA01021DD0C5F343
:100560000A570246C5F31303C1F31300C1F30A5639
:1005700040F4801543F48013A7EB0608101BD64601
:1005800008F2FD3873EB050002D308F1010801E021
:1005900092185B41B8F1000F03DA00200146BDE874
:1005A000F08D00204FF48011064684460EE0171BA4
:1005B00073EB050705D3121B63EB050306434CEAF7
:1005C000010C49084FEA300092185B4150EA0107DC
:1005D000EDD152EA030012D082EA040083EA050159
:1005E000084305D0101BAB4106D20122002306E0D0
:1005F00000224FF0004302E06FF0010253101AEBAB
:1006000006004CEB085110EB0A0041EB0B01BDE872
:10061000F04D00F029B996230022114600F0F6B8FB
:100620000EB5C10F80EAE0700844CA07002140F20D
:1006300033438DE80E000A460B4600F024F903B060
:1006400000BD0EB540F2334102910021CDE9001109
:100650000A460B4600F017F903B000BD00F0004257
:1006600020F00040C10DC0F3160040F400007F29C7
:1006700001DA00207047962903DCC1F19601C840D9
:1006800001E096398840002AF4D04042704720F0BB
:100690000040C10DC0F3160040F400007F2901DACC
:1006A00000207047962903DCC1F19601C8407047CD
:1006B00096398840704770B5C1F30A5201F0004581
:1006C0000024C1F3130140F2FF3341F480119A4238
:1006D00001DA002070BD40F233439A42A2F2334265
:1006E00003DC524200F067F800E090402C43F1D068
:1006F000404270BDC1F30A5210B5C1F3130140F27C
:10070000FF3341F480119A4201DA002010BD40F21B
:1007100033439A42A2F2334203DC524200F04BF8D8
:1007200010BD904010BD00F0004230F000400AD0F3
:10073000C10D01F56071C0F3160042EA0151C20813
:1007400040071143704700200146704701F0004305
:1007500030B421F0004150EA010206D00A0DA2F5A2
:100760006072C1F31301002A02DC30BC0020704724
:10077000440F44EAC104C100E01830BC00EBC25091
:1007800000F03BB8002801DBC0F10040002901DB8C
:10079000C1F1004188427047202A04DB203A00FA68
:1007A00002F1002070479140C2F1200320FA03F3C8
:1007B000194390407047202A04DB203A21FA02F0C6
:1007C0000021704721FA02F3D040C2F1200291408B
:1007D000084319467047202A06DBCB17203A41FA16
:1007E00002F043EAE07306E041FA02F3D040C2F1BE
:1007F000200291400843194670470029A8BF70475E
:10080000401C490008BF20F00100704710B4B0FA46
:1008100080FC00FA0CF050EA010404BF10BC7047E1
:1008200049B1CCF1200421FA04F411FA0CF118BFFB
:10083000012121430843A3EB0C01CB1D4FEA0061CA
:100840004FEA102042BF002010BC704700EBC3509D
:1008500010440029A4BF10BC7047401C490008BFC9
:1008600020F0010010BC704710B5141E73F1000495
:1008700008DA401C41F1000192185B411A4301D192
:1008800020F0010010BD2DE9F04D92469B4611B1BC
:10089000B1FA81F202E0B0FA80F220329046FFF71E
:1008A0007BFF04460F4640EA0A0041EA0B0153462B
:1008B0005A46084313D0114653EA010019D0C8F133
:1008C00040025046FFF777FF05460E465046594610
:1008D0004246FFF761FF084305D0012004E02046AF
:1008E0003946BDE8F08D0020054346EAE0762C430A
:1008F00037430A986305E40AA0EB08000022FD0ACA
:1009000044EA47540A3002D500200146E9E70105D0
:1009100010196941DDE9084500196941BDE8F04D4C
:10092000A2E770B521F0004303430CD0C1F30A5590
:100930000024D5EB040564EB0403D617AD1AB341CC
:1009400002DB0020014670BD201841EB025170BD52
:100950002DE9F04D00231A461B1A8A4103DB0020C3
:100960000146BDE8F08DC1F30A52C1F3130141F411
:1009700080154FF0000BD10702D100186D41521EB7
:100980000027044640F2FF11384601EB620A3E465A
:100990008046024600204FF48011FFF70CFFC21979
:1009A0007141BB1846EB0100B4EB030C75EB000C76
:1009B00004D3E41A65EB000517460E46241908F126
:1009C00001006D4180463428E3DDF91946EB06004D
:1009D000091BA84103D24FF0FF32134601E0002269
:1009E00013461BEB070046EB0A51BDE8F04DFFF73D
:1009F0003BBF000030B5041E71F1000404DB4FF072
:100A00000044404264EB0101141E73F1000405DB55
:100A10001C464FF00043524263EB0403994208BF67
:100A2000904230BD064C074D06E0E06840F00103FF
:100A300094E8070098471034AC42F6D3FFF77CFBEC
:100A4000D8670008F867000870B58C1810F8015BCB
:100A500015F0070301D110F8013B2A1106D110F857
:100A6000012B03E010F8016B01F8016B5B1EF9D15B
:100A70002B0705D40023521E0DD401F8013BFAE7E1
:100A800010F8013BCB1A921C03E013F8015B01F84C
:100A9000015B521EF9D5A142D8D3002070BD21B10F
:100AA000826842F00102826003E0826822F0010263
:100AB000826070472DE9FF5FE62004F001F83249BB
:100AC0000868FFF730FE05460E4630498888FFF774
:100AD000A2FD4FF08B410090FFF7D7FB0190FFF78D
:100AE00022FE4FF066322A4BCDE90201FFF7B2FC3D
:100AF00007462A463346FFF7A7FC8246FFF726FE45
:100B0000044621462046FFF78EFB04462146214835
:100B10000068FFF730FB1F4908601F480088401C31
:100B20001D490880084600889A282ADD0020088090
:100B30001A4918480068FFF7A8FB164908600846DC
:100B40000068FFF7F0FD074605F07AFC0546FFF761
:100B5000FDFD814612494846FFF797FB07461149BC
:100B6000FFF761FB06460F49FFF75DFB0546FFF700
:100B70008EFD0D49088008460088232801DA0020F0
:100B80000880BDE8FF9F0000282500201C250020CC
:100B900066660A40200100201401002000001A436C
:100BA0000000844300007A442C01002021B18268B7
:100BB00042F48072826003E0826822F48072826074
:100BC0007047014600208A6802F004020AB1012041
:100BD00000E000207047014600208A6802F0080209
:100BE0000AB1012000E000207047000030B5024645
:100BF0000020002350680F4C20400D790C6844EA17
:100C000005242043506090680B4C2040D1E90254E9
:100C10002C434D7944EA450420439060D06A20F487
:100C200070000C7C641EE4B2234340EA0350D0629F
:100C300030BD0000FFFEF0FFFDF7F1FF2DE9F04FA2
:100C400089B06D49B1F82B00FFF7E5FC06906B49C0
:100C50000698FFF71AFB06904FF07E500699FFF7B3
:100C600014FB079066490798FFF7DDFA079007988D
:100C7000FFF7F4FC40000590FFF7D2FC8246614A82
:100C8000614BFFF759FC0746FFF760FD08905F498D
:100C90004868FFF748FDCDE904015D49C888FFF7C2
:100CA000BAFC4FF08B410090FFF7EFFA0190FFF78D
:100CB0003AFD07464FF06632564BFFF7CBFBCDE9C6
:100CC0000201DDE90423FFF7BFFB8246FFF73EFD8B
:100CD00004464E498868FFF726FD82468B464C49FC
:100CE0000889FFF798FC4FF08B410090FFF7CDFA91
:100CF0000190FFF718FD07464FF06632454BFFF7AE
:100D0000A9FB52465B46CDE90201FFF79DFBCDE909
:100D10000401FFF71BFD054629462846FFF783FA25
:100D2000054621462046FFF77EFA044621463A480A
:100D30000068FFF720FA38490860294637480068FC
:100D4000FFF719FA3549086035480088401C3449D6
:100D5000088008460088FFF75EFC07460899FFF701
:100D600011FD46D200202E4908802B4808990068C2
:100D7000FFF78BFA28490860284808990068FFF7B0
:100D800084FA2649086024480068FFF7CCFC07462F
:100D900005F056FB8246FFF7D9FC06461F4800685F
:100DA000FFF7C1FC824605F04BFB0746FFF7CEFC80
:100DB00081464846FFF7B7FC07461A4A1A4BFFF729
:100DC00049FB1A4A1A4BCDE90401FFF743FB82465F
:100DD000FFF790FC1749088017493046FFF755FA8E
:100DE00080461649FFF71FFA0746FFF750FC1449E3
:100DF000088009B0BDE8F08FCE0100200000C84295
:100E000000007A4423DBF97E6ABCD43F2825002009
:100E10001C25002066660A402401002028010020CD
:100E2000160100205C8FC2F5285C36409A9999998A
:100E300099B95940320100200000844300401C460B
:100E40002E010020F0B504460D4600200021092D9A
:100E500011DDE068A5F10A0606EB4607072606FA4B
:100E600007F18843A5F10A0606EB460603FA06F1E8
:100E70000843E0600CE0206905EB4507072606FA09
:100E800007F1884305EB450603FA06F108432061A4
:100E9000072A0FDA606B561E06EB86071F2606FA36
:100EA00007F18843561E06EB860605FA06F108434D
:100EB000606322E00D2A0FDA206BD61F06EB86074F
:100EC0001F2606FA07F18843D61F06EB860605FAA9
:100ED00006F10843206310E0E06AA2F10D0606EB7C
:100EE00086071F2606FA07F18843A2F10D0606EBD6
:100EF000860605FA06F10843E062F0BD816841F01C
:100F000008018160704721B1826842F4A0028260CA
:100F100003E0826822F4A00282607047816841F099
:100F2000040181607047000008B50121102002F023
:100F3000A7FA1E20ADF8000000208DF803006946D6
:100F4000094801F00FFB6946084801F00BFB6946B0
:100F5000074801F007FB6946054801F003FB6946B5
:100F6000034801F0FFFA08BD00080140000C0140F1
:100F70000010014010B5FFF7D7FF00F001F810BDD9
:100F800000B591B00121084602F05AFA0121480249
:100F900002F076FA414800F045FB4148069041488E
:100FA0000790002008900520099000200A908020DA
:100FB0000B9040000C9080000D9020200E900002BD
:100FC0000F900020109006A9344800F0D1FB0121B9
:100FD000324800F01BFB0020019001208DF8080032
:100FE0008DF809004FF46020039000200490052044
:100FF0008DF8140001A92A484C38FFF7F7FD4FF48B
:10100000404002F011FA05230122042124484C3803
:10101000FFF718FF05230222092121484C38FFF76A
:1010200011FF052303220C211D484C38FFF70AFF4E
:10103000052304220D211A484C38FFF703FF05232E
:101040001A460E2116484C38FFF7FCFE01211448C1
:101050004C38FFF7ABFD012111484C38FFF71FFD5D
:101060000F484C38FFF74AFF00BF0D484C38FFF7D8
:10107000B2FD0028F9D10A484C38FFF74FFF00BFF6
:1010800007484C38FFF79DFD0028F9D1012104489D
:101090004C38FFF738FF11B000BD000008000240D7
:1010A0004C2401401C25002038B56946012003F07E
:1010B000B1FF002862D000205249086052480078F1
:1010C00020B101281CD0022857D142E09DF8000031
:1010D00002280FD19DF800104C4802780078401C7F
:1010E0004A4B18704A48815447480078401C46498A
:1010F000087004E0002045490870434908703CE04E
:101100009DF8000003280FD19DF800103F48027899
:101110000078401C3D4B18703D4881543A48007897
:10112000401C3949087013E09DF8000006280AD1D8
:101130009DF80010354802780078401C334B187039
:101140003348815404E00020304908702E4908706B
:1011500013E09DF800202D4801780078401C2B4BAF
:1011600018702B4842548078401D194609788842EF
:1011700002D101202749087000BF00BF2548007830
:1011800001283ED12449087000240020234908701A
:10119000204908701D480078811E1D4800F090F914
:1011A00004461A480078401E1949095C174800781F
:1011B000801E174A105C41EA0020A04210D1002096
:1011C00012490870104908701046007F1146C97E08
:1011D00040EA0125012D02D1002502F0A3FB0FE01A
:1011E000002004E000210A4A1154411CC8B20749FA
:1011F00009788842F6DB002003490870034908702B
:1012000000BF38BD04010020AA000020AB00002070
:101210000C030020AD000020AF000020AC00002037
:1012200000BFFEE72DE9F04F87B0044600250020FF
:101230000690052C02DB07B0BDE8F08F04EB4400FC
:101240002C4931F8305004EB440001EBC0004688D3
:1012500004EB440001EBC000878804EB440001EB81
:10126000C000B0F8068004EB440001EBC000B0F809
:10127000089004EB440001EBC000B0F80AA004EBB6
:10128000440001EBC0008089069004EB440001EBB0
:10129000C000C089059004EB440001EBC000008A47
:1012A000049004EB440001EBC000408A039004EB7F
:1012B000440001EBC000808A029004EB440001EB83
:1012C000C000B0F816B03DB143463A463146284614
:1012D000CDE9009A02F072F9069840B10298CDE982
:1012E000000BDDE90332DDE9051002F067F900BF0C
:1012F000A1E700008E6600082DE9F04F89B0044692
:101300000D460026002704EB4400334931F83060D5
:1013100004EB440001EBC0004088089004EB44005B
:1013200001EBC0008088079004EB440001EBC00093
:10133000C088069004EB440001EBC00000890590D2
:1013400015B14FF4787005E004EB4400224901EB3D
:10135000C0004089049004EB44001F4901EBC00029
:10136000878904EB440001EBC000B0F80E8004EB69
:10137000440001EBC000B0F8109004EB440001EB16
:10138000C000B0F812A004EB440001EBC000B0F8BC
:1013900014B02DB104EB440001EBC000C08A01E0A1
:1013A0004FF4787003904EB1DDE90410CDE90001EF
:1013B0003046DDE90632089902F000F947B103989A
:1013C00053464A464146CDE900B0384602F0F6F8A9
:1013D00009B0BDE8F08F00008E6600082DE9F04FDF
:1013E00089B004460D460026002704EB440033492B
:1013F00031F8306004EB440001EBC00040880890F5
:1014000004EB440001EBC0008088079004EB44002B
:1014100001EBC000C088069004EB440001EBC00063
:101420000089059015B14FF4784005E004EB4400C5
:10143000224901EBC0004089049004EB44001F499D
:1014400001EBC000878904EB440001EBC000B0F859
:101450000E8004EB440001EBC000B0F8109004EBE8
:10146000440001EBC000B0F812A004EB440001EB13
:10147000C000B0F814B02DB104EB440001EBC00083
:10148000C08A01E04FF4784003904EB1DDE90410CA
:10149000CDE900013046DDE90632089902F08EF808
:1014A00047B1039853464A464146CDE900B0384615
:1014B00002F084F809B0BDE8F08F00008E660008E5
:1014C00070B502460C46FF25FF2309E012F8010B18
:1014D00080EA05010648405C80EA03050548435C54
:1014E000201EA4F10104F1D143EA052070BD0000E3
:1014F0008C6400088C65000810B502460B4600207D
:10150000002104E0545C0444A0B24C1CA1B29942F6
:10151000F8DB10BD10B5044600200A4908700A48DF
:101520000480012009490870AA20094908704C70FC
:10153000E0B2001288705520C8700422104603F0F3
:1015400078FD10BD4C000020A8000020A70000205E
:1015500096000020014609B909487047012901D1C8
:101560000848FAE7022901D10748F6E7032901D123
:101570000020F2E7042901D10448EEE70020ECE75F
:10158000D4030020FC0B0020241400204C1C00205D
:1015900008B525208DF8000001208DF801000020FD
:1015A0008DF8020001208DF80300684601F0C8FEA6
:1015B00026208DF8000001208DF8010000208DF814
:1015C000020001208DF80300684601F0B9FE2720D3
:1015D0008DF8000001208DF8010000208DF8020038
:1015E00001208DF80300684601F0AAFE35208DF831
:1015F000000001208DF8010000208DF8020001207C
:101600008DF80300684601F09BFE08BD21B1026819
:1016100042F00102026004E002684FF6FE731A40D5
:101620000260704701684FF6FE72114001600021B0
:10163000016041608160C1604B49884208D14A49DC
:101640000839496841F00F01474A083A51608AE079
:1016500045491431884208D143490839496841F065
:10166000F001414A083A51607DE03F492831884203
:1016700008D13D490839496841F470613A4A083A4D
:10168000516070E038493C31884208D13649083908
:10169000496841F47041344A083A516063E0324984
:1016A0005031884208D130490839496841F47021E5
:1016B0002D4A083A516056E02B496431884208D1DE
:1016C00029490839496841F47001274A083A5160AC
:1016D00049E025497831884208D1234908394968C9
:1016E00041F07061204A083A51603CE01F4988424D
:1016F00006D1011F096841F00F01021F116032E09D
:101700001A491431884208D11849091F096841F063
:10171000F001164A121F116025E014492831884251
:1017200008D11249091F096841F470610F4A121F5C
:10173000116018E00D493C31884208D10B49091F5E
:10174000096841F47041094A121F11600BE0074912
:101750005031884207D10549091F096841F47021B9
:10176000024A121F1160704708000240080402403C
:1017700010B50022026847F6F0739A430C6A8B6832
:1017800023430C6923434C6923438C692343CC696D
:1017900023434C6A23438C6A23431A430260CB6879
:1017A00043600B6883604B68C36010BD10B50024B4
:1017B00002222146641C1D48425403222146641C17
:1017C000425423222146641C425400222146641CB8
:1017D00042542146641C425411222146641C425446
:1017E0000621FFF76DFE02122146641C0F48425489
:1017F0000621FFF765FEC2B22046611CCCB20B4940
:101800000A542246012003F014FC00200849087005
:1018100000BF04E00021054A1154411CC8B2A04297
:10182000F8DB01200349087010BD000070030020A0
:10183000E4000020AC0000207047000038B5694685
:10184000042003F0E7FB00284AD00020E9490860A3
:10185000E9490860E94908709DF80000AA2814D1F8
:10186000E748007888B90020E64908700120E4497B
:1018700008709DF80000E449E24A12788854E14873
:101880000078401CDF4908702AE0DD480078012814
:1018900026D19DF80010DB4802780078401CD94B17
:1018A0001870D948815418460078232818DB9DF811
:1018B0000000552803D10120D449087010E0002011
:1018C000CF49087000BF04E00021CF4A1154411CE9
:1018D000C8B2CC4909788842F6DB0020C9490870B3
:1018E000C4480068B0F5967F26D3C948007801281F
:1018F00022D10020BF490860C6480068401CC54985
:101900000860C548007801280FD0C4480078012835
:101910000BD0C3480078012807D0C24800780128BE
:1019200003D0C1480078012806D10020BF490870C3
:10193000BF48007801F0AAFBAF480068B0F57A7F95
:101940000BD30020AC49086000BF04E00021AE4A80
:101950001154411CC8B22328F8DBAC480078012898
:101960007BD10020A64908700120B24908700024EC
:101970000020A6490870A3480078801E81B2A248C2
:10198000FFF7BAFD5530C4B29E480078801E9E49CC
:10199000085CA0427ED1A848007800280ADD0846ED
:1019A0004078A5490978401A082803DBA248007846
:1019B00095494870944840789F490870002005E098
:1019C0009149095C9D4A1154411CC8B22328F7DB98
:1019D0008C4800780A388C49085C99490870994805
:1019E00000780978884218D095480078082807D1EF
:1019F00093480078092803D1914800780A280CD030
:101A000091480078022808DA8E480078FFF782FDB6
:101A10008D480078401C8C4908708C48007820B9AB
:101A20008748007801F01CFA03E08548007800F050
:101A30002FFA83480078062810D185480068B0F551
:101A40007A7F06D90020824908608249086082496D
:101A500008600120814908707DE0CAE0784800787C
:101A6000072803D100207D49087074E0744800788D
:101A7000082831D17A480078401C794908707948A3
:101A80000078401C7749087008460078802806DDF9
:101A9000084600E099E000784042714908707048BB
:101AA00000782A2857D100206D4908706D490870C8
:101AB0006D480078401C6C4908706C480078401CE8
:101AC0006A49087008460078802844DD0846007896
:101AD0004042654908703EE0594800780A282FD1F5
:101AE0005F480078401E5E4908705E480078401EDE
:101AF0005C49087008460078802804DD08460078B4
:101B0000404257490870564800782A2823D10020BF
:101B1000534908705349087053480078401E524991
:101B2000087052480078401E5049087008460078F6
:101B3000802810DD0846007840424B4908700AE0D2
:101B40003F480078022803D03D480078032802D19E
:101B500001204749087047480078012832D146489B
:101B60000088022827D044480088032823D0424810
:101B7000008804281FD04048008805281BD03E4814
:101B80000088062817D03C480088072813D03A4818
:101B9000008808280FD03848008809280BD036481C
:101BA00000880A2807D0344800880B2803D0324820
:101BB00000880C2806D13049087800F061F804F05C
:101BC000C1F915E004F0BEF912E02C480088401C71
:101BD0002A490880002004E000210B4A1154411CCE
:101BE000C8B2084909788842F6DB00200549087028
:101BF00000BF38BDEC000020F8000020920000205B
:101C0000940000207E000020790100208100002047
:101C10000C010020280000203000002032000020AD
:101C20002F0000203300002031000020A7000020FA
:101C30002C0000208F0000208C000020AB01002031
:101C4000830000207C000020950000209C000020E4
:101C500000010020E8000020E0000020D800002063
:101C60008D0000208E0000208000002090000020C9
:101C7000820000209A0000204800002086000020FA
:101C800010B504467148008806280BD10020704921
:101C9000087001206F4908706F48007840F0040018
:101CA0006D4908706948008807280BD100206849F1
:101CB00008700120694908706748007820F0040026
:101CC000654908706148008804280FD100206049E8
:101CD000087001206249087062480078012805D127
:101CE0005D48007840F002005B4908705748008862
:101CF00005280FD100205649087001205A49087064
:101D000058480078012805D15348007820F0020097
:101D1000514908704D480088022817D100204C49CD
:101D2000087001205149087051480078012802D1FB
:101D30005049087004E0012142F2113001F0D0FE58
:101D40004548007840F00100434908703F4800884A
:101D5000032817D100203E49087001204649087029
:101D600043480078012802D14249087004E000216C
:101D700042F2113001F0B4FE3748007820F0010043
:101D800035490870314800880B280BD100203049B4
:101D900008700120394908702F48007840F0080089
:101DA0002D490870294800880C280BD100202849AB
:101DB00008700120324908702748007820F0080098
:101DC0002549087021480088082810D100202049A2
:101DD000087001202B4908701F48007840F010005F
:101DE0001D4908700846007820F020000870174848
:101DF0000088092810D100201549087001202249C7
:101E000008701548007820F0100013490870084643
:101E1000007820F0200008700C4800880A2810D1B3
:101E200000200B4908700120184908700A48007802
:101E300040F02000084908700846007820F01000A3
:101E4000087000200149088010BD000048000020F3
:101E5000950000203C0000202C0000203D000020C8
:101E60003E000020D80000203F000020400000205D
:101E7000AC0000202D000020410000204200002086
:101E800043000020440000204600002045000020C0
:101E9000811E0B2975D2DFE801F02E381A240610B6
:101EA000566575424C0000213F4A11703F49098830
:101EB00041F004013D4A118074E000213A4A11705A
:101EC0003A49098821F00401384A11806AE000216A
:101ED000354A11703549098841F00201334A1180B1
:101EE00060E00021304A11703049098821F0020178
:101EF0002E4A118056E000212B4A11702B49098887
:101F000041F00101294A11804CE00021264A11705C
:101F10002649098821F00101244A118042E000216C
:101F2000214A11702149098841F008011F4A118096
:101F300038E000211C4A11701C49098821F0080171
:101F40001A4A11802EE00021174A1170174909889A
:101F500041F01001154A11801146098821F0200135
:101F600011801FE00021104A11701049098821F0EA
:101F700010010E4A11801146098821F020011180BC
:101F800010E00EE00021084A11700849098841F06C
:101F90002001064A11801146098821F010011180A4
:101FA00000E000BF00BF7047A70000204A000020EB
:101FB00008B56946002003F02DF8002854D03F48AA
:101FC000007800BB9DF80000502818D19DF8001043
:101FD0003B4802880088401C394B1880394881549E
:101FE00039480078401C38490870084600780428B1
:101FF0003ADB0020087001203049087034E00020EE
:102000003149087030E09DF800102D4802880088A2
:10201000401C2B4B18802B4881541846008864289C
:1020200006DB0020194608802749087023490870FC
:102030002448C0790C3022490988884214D12148AB
:10204000C07938B900201E4908801F4908701B4913
:10205000087009E001201D49087000201749087028
:10206000174908801849087018480078012823D1BA
:102070000020164908701348007B4FF47F4101EAA5
:1020800000201049497B084411490880084600880F
:102090001049088008460088F02804D101200E4924
:1020A00008700E4908700B480088F52804D10020FC
:1020B000094908700949087008BD0000A000002007
:1020C0009E00002027020020A10000209D0000208B
:1020D00048000020A20000209C0000209A00002060
:1020E0002DE9FC5F05464FF40061414800F017FB05
:1020F00005F0080020B120213E4800F012FB03E06B
:1021000020213C4800F00BFB05F0040020B1102119
:10211000384800F006FB03E01021364800F0FFFAD3
:1021200005F0020020B10821324800F0FAFA03E07D
:102130000821304800F0F3FA05F0010020B1042135
:102140002C4800F0EEFA03E004212A4800F0E7FAF8
:102150000121284800F0E3FA4FF48051244800F0B0
:10216000D5FA06464FF48061234800F0CFFA0746BF
:102170004FF40061204800F0C9FA804608211F484A
:1021800000F0C4FA814640211C4800F0BFFA8246A4
:1021900020211B4800F0BAFA83464FF4807118489A
:1021A00000F0B4FA01904FF40071154800F0AEFA57
:1021B000009001210F4800F0B4FA0098C007040E07
:1021C000019804EB8010C4B204EB4B10C4B204EBD2
:1021D0000A10C4B204EBC900C4B204EB8800C4B254
:1021E00004EB4700C4B2A019C4B22046BDE8FC9F6E
:1021F0000008014000180140001001400014014097
:10220000000C014038B505460C464FF44870ADF857
:10221000000010208DF8030003208DF802006946AD
:102220008B4800F09FF97D20ADF8000010208DF85C
:10223000030003208DF802006946864800F092F9F9
:102240004820ADF8000010208DF8030003208DF821
:1022500002006946804800F085F94FF44060ADF80F
:10226000000010208DF8030003208DF8020069465D
:102270007A4800F077F94FF48050ADF80000102054
:102280008DF8030003208DF802006946744800F0C1
:1022900069F94FF40061724800F043FA05F0080054
:1022A00020B120216B4800F03CFA03E0202169486E
:1022B00000F035FA05F0040020B11021654800F067
:1022C00030FA03E01021634800F029FA05F002001B
:1022D00020B108215F4800F024FA03E008215D489E
:1022E00000F01DFA05F0010020B10421594800F06A
:1022F00018FA03E00421574800F011FA04F08000B6
:1023000028B14FF40071524800F00BFA04E04FF48A
:1023100000714F4800F003FA04F0400028B14FF478
:1023200080714B4800F0FDF904E04FF4807148489B
:1023300000F0F5F904F0200020B12021444800F01D
:10234000F0F903E02021424800F0E9F904F0100020
:1023500020B14021404800F0E4F903E040213E482C
:1023600000F0DDF904F0080020B108213A4800F03F
:10237000D8F903E00821384800F0D1F904F004004E
:1023800028B14FF40061354800F0CBF904E04FF478
:102390000061324800F0C3F904F0020028B14FF4A4
:1023A00080612E4800F0BDF904E04FF480612B48B5
:1023B00000F0B5F904F0010028B14FF4805128482D
:1023C00000F0AFF904E04FF48051254800F0A7F980
:1023D0000121204800F0A3F901211E4800F0A1F9D5
:1023E0004FF44870ADF8000004208DF8030003207E
:1023F0008DF802006946164800F0B4F84820ADF8A0
:10240000000004208DF8030003208DF802006946C7
:10241000114800F0A7F84FF44060ADF80000042028
:102420008DF8030003208DF8020069460B4800F088
:1024300099F84FF48050ADF8000004208DF80300A7
:1024400003208DF802006946054800F08BF838BD7E
:10245000000C014000180140001401400010014030
:102460000008014008B54FF40060ADF800001020EE
:102470008DF8030003208DF802006946344800F00F
:1024800071F87D20ADF8000010208DF803000320C6
:102490008DF8020069462F4800F064F84FF4805030
:1024A000ADF8000048208DF803006946284800F088
:1024B00059F84FF44870ADF8000048208DF803003B
:1024C0006946254800F04EF84FF44050ADF8000042
:1024D00003208DF8020010208DF8030069461E4885
:1024E00000F040F869461C4800F03CF84FF44060AA
:1024F000ADF8000048208DF803006946174800F049
:1025000031F84820ADF800008DF803006946144802
:1025100000F028F801210F4800F003F94FF4407053
:10252000ADF8000010208DF8030003208DF80200A4
:1025300069460A4800F016F84FF48071074800F029
:10254000F0F84FF40071054800F0EBF808BD00000A
:102550000008014000180140000C0140001001403B
:10256000001401402DE9F04102460025002600201C
:1025700000230024002791F803C00CF00F0591F808
:1025800003C00CF0100CBCF1000F03D091F802C096
:102590004CEA050591F800C0BCF1000F31D0146879
:1025A00000202BE04FF0010C0CFA00F3B1F800C052
:1025B0000CEA03069E4220D183004FF00F0C0CFA68
:1025C00003F7BC4305FA03FC4CEA040491F803C08A
:1025D000BCF1280F06D14FF0010C0CFA00FCC2F838
:1025E00014C00AE091F803C0BCF1480F05D14FF0C8
:1025F000010C0CFA00FCC2F810C0401C0828D1D312
:102600001460B1F800C0BCF1FF0F34DD5468002045
:102610002EE000F1080C4FF0010808FA0CF3B1F8B5
:1026200000C00CEA03069E4221D183004FF00F0C3C
:102630000CFA03F7BC4305FA03FC4CEA040491F8D6
:1026400003C0BCF1280F05D100F1080C08FA0CF802
:10265000C2F8148091F803C0BCF1480F07D100F113
:10266000080C4FF0010808FA0CF8C2F81080401C62
:102670000828CED35460BDE8F0810000F0B50A46CA
:10268000002300240021002500F00046B6F1004F91
:1026900002D11D4EF16901E01B4E7168C0F3034584
:1026A00083B200F44016B6F5401F08D121F07061E6
:1026B000154E766826F07066134F7E6012E000F4C7
:1026C0008016B6F5801F06D1032606FA05F4A1434D
:1026D00041F0706106E0460D360103FA06F6B1439B
:1026E00041F0706122B1460D360103FA06F631431E
:1026F00000F00046B6F1004F02D1034EF16101E057
:10270000014E7160F0BD0000000001400246002053
:1027100093680B400BB1012000E00020704741613D
:10272000704701617047000010B5002002F08CF97D
:1027300060B100F02FFD0849B1F80F0002F01CF85D
:1027400001F042FC03F0D2FCFFF730F8FEF7B2F9DB
:10275000FEF774FA10BD0000CE01002009A1002090
:102760000CE00A5C124B1A8000BF114A121F12883B
:1027700002F04002002AF8D0421CD0B22A28F0D33E
:1027800000BFFEE70D0A456E7465722048617264F1
:102790004661756C745F48616E646C65722C205381
:1027A000797374656D2048616C742E0D0A00000009
:1027B0000438014000B585B00121052000F060FE1D
:1027C0000121880300F05CFE4FF40070ADF81000AA
:1027D00018208DF8130003208DF8120004A97D48FD
:1027E000FFF7C0FE4FF48060ADF8100004208DF8B4
:1027F000130004A97748FFF7B5FE4FF4E1300090CD
:102800000020ADF80400ADF80600ADF80800ADF802
:102810000C000C20ADF80A0069466F4801F0D2FDAB
:10282000012240F225516C4801F0A7FD01216A48C0
:1028300001F06DFD4021684801F060FD0121052097
:1028400000F01EFE0121480400F00AFE0420ADF84D
:10285000100018208DF8130003208DF8120004A931
:102860005C48FFF77FFE0820ADF8100004208DF8CB
:10287000130004A95748FFF775FE4FF41650009057
:102880000020ADF80400ADF80600ADF80800ADF882
:102890000C000C20ADF80A006946504801F092FD8A
:1028A000012240F225514D4801F067FD01214B48BE
:1028B00001F02DFD4021494801F020FD012121209A
:1028C00000F0DEFD0121880400F0CAFD012144482A
:1028D000FFF7D4FE4FF48070ADF8100018208DF88B
:1028E000130003208DF8120004A93E48FFF73AFEBA
:1028F0004FF40070ADF8100004208DF8130004A907
:102900003848FFF72FFE04A93648FFF72BFE4FF497
:10291000E13000900020ADF80400ADF80600ADF8FD
:102920000800ADF80C000C20ADF80A0069462E48EE
:1029300001F048FD012240F225512B4801F01DFD18
:102940000121294801F0E3FC4021274801F0D6FC91
:102950000121312000F094FD0121080500F080FDE7
:102960004FF48050ADF8100018208DF813000320AC
:102970008DF8120004A91D48FFF7F4FD0420ADF8FE
:1029800010008DF8130004A91648FFF7EBFD4FF473
:10299000964000900020ADF80400ADF80600ADF8B8
:1029A0000800ADF80C000C20ADF80A00694610488C
:1029B00001F008FD012240F225510D4801F0DDFC37
:1029C00001210B4801F0A3FC4021094801F096FCCD
:1029D00005B000BD0008014000380140004400403F
:1029E0003000140000140140004800400010014075
:1029F000005000402DE9FC5F002400250026A14680
:102A00000FE02D48808804442B48C08805442A489C
:102A100000890644642002F053F809F101001FFA0E
:102A200080F9B9F5007FECDB640A6D0A760A20466E
:102A3000FDF7F1FD4FF08B410090FDF726FC019072
:102A4000FDF771FE82464FF066321C4BFDF702FD2A
:102A50000746FDF77BFE1A4908602846FDF7DBFDB7
:102A600083464FF08B41FDF710FC8246FDF75BFE7D
:102A70004FF06632114BCDE90001FDF7EBFC074644
:102A8000FDF764FE0E4948603046FDF7C4FD4FF087
:102A90008B410090FDF7F9FB0190FDF744FE0746DE
:102AA0004FF06632054BFDF7D5FC8246FDF74EFE32
:102AB00003498860BDE8FC9F1C25002066660A402B
:102AC000282500200448006800F4006008B10120B7
:102AD00070470020FCE70000081801400448006827
:102AE00000F4806008B1012070470020FCE700007E
:102AF000081801400448006800F4007008B1012083
:102B000070470020FCE700000818014004480068F6
:102B100000F4804008B1002070470120FCE700006D
:102B2000081801400448006800F4005008B1002073
:102B300070470120FCE700000818014004480068C5
:102B400000F4805008B1002070470120FCE700002D
:102B50000818014010B50446132C75D2DFE804F0C4
:102B6000740A23743858747FA074C1D67474EEEF5D
:102B700074ECEB000020A4490870A4490870A44933
:102B800008700120A3490870A3490870A348007881
:102B900040F00400A14908704FF4FC6201210220BA
:102BA00002F06AFB2EE100209749087001209C4941
:102BB0000870984908709948007820F004009749F7
:102BC00008704FF4FC620021022002F055FB19E16D
:102BD00000208D4908700120924908708B490870C7
:102BE0009148007801280CD18C48007840F0020010
:102BF0008A4908704FF4FC620121032002F03CFB7B
:102C000005E04FF47F420121032002F035FBF9E09B
:102C100000207D4908700120824908707C490870B5
:102C200081480078012810D17C48007820F002000B
:102C30007A4908704FF4FC620021032002F01CFB6B
:102C400001207A49087009E0DBE04FF47F4200215F
:102C5000032002F011FB002074490870D2E000202C
:102C600069490870012072490870724908707248F9
:102C70000078012802D17149087004E0012142F274
:102C8000113000F02DFF6548007840F001006349E5
:102C900008704FF4FC620121042002F0EDFAB1E06B
:102CA0000020594908700120654908706149087081
:102CB00061480078012802D16049087004E00021D1
:102CC00042F2113000F00CFF5448007820F001006F
:102CD000524908704FF4FC620021042002F0CCFA43
:102CE00090E0002048490870012056490870564974
:102CF00008704A48007840F00800484908704FF4CE
:102D0000FC620121002002F0B7FA7BE000203E497E
:102D1000087001204D4908704B4908703F48007801
:102D200020F008003D4908704FF4FC62002108467D
:102D300002F0A2FA66E033E04CE000E019E0002087
:102D400031490870012042490870424908703348EF
:102D5000007840F01000314908700846007820F0F3
:102D6000200008704FF4FC620121084602F084FA4A
:102D700048E000202449087001203749087035498F
:102D800008702648007820F0100024490870084692
:102D9000007820F0200008700120FEF743FA31E0AF
:102DA00000201949087001202C4908702949087031
:102DB0001A48007840F0200018490870084600784A
:102DC00020F0100008704FF4FC620021012002F096
:102DD00053FA17E000200C49087001201E490870C2
:102DE0001C4908700D48007820F010000B4908704D
:102DF0000846007820F0200008700120FEF712FA43
:102E000000E000BF00BF10BD950000203E00002084
:102E10003F0000202F0000203C0000202C0000205C
:102E20003D00002032000020D800002034000020A7
:102E30004000002030000020AC0000202D000020C9
:102E40004100002042000020330000204300002009
:102E500044000020310000204600002045000020F2
:102E600010B50446A01E0B2876D2DFE800F03E4CD9
:102E70002230061476899B5A670000207F4908702B
:102E800001210220FEF738FA7D48008840F0040056
:102E90007B490880F0E0002078490870002102207A
:102EA000FEF72AFA7648008820F00400744908806A
:102EB000E2E000207149087001210320FEF71CFAAE
:102EC0006F48008840F002006D490880D4E000207F
:102ED0006A49087000210320FEF70EFA684800884E
:102EE00020F0020066490880C6E0002063490870AF
:102EF00001210420FEF700FA6148008840F001003B
:102F00005F490880B8E000205C4908700021042077
:102F1000FEF7F2F95A48008820F00100584908806D
:102F2000AAE00020554908700121FEF7E5F9544850
:102F3000008840F00800524908809DE000204F4979
:102F4000087000210846FEF7D7F94D48008820F0A8
:102F500008004B4908808FE037E00020474908709F
:102F600001210846FEF7C8F94548008840F01000E6
:102F7000434908800846008820F0200008807BE054
:102F800000203E4908700120FEF74CF93C480088BB
:102F900020F010003A4908800846008820F0200000
:102FA000088069E000203549087000210120FEF703
:102FB000A3F93348008840F02000314908800846D2
:102FC000008820F01000088056E02C480078012886
:102FD00051D12C480078401C2A49087008460078D6
:102FE000012848DD00200870244908702648008820
:102FF000801E0B283DD2DFE800F01A1F1015060BCB
:103000002E333724290001210220FEF7E7F931E0B1
:1030100000210220FEF7E2F92CE001210320FEF757
:10302000DDF927E000210320FEF7D8F922E0012195
:103030000420FEF7D3F91DE000210420FEF7CEF9AD
:1030400018E001210020FEF7C9F913E0002108462D
:10305000FEF7C4F90EE001210846FEF7BFF909E0CA
:103060000120FEF7DFF805E000210120FEF7B6F9A8
:1030700000E000BF00BF00BF00BF10BDA7000020E0
:103080004A0000204C000020A800002010B5044693
:103090003A48007801280ED100203849087004F021
:1030A000010020B101210420FEF798F903E000217E
:1030B0000420FEF793F932480078012813D13148F3
:1030C000007801280FD100202D49087004F002007B
:1030D000022804D101210320FEF780F903E000213A
:1030E0000320FEF77BF92848007801280FD1002043
:1030F0002549087004F00400042804D101210220AD
:10310000FEF76CF903E000210220FEF767F91F4883
:10311000007801280FD100201C49087004F0080035
:10312000082804D101210020FEF758F903E000210E
:103130000846FEF753F91648007801281DD10020F3
:103140001349087004F01000102807D104F0200083
:1031500020B901210846FEF741F90EE004F02000F5
:10316000202807D104F0100020B900210120FEF72B
:1031700035F902E00120FEF755F810BD30000020BF
:1031800032000020340000202F00002033000020F7
:103190003100002010B55F48817E4FF4016000F0DF
:1031A00063FA5C48017E4FF4056000F05DFA59480F
:1031B000017F4FF4046000F057FA5648C17E4FF487
:1031C000036000F051FA5348417E4FF4AE6000F0C6
:1031D0004BFA5048817B4FF4026000F045FA4D48AD
:1031E000B0F833000A2190FBF1F084B221464FF48D
:1031F000405000F039FA4748C18A4FF4C46000F0EB
:1032000033FA4448B0F811104FF4C66000F02CFABD
:103210004048B0F81F104FF4F26000F025FA3D4826
:10322000B0F81D104FF4B26000F01EFA3948B0F843
:1032300021104FF4C06000F017FA3648417D4FF47A
:10324000CE6000F011FA3348818C4FF4CC6000F06E
:103250000BFA304890F823104FF4006000F004FAA5
:103260002C48B0F80F104FF4B06000F0FDF9294879
:10327000B0F813104FF4CA6000F0F6F92648018840
:103280004FF4A26000F0F0F9244801884FF4A460E4
:1032900000F0EAF9224801784FF4887000F0E4F970
:1032A000204801884FF6D07000F0DEF91E480188F2
:1032B0004FF6E07000F0D8F91C4801884FF4147004
:1032C00000F0D2F91A4800880A2190FBF1F084B28C
:1032D00021464FF4066000F0C7F90E48B0F82B0005
:1032E000642190FBF1F084B221464FF47F4000F05E
:1032F000BBF90848B0F843104FF4907000F0B4F9EF
:103300000C48006802F00AF902F0B6F802F0A6F8DC
:1033100010BD0000CE010020860000202800002003
:1033200080000020780000207A0000202E0100207C
:103330002C010020E000002000BFFEE770470000E5
:1033400070B5002100230F22C47804B3154C246803
:1033500004F4E064C4F5E064210AC1F10403CA4046
:10336000447804FA03F184781440214309010E4C97
:103370000678A155047804F01F050124AC400578B7
:103380006D11AD0005F1E025C5F8004109E00478B4
:1033900004F01F050124AC40044D0678761145F871
:1033A000264070BD0CED00E000E400E080E100E0AC
:1033B00002490143024A1160704700000000FA050B
:1033C0000CED00E0704700002DE9F04781464C46C7
:1033D000C4F30721002001F043FEE1B2002001F018
:1033E0003FFE41F2883044434FF6FF7094FBF0F407
:1033F000E1B2002001F034FEE11704EB91718C1072
:103400002046FDF70DF90746054A064BFDF794F8EF
:103410000546FDF750F90446A0B2BDE8F08700006C
:103420008716D9CEF753EE3F01460020034A506875
:1034300020F44040084350607047000000100240F4
:1034400029B1064A52690243044B5A6104E0034A17
:1034500052698243014B5A617047000000100240DC
:1034600029B1064AD2690243044BDA6104E0034AF7
:10347000D2698243014BDA617047000000100240BC
:1034800029B1064A92690243044B9A6104E0034A57
:1034900092698243014B9A6170470000001002401C
:1034A00030B500210022002400232D4D6D6805F069
:1034B0000C0121B1042905D0082923D105E0294DAB
:1034C000056022E0274D05601FE0254D6D6805F47D
:1034D0007012234D6D6805F48034022505EB92428D
:1034E0001CB9214D554305600BE01D4D6D6805F479
:1034F00000351DB11C4D5543056002E0194D554383
:10350000056002E0174D056000BF00BF144D6D68F7
:1035100005F0F0010909154D6B5C0568DD4045605B
:103520000F4D6D6805F4E061090A104D6B5C45684C
:10353000DD4085600A4D6D6805F46051C90A0B4D88
:103540006B5C4568DD40C560054D6D6805F4404124
:10355000890B074D6B5CC568B5FBF3F5056130BDA4
:103560000010024000127A0000093D001400002003
:103570002400002008B501210420FFF781FF03206B
:103580008DF8020010208DF803000220ADF8000035
:1035900069460248FEF7E6FF08BD0000000801404A
:1035A0007047000002200149086070471008014080
:1035B0000220014908607047140801402DE9F047D6
:1035C0009AB004460D4616461F46DDE922894FF0A3
:1035D000110A244800788DF80400224840788DF8BC
:1035E00005008DF806A082208DF8070020128DF8C6
:1035F0000800E0B28DF8090000208DF80A000420D0
:103600008DF80B0000208DF80C0001208DF80D00C6
:1036100028128DF80E00E8B28DF80F0030128DF8E8
:103620001000F0B28DF8110038128DF81200F8B2C7
:103630008DF813004FEA28208DF8140008F0FF00E1
:103640008DF815004FEA29208DF8160009F0FF00CB
:103650008DF81700142201A9022001F0EAFC1AB02B
:10366000BDE8F0878C660008F0B599B006460D46B7
:10367000B5F5803F01DB4FF6FF75002405271C4898
:1036800002782146641C0DF8012042782146641C12
:103690000DF801202146641C0DF80170822221469C
:1036A000641C0DF8012032122146641C0DF8012023
:1036B000F2B22146641C0DF801202A122146641C36
:1036C0000DF80120EAB22046611CCCB20DF80020B2
:1036D00022466946022001F0ACFC002004E00021F3
:1036E0000DF80010411CC8B2A042F8DB19B0F0BDC3
:1036F0008C6600082DE9F047B2B080460E46914630
:103700009A46324800788DF86400304840788DF849
:1037100065001EB9002032B0BDE8F0873046FCF7E6
:1037200023FDC7B20FB1462F01DD0020F3E7822051
:103730008DF867004FEA28208DF8680008F0FF0038
:103740008DF86900002505E0715DA81D19AA1154C6
:10375000681CC5B2BD42F7DB681DC4B21B480078C7
:103760008DF80000194840788DF8010005208DF88B
:10377000020082208DF8030009F10300000A8DF891
:10378000040009F10300C0B28DF805004FEA2A20B9
:103790008DF806000AF0FF008DF807000822694640
:1037A000022001F046FCE01C64280CDC8DF8664029
:1037B000FF21601C19AA1154A01C1154E21C19A964
:1037C000022001F036FC0020A5E700008C6600080E
:1037D0001CB500214FF40160FFF746FF00214FF4B4
:1037E0000560FFF741FF00214FF40460FFF73CFF45
:1037F00000214FF40360FFF737FF00214FF4AE6064
:10380000FFF732FF00214FF40260FFF72DFF002188
:103810004FF4C460FFF728FF00214FF4C660FFF7A4
:1038200023FF00214FF4C660FFF71EFF00214FF475
:103830008870FFF719FF00214FF47F40FFF714FF56
:1038400000214FF44050FFF70FFF00214FF40660B6
:10385000FFF70AFF00214FF41470FFF705FF002166
:103860004FF49070FFF700FF00214FF4F260FFF774
:10387000FBFE00214FF4B260FFF7F6FE00214FF48B
:10388000C060FFF7F1FE00214FF4CE60FFF7ECFEC1
:1038900000214FF4CC60FFF7E7FE00214FF40060F9
:1038A000FFF7E2FE00214FF4B060FFF7DDFE0021DC
:1038B0004FF4CA60FFF7D8FE00214FF4A260FFF773
:1038C000D3FE00214FF4A460FFF7CEFE00214FF499
:1038D000D060FFF7C9FE00214FF4D260FFF7C4FEAD
:1038E00000214FF4E260FFF7BFFE00F05BFB4AF6F9
:1038F000FF70C1118B230A46CDE9001019464FF421
:103900005040FFF75BFE4AF6FF7040F287118B23B1
:103910000A46CDE900101946401CFFF74FFE1CBDBA
:103920007047000010B5002402222146641C68483C
:10393000425410222146641C42541C222146641C1D
:1039400042546448007802122146641C6048425484
:10395000604802782146641C5D4842545E48427AC1
:103960002146641C5A4842545B48827A2146641CB2
:103970005748425400222046611CCCB254490A5494
:103980002046611CCCB252490A545348807B021233
:103990002046611CCCB24E490A544F48827B2046D7
:1039A000611CCCB24A490A544B48C07B02122046E3
:1039B000611CCCB246490A544748C27B2046611C70
:1039C000CCB243490A544448007B02122046611C91
:1039D000CCB23F490A544048027B2046611CCCB21D
:1039E0003B490A543C48027D2046611CCCB2384910
:1039F0000A543948427D2046611CCCB234490A54ED
:103A00003548827C2046611CCCB231490A54324888
:103A1000C27C2046611CCCB22D490A542E48C27D7E
:103A20002046611CCCB22A490A542B48027E20460B
:103A3000611CCCB226490A542748007A021220465B
:103A4000611CCCB222490A542348027A2046611CE8
:103A5000CCB21F490A54002007E000232146621C13
:103A6000D4B21B4A5354411CC8B20628F5DB1B488C
:103A70000088020A2046611CCCB215490A54174836
:103A800002782046611CCCB211490A541F2110480B
:103A9000FDF716FD02122046611CCCB20C490A54F7
:103AA0001F210B48FDF70CFDC2B22046611CCCB2B1
:103AB00007490A542246012001F0BBFA002004E025
:103AC0000021034A1154411CC8B2A042F8DB10BDCA
:103AD000700300202C000020AB0100204A000020D1
:103AE00070B505460E46002402222146641C194882
:103AF000425406222146641C42542A122146641C68
:103B000042542146641C455432122146641C4254DE
:103B10002146641C46540621FDF7D2FC02122146C0
:103B2000641C0C4842540621FDF7CAFCC2B2204670
:103B3000611CCCB207490A542246012001F079FAEF
:103B4000002004E00021034A1154411CC8B2A042E5
:103B5000F8DB70BDB000002010B500F001F810BD1A
:103B60000CB50020019000903348006840F480308C
:103B70003149086000BF3048006800F40030009010
:103B80000198401C0190009818B90198B0F5A06FF9
:103B9000F1D12948006800F4003010B101200090F4
:103BA00001E0002000900098012843D123480068DC
:103BB00040F01000214908600846006820F003002A
:103BC00008600846006840F0020008601A48406833
:103BD000194948600846406848600846406840F413
:103BE000806048600846406820F47C1048600846C1
:103BF000406840F4E81048600846006840F0807073
:103C0000086000BF0C48006800F000700028F9D080
:103C10000948406820F003000749486008464068AA
:103C200040F00200486000BF0348406800F00C000C
:103C30000828F9D10CBD000000100240002002400D
:103C400010B52B480068401C2949086029480078B5
:103C500001280CD128480068401C27490860084604
:103C600000684FF47A71B0FBF1F0244908602448F1
:103C70000068401C2249086022480068401C214915
:103C8000086021480068401C1F4908601F48006800
:103C9000401C1E4908601E480068401C1C49086002
:103CA0001C480068401C1B4908601B480068401CF9
:103CB0001949086019480068401C184908601848EC
:103CC0000068401C1649086014480068B0F5FA6F97
:103CD00002D301201349087011480068B0F5487FED
:103CE00002D301201049087000F020F810BD000038
:103CF000DC000020D8000020E8000020E0000020C8
:103D000008010020FC000020E4000020EC0000205E
:103D10000001002004010020F8000020F000002035
:103D2000F40000200C0100200D01002010B51B48FC
:103D3000006840B119480068401E1849086010B971
:103D4000012017490870002408E004EB4401154ADB
:103D500002EB810001F0F1F8601CC4B2042CF4DB2A
:103D600011480068401C10490860084600686FF060
:103D70000041884202D100200B49086001F0DCF8C4
:103D80000A480078401CC0B2084908700A2803DBC2
:103D90000020087001F0CCF810BD0000BC0000202D
:103DA000C000002074240020C40000200E01002068
:103DB00010B51348006840F001001149086008463A
:103DC0004068104908400E494860084600680E499E
:103DD00008400B4908600846006820F4802008600D
:103DE0000846406820F4FE0048604FF41F008860D9
:103DF000FFF7B2FE4FF000600449086010BD0000FC
:103E0000001002400000FFF8FFFFF6FE08ED00E0A2
:103E100010B50221480700F058F858B102214807B0
:103E200000F044F800220221480700F05FF81B4828
:103E3000006880470421080700F047F858B10421C2
:103E4000080700F033F800220421080700F04EF8BC
:103E50001348006880470821C80600F036F858B1BA
:103E60000821C80600F022F800220821C80600F048
:103E70003DF80C48006880471021880600F025F8BE
:103E800058B11021880600F011F800221021880690
:103E900000F02CF804480068804710BDC8000020DE
:103EA000CC000020D0000020D4000020CA430282B1
:103EB000704721B1028842F00102028004E00288CA
:103EC0004FF6FE731A400280704730B5024600205C
:103ED00000230024158A05EA0103958905EA0104F7
:103EE00013B10CB1012000E0002030BD1AB183896C
:103EF0000B43838102E083898B43838170470000F9
:103F0000002202881D4B98420ED01D4B98420BD0C8
:103F1000B0F1804F08D01B4B984205D01A4B984205
:103F200002D01A4B984204D14FF68F731A404B8837
:103F30001A43174B984207D0164B984204D04FF6BD
:103F4000FF431A40CB881A4302808B8883850B88F5
:103F500003850A4B98420BD0094B984208D00E4B70
:103F6000984205D00D4B984202D00D4B984201D19A
:103F70000B7A03860123838270470000002C0140E6
:103F8000003401400004004000080040000C0040E4
:103F90000010004000140040004001400044014077
:103FA0000048014010B51F234FF4807205A1012085
:103FB000FFF7A0FB1F234FF4407202A12120FFF75F
:103FC00099FB10BD6C6F77002DE9F05F002410E0C5
:103FD000601CC1B20320FEF715F90220FEF780F83D
:103FE0009F4908550220FEF77BF89E490855601C42
:103FF000C4B20F2CECDB80210420FEF703F9002172
:104000000420FEF7FFF8002013E0964A115CCA175F
:1040100001EB12721211944B1A54924A115CCA1796
:1040200001EB12721211A1EB0212904B1A54411CB7
:10403000C8B20F28E9DB8C4800788D4948438B498A
:10404000097843F60952514300EB811186484078C4
:1040500040F63542504301EB40118448407840F22D
:104060007122504301EB00107F49897801EB410236
:10407000C2EBC11100EBC1007C49897801EBC102A0
:1040800002EB011100EB81007749C97801EB810156
:1040900000EB41007549C9780844764908607248C8
:1040A0004079734948437149497943F6095251436C
:1040B00000EB81116C48807940F63542504301EBAA
:1040C00040116A48807940F27122504301EB0010A0
:1040D0006549C97901EB4102C2EBC11100EBC10096
:1040E0006249C97901EBC10202EB011100EB8100C9
:1040F0005D49097A01EB810100EB41005B49097AD6
:1041000008445D4908605848807A594948435749EE
:10411000897A43F60952514300EB81115248C07A23
:1041200040F63542504301EB40115048C07A40F20E
:104130007122504301EB00104B49097B01EB410216
:10414000C2EBC11100EBC1004849097B01EBC10280
:1041500002EB011100EB81004349497B01EB810136
:1041600000EB41004149497B0844444908603F480D
:104170000079C0F107004249087008460078FCF752
:1041800060FA804642460B4600203E4901F0EEF9B7
:1041900006460F4637480068FCF753FA8246324617
:1041A0003B46FCF7C9F90446FCF7D0FA36490860EB
:1041B000364935480068FCF736F80446FCF767FADC
:1041C000334908802948407AC0F107003149087016
:1041D00008460078FCF735FA064632460B460020C2
:1041E000284901F0C3F904460D4623480068FCF74E
:1041F00028FA804622462B46FCF79EF98246FCF7B9
:10420000A5FA25490860254923480068FCF70BF802
:104210000446FCF73CFA224908801448807BC0F130
:1042200007002049087016480078FCF70AFA06468D
:1042300032460B460020134901F098F98046894622
:104240000E480068FCF7FDF9044642464B46FCF771
:1042500073F98246FCF77AFA13490860BDE8F09FCB
:10426000150200204C0100205B0100206A010020A3
:104270008096980050000020540000205800002034
:1042800068000020000024406C00002000401C4614
:10429000780000206900002070000020000020410C
:1042A0007A0000206A000020740000200146CAB293
:1042B0000B1203EB022080B27047000010B50248D9
:1042C00000F01AF910BD00004C1C002010B5024887
:1042D00000F012F910BD0000D403002010B5024810
:1042E00000F00AF910BD0000FC0B002010B50248D8
:1042F00000F002F910BD00002414002001F4007247
:10430000B2F5007F00D100BFCA430280704721B1DF
:10431000828942F40052828104E082894DF6FF7363
:104320001A408281704770B50246002400230025A0
:10433000002040F66A16B14200D100BFC1F3421519
:1043400001F01F03012606FA03F3012D02D196891D
:10435000334006E0022D02D1168A334001E0968AEE
:1043600033400C12012606FA04F41688344013B1C7
:104370000CB1012000E0002070BDF0B50346002420
:1043800000260025002040F66A17B94200D100BF80
:104390001846C1F3421401F01F06012707FA06F57B
:1043A000012C01D10C3004E0022C01D1103000E0CE
:1043B00014301AB107682F43076002E00768AF4363
:1043C0000760F0BD2DE9F04786B005460E46002493
:1043D000A24600BFA1460027B08900B100BF2F460A
:1043E0002C8A4CF6FF700440F08804432C82AC8980
:1043F0004EF6F3100440B0883189084371890843B0
:104400000443AC81AC8A4FF6FF400440B0890443BA
:10441000AC8201A8FFF744F81F48874202D1DDF8BB
:1044200010A001E0DDF80CA0A88900F4004040B124
:104430000AEBCA0000EB0A1031684900B0FBF1F842
:1044400007E00AEBCA0000EB0A1031688900B0FBF4
:10445000F1F86420B8FBF0F004012009642101FBAD
:104460001089A88900F4004040B1322000EBC90057
:10447000B0FBF1F000F00700044308E0322000EB4D
:1044800009106421B0FBF1F000F00F0004432C810F
:1044900006B0BDE8F087000000380140014688887A
:1044A000C0F308007047C1F308028280704770B5FE
:1044B00004460D46012000F032FA668B002000F021
:1044C0002EFA0EB9002070BD218BA068405C2870C8
:1044D000012000F024FA208B401C80B22083E18967
:1044E000884201DB00202083608B401E6083002017
:1044F00000F015FA0120E6E770B5044640F22551B8
:104500002068FFF710FFE0B12068FFF7C7FFC5B2D2
:10451000E18AA0684554E08A401C80B2E082E189CB
:10452000884201DB0020E082608BE189884202DA68
:10453000608B401C6083606A10B12846616A8847BE
:1045400000BF40F227712068FFF7EDFE08B3A08A94
:1045500060B9002240F227712068FFF70EFF0122A8
:1045600040F226612068FFF708FF37E0638A62683F
:10457000D15C2068FFF797FF608A401C80B26082A0
:10458000A189884201DB00206082A08A401EA082AF
:1045900024E040F226612068FFF7C5FEF0B1A08A52
:1045A00050B9002240F226612068FFF7E6FE206A3B
:1045B000A0B1206A804711E0638A6268D15C2068FC
:1045C000FFF771FF608A401C80B26082A189884237
:1045D00001DB00206082A08A401EA08270BDF8B579
:1045E00004460E461746002539E01EE0012000F083
:1045F00096F9A08A0090002000F091F9A089BDF8FA
:104600000010884200DD11E0A089BDF8001088424A
:104610000AD12068808900F0800028B9012240F288
:1046200027712068FFF7A9FE00BFDFE700BF705DBC
:10463000228A61688854012000F071F9208A401CA8
:1046400080B22082A189884201DB00202082A08ADA
:10465000401CA082002000F062F9681C85B2BD42B7
:10466000C3DB012240F227712068FFF786FEF8BD08
:104670002B482C4908602C4848602C4888604FF42F
:1046800080608881C881002008824882C8820883AF
:1046900048838882C86108624862254825490860C5
:1046A00025484860254888604FF480608881C8812B
:1046B000002008824882C882088348838882204874
:1046C000C8612048086220484862204820490860A4
:1046D00020484860204888604FF480608881C88105
:1046E000002008824882C882088348838882C86183
:1046F0000862486219481A4908601A4848601A480E
:1047000088604FF480608881C881002008824882D8
:10471000C882088348838882C861086248627047FB
:1047200000380140D4030020FC030020FC070020D7
:1047300000440040FC0B0020240C0020241000202A
:10474000A5350008B1350008A13500080048004033
:10475000241400204C1400204C180020005000406D
:104760004C1C0020741C00207420002000BFFEE7B9
:1047700010B5FFF72DF810BD70B50546114800784B
:10478000042802DB00200F4908700E4801780078E9
:10479000401C0C4A10700C4820F8115000880A493F
:1047A000498808440849898808440749C988084451
:1047B00084B221120D20FDF725FDE1B20E20FDF798
:1047C00021FD70BD3A0100203C0100200FB4054BD3
:1047D00010B503A9044A029800F0AEF810BC5DF8C9
:1047E00014FB0000AB50000844010020490050EACF
:1047F000C12018BF04204A0D18BF40F0010040F24C
:10480000FF72B2EB515F08BF40F00200012808BF01
:10481000052070472DE9F0414F1E00EBC70104460B
:10482000D1E9000115461E4637F006020DD02A4692
:104830003346FBF70FFE7F1E04EBC703D3E90023CB
:10484000FBF761FD37F00602F1D1022F25D0042FCE
:1048500013D0062F18BFBDE8F0812A463346FBF778
:10486000F9FDD4E90A23FBF74EFD2A463346FBF750
:10487000F1FDD4E90823FBF746FD2A463346FBF752
:10488000E9FDD4E90623FBF73EFD2A463346FBF754
:10489000E1FDD4E90423FBF736FD2A463346FBF756
:1048A000D9FDD4E90223FBF72EFD2A463346FBF758
:1048B000D1FDD4E90023BDE8F041FBF724BD0000A1
:1048C0000022134610460149FBF736BE0000F03FB8
:1048D000FBF719BD0022134610461146FBF72CBE0C
:1048E00040F2013200204FF0E041FCF71AB800001E
:1048F000024A00201107FCF714B8000001FDFFFF79
:1049000002E008C8121F08C1002AFAD17047704798
:10491000002001E001C1121F002AFBD1704780F383
:104920001088704780F310887047000001490860C4
:1049300070470000480100202DE9F84F9946924643
:1049400088460546002706E025280AD051464A46F3
:1049500090476D1C7F1C28780028F5D13846BDE8AB
:10496000F88F002315F8011F18462E2915D115F8C8
:10497000011F04232A290DD06FF02F022978A1F1FD
:104980003004092C09D800EB800002EB40000844F9
:104990006D1CF3E758F8040B6D1C2A78002ADDD053
:1049A000632A07D0732A0FD0104651464A469047D3
:1049B0007F1C2AE018F8042B8DF8002000218DF8C8
:1049C00001106E46012103E058F8046B4FF0FF31EF
:1049D0005A074FF0000401D409E0641C84420BDA4A
:1049E0008C42FADB325D002AF7D105E0641C8C4270
:1049F000FCDB305D0028F9D1274404E016F8010BF8
:104A000051464A469047641EF8D26D1CA3E77CB518
:104A10000446FF2C01DBEC2505E0EC2004FB00F54F
:104A2000FF20B5FBF0F50E2040F27F11CDE900101C
:104A300005F18B0083B240F25F128B214FF450409E
:104A4000FEF7BCFD7CBD00000146042901DB00200F
:104A5000704701EB4100084A02EB800040780128D2
:104A600008D1002001EB4102034B03EB820250709E
:104A70000120EDE70020EBE77424002010B5044688
:104A800004B910BD012C00D102240120FFF74AFF18
:104A900009480460002009490870FFF743FF06E059
:104AA00000F0B8F805480078012800D100E0F7E7E9
:104AB00000BF00BFE5E70000BC000020C0000020F0
:104AC000F0B5034600224FF0E02675690F4E3668B8
:104AD0000F4FB6FBF7F606FB03F400BF4FF0E026DE
:104AE000B16910E04FF0E026B06988420BD08842EF
:104AF00002D20E1A324402E02E1A0E44324401460B
:104B0000A24200D300E0EDE700BFF0BD00000020AE
:104B100040420F0070B50546304800EB0514206890
:104B2000804700283ED02079052802DA0520207130
:104B300052E020790A2803DA2079401C20714BE0EA
:104B4000A07A38B90120A07205EB4501491CC8B212
:104B500000F0DEF9208900283EDDE08821898842C6
:104B60000DDAE088401C80B2E0802189884233D190
:104B700005EB4501C91CC8B200F0CAF92CE0E07A87
:104B8000002829DD207B401CC0B22073E17A8842D6
:104B900022DB0020207305EB4501C91CC8B200F0E0
:104BA000B7F919E02079052802DD0520207110E011
:104BB000207918B12079401E20710AE0A07A0128DE
:104BC00007D10020A07205EB4501891CC8B200F096
:104BD0009FF90020E080207370BD0000A424002015
:104BE0000B48007D0A4A527D904201D10020704757
:104BF0000748007D064A115C1046007D401CC0B28B
:104C00001075142801DB002010750846EFE700003E
:104C100004250020704710B54FF4E060FEF7C8FB94
:104C200000F0CCF800F040F8FCF7A4F900F03AF9F5
:104C3000FDF718FC00F0E6F8FFF79AFD10BD000044
:104C40007FB501210846FEF70BFC154800684608B1
:104C50001448B6FBF0F085B24FF6FF74ADF808408B
:104C6000ADF804500020ADF80A00ADF8060001A927
:104C70004FF08040FFF744F901218807FFF719F949
:104C80001C208DF8000004208DF8010000208DF814
:104C9000020001208DF803006846FEF751FB7FBD3E
:104CA0000000002040420F0010B500F041F800F075
:104CB00001F810BD08B501214020FEF7E1FB0320FB
:104CC0008DF8020004208DF803004002ADF80000CA
:104CD00069461648FDF746FC4FF48060ADF80000C9
:104CE00069461248FDF73EFC4FF40070ADF8000035
:104CF00069460E48FDF736FC4FF48040ADF80000E1
:104D000069460A48FDF72EFC4FF40050ADF800004C
:104D100069460648FDF726FC4FF48050ADF80000C8
:104D200069460248FDF71EFC08BD0000001801405E
:104D300000211A4A117551759175002018E014214F
:104D4000174A02EB001211810221154A02EB0012F0
:104D500011710021124A02EB00129172104A02EB0B
:104D60000012D1720E4A02EB00121173411CC8B23C
:104D70000628E4DB32220A4981F84B2081F85B20C7
:104D80000849074A11600849116108491162084938
:104D90001163084911640849116570470425002012
:104DA000A4240020C52A0008DD2A0008F52A0008EE
:104DB0000D2B0008252B00083D2B000808B501210C
:104DC0000820FEF75DFB012000F082F8022000F0D1
:104DD0007FF803208DF8020010208DF803000002F8
:104DE000ADF8000069460648FDF7BCFB4FF40050E3
:104DF000ADF8000069460248FDF7B4FB08BD0000AD
:104E0000000C014070B5002416E0002004EB4401C2
:104E1000204A02EB8101486004EB440102EB81016E
:104E2000886004EB440102EB8101487004EB44010B
:104E300002F82100601CC4B2042CE6DB16480068AE
:104E40004FF47A72B0FBF2F1B1F1807F00D31DE034
:104E500021F07F40401E4FF0E022506150170F229A
:104E6000002807DA13071E0E0C4B00F00F052D1F4C
:104E70005E5503E013071D0E094B1D5400BF0020B3
:104E80004FF0E02290610720106100BFFFF7D8FECD
:104E900070BD0000742400200000002018ED00E028
:104EA00000E400E010B5FFF7E3FBFDF783FCFEF73D
:104EB00061FBFCF76DFB10BD10B5002404E020463B
:104EC000FFF728FE601CC4B2062CF8DB10BD000002
:104ED000411EC8B220B94FF48051044A116004E069
:104EE000012802D14103014A11607047140C0140AE
:104EF000411EC8B220B94FF48051044A116004E049
:104F0000012802D14103014A11607047100C014091
:104F10000649497D054A50541146497D491CC9B28C
:104F20005175142901DB00215175704704250020BB
:104F300010B5FFF7C1FF10BD7047416851B141681E
:104F4000491E416031B9012141700178012901D127
:104F5000816841607047000070B504460D46042C1E
:104F600006DB124A12A11AA0FFF730FC00BFFEE7D1
:104F70000120FFF7D7FC04EB44001D4901EB800042
:104F8000456004EB440001EB80008560002004EBE9
:104F90004401174A02EB81014870012004EB4401EF
:104FA00002F821000020FFF7BDFC70BD2767000854
:104FB0002E2E5C2E2E5C557365725C6273705C7372
:104FC00072635C6273705F74696D65722E6300005A
:104FD0004572726F723A2066696C652025732C20C9
:104FE00066756E6374696F6E20257328290D0A003B
:104FF0007424002010B503464FF6FF74A14200DB75
:1050000010BD002002E01A54441CA0B28842FADB12
:1050100000BFF5E770B505460E462846FCF79AFA3C
:1050200004460CB9002070BD31462046FFF73FFA18
:10503000F9E72DE9F04105460E4617462846FCF7EC
:1050400089FA04460CB9BDE8F081E06908B1E0696D
:1050500080473A4631462046FFF7C1FA00BFF2E7E3
:1050600013B50446012201A92046FFF7E2FF1CBD4B
:105070007CB504464B2C01DBEC2505E0EC2004FB61
:1050800000F54B20B5FBF0F54FF4FC6040F2A711A2
:10509000CDE9001005F18B0083B240F287128B211D
:1050A0004FF43040FEF78AFA7CBD70B504460D46D9
:1050B000E1B20020FFF7D4FF204670BD10B50020FC
:1050C000314908754875FDF7FDFC012806D14FF4FC
:1050D000FC620121022000F0CFF805E04FF4FC62F1
:1050E0000021022000F0C8F8FDF7F8FC012806D1E5
:1050F0004FF4FC620121032000F0BEF805E04FF4FC
:10510000FC620021032000F0B7F8FDF7F3FC012852
:1051100006D14FF4FC620121042000F0ADF805E057
:105120004FF4FC620021042000F0A6F8FDF7EEFC2D
:10513000012806D14FF4FC620121002000F09CF808
:1051400005E04FF4FC620021084600F095F8FDF7F9
:10515000E9FC012806D14FF4FC620121084600F069
:105160008BF802E00120FCF75DF8FDF7E7FC012871
:1051700006D14FF4FC620121084600F07DF802E000
:105180000120FCF74FF810BD04250020FFF743FD78
:10519000FA210020FFF7E0FE4FF4FA60FFF76EFC03
:1051A000FFF78CFFFDF726FC0120FFF7A1FE51E081
:1051B000FDF7BAFAFCF742FB2748007840B92748C8
:1051C0000078012804D1FFF70BFD0446FDF7C2FC6F
:1051D000FCF7EEFEFBF768FF2148007801281CD1A0
:1051E00020480078962818DB00201D4908701E48CA
:1051F000007800F0010040B1012142F21130FEF7C9
:105200006FFC00201949087007E0002142F21130BC
:10521000FEF766FC00201549087015480078012843
:1052200015D11248007890B9002011490870114832
:10523000007800F0010028B1012142F21230FEF79F
:105240004FFC04E0002142F21230FEF749FC02203C
:10525000FFF74EFEACE700009C0000200D0100208F
:105260002D000020E40000202C000020AC000020D5
:10527000820000204A0000202DE9F74F88B0044644
:105280000020079006900998012841D104EB4400C2
:10529000714931F83000079004EB440001EBC00085
:1052A000458804EB440001EBC000868804EB440011
:1052B00001EBC000C78804EB440001EBC000B0F86C
:1052C0000880DDF8289004EB440001EBC0008089E1
:1052D000069004EB440001EBC000B0F80EA004EB14
:1052E000440001EBC000B0F810B004EB440001EB47
:1052F000C000408A059004EB440001EBC000808AA6
:10530000049004EB440001EBC000C08A03908AE0E3
:105310000998E8BB04EB44004F4901EBC0008089C9
:10532000079004EB440001EBC000C58904EB440086
:1053300001EBC000068A04EB440001EBC000478A81
:1053400004EB440001EBC000B0F81480DDF82890B5
:1053500004EB440031F83000069004EB440001EB0C
:10536000C000B0F802A004EB440001EBC000B0F8AC
:1053700004B004EB440001EBC000C088059004EBCE
:10538000440001EBC0000089049004EB440000E0FD
:1053900004E001EBC0004089039044E004EB4400CA
:1053A0002D4931F83000079004EB440001EBC000B8
:1053B000458804EB440001EBC000868804EB440000
:1053C00001EBC000C78804EB440001EBC000B0F85B
:1053D000088004EB440001EBC000B0F80A9004EB35
:1053E000440001EBC0008089069004EB440001EB0F
:1053F000C000B0F80EA004EB440001EBC000B0F810
:1054000010B004EB440001EBC000408A059004EBAF
:10541000440001EBC000808A049004EB440001EBDF
:10542000C000C08A0390079838B13B4632462946EF
:10543000CDE900890798FEF7C1F8069848B1DDE983
:105440000310CDE900015A465146DDE90530FEF76B
:10545000B5F80BB0BDE8F08F8E66000810B50549B1
:10546000487DFFF7D4FA034991F82300FFF700FEC7
:1054700010BD0000CE01002010B5224890F8230096
:105480000F2807DA1F234FF480721FA10120FEF7B7
:1054900031F915E01B4890F823003C2808DA4FF456
:1054A000FC634FF4807219A10120FEF723F907E095
:1054B0004FF478434FF4807216A10120FEF71AF9D9
:1054C0001048407D322807DA1F234FF440720EA1A6
:1054D0002120FEF70FF914E00A48407DC82808DAB9
:1054E0004FF4FC634FF4407208A12120FEF702F94B
:1054F00007E04FF478434FF4407206A12120FEF7F5
:10550000F9F810BDCE0100206C6F77006E6F726DE0
:10551000616C00007761726E696E67002DE9F04181
:1055200004464FF46160B4FBF0F0C5B24FF4616023
:10553000B4FBF0F100FB11403C21B0FBF1F0C6B22E
:105540003C20B4FBF0F100FB114729464FF4D0603A
:10555000FEF78AF831464FF4D260FEF785F83946F7
:105560004FF4E260FEF780F8BDE8F0812DE9F04DE0
:105570001D460C4698B0174621F0004123F0004329
:10558000002814BF4FF0010C4FF0000C0CEB440C42
:10559000FE4A0CEB02064FEA620C66452BD33E0036
:1055A00018BF012606EB45061644F94A964222D357
:1055B000F84A53EA070C02D0944205D148B918B012
:1055C00000201146BDE8F08D002808BF4FF0000C08
:1055D00001D04FF0010C0CEB440212F5001F0AD869
:1055E000002F14BF4FF0010C4FF0000C0CEB4502E4
:1055F00012F5001F07D918B03A462B462146BDE8E0
:10560000F04DFFF765B90022DFF88CA3002CB8BF7E
:10561000534526DADFF884C36345A8BF022220DAA7
:10562000DFF870C39C451CDCDFF874C30CEB235C13
:10563000BCF1140F08DDCCF1340627FA06FC0CFA95
:1056400006F6BE420DD108E05FB9CCF1140623FA8C
:1056500006FC0CFA06F69E4203D10CF00102C2F1E0
:10566000020251EA000C19D1002D17DA002C18BFE4
:10567000022A01D0012A07D00220FFF757F918B0FB
:10568000BDE8F04DFFF71CB90220FFF74FF9FFF717
:1056900017F918B081F00041BDE8F08DB7F1000CAA
:1056A0006CD1534525D104F1804212F5801201BF1F
:1056B00000280020B74918B008BFBDE8F08DB548F4
:1056C000884207DC002DA1BF6046294618B0BDE81E
:1056D000F08D07E0281E05DA80F0004118B0604622
:1056E000BDE8F08DAF497944D1E9000118B0BDE8BB
:1056F000F08DDFF8A0C2634525D1002D1FDA19B166
:10570000514512D1D8B909E0002840F0EC82A24AF4
:10571000214618B062F31E01BDE8F08D002021463D
:1057200018B060F31E01BDE8F08D08DA18B023460A
:10573000BDE8F04D024600206146FAF7FDBE18B004
:105740002146BDE8F08D514518DAB5F1804F0DD0F6
:10575000A5F1005CBCF1FF5C10D1B4F1000C0DDBD5
:1057600018B06146BDE8F04D00F06ABE234618B09F
:105770000246BDE8F04D1946FAF76CBE060024F06B
:10578000004C3BD1D9B1514533D1002C06DD002D61
:10579000A1BF0020514618B0BDE8F08D002C01DDFE
:1057A000002D1BDB002C13DA002D11DB012A4FF03A
:1057B000000014BF78497C4918B0BDE8F08D022A7A
:1057C00018BF002C0AD0012A08D1002C06DA0AE002
:1057D000002CB8BF002D11DA012A04D0002018B027
:1057E0000146BDE8F08D18B000204FF00041BDE843
:1057F000F08DA1F14050B0F17F601AD0012000EB94
:10580000E47050EA020421D0624C521E4FF0000BAB
:10581000104304BF4FF0000B644C654883427CDDAD
:10582000644A654893421FDD884217DB002D25DB63
:1058300037E0002C00DA4AB1022A0CBF01204FF0F9
:10584000FF3018B0BDE8F04DFAF7EABE0120FFF7CF
:105850006DF818B0BDE8F04DFFF73CB84D4A8A42EC
:1058600002DC002D0ADC1CE0814202DA002D18DA8D
:1058700004E0484B994220DD002D12DD0220FFF7A5
:1058800055F8FFF72DF805460E46002253465846B8
:105890002146FAF7DFFD18B066F31E012846BDE881
:1058A000F08D0220FFF742F8FFF722F80A46214662
:1058B00018B062F31E01BDE8F08D0022304661464B
:1058C000FAF7C2FD80460E466FF00102FBF729F899
:1058D0004FF05532394BFAF7BAFD42463346FAF7E4
:1058E000B9FD0022364BFAF7B2FD824642463346F6
:1058F000049110461946FAF7ADFD5246049BFAF79B
:10590000A9FD8A4600904FF0C0422E4B40463146DA
:10591000FAF7A0FD2C4A2B4B00E027E0CDE9060169
:1059200051460098FAF796FD82460191274A284B86
:1059300040463146FAF78EFD5246019BFAF784FD48
:1059400082460B4602460591DDE90601FAF7DBFCCB
:10595000DDE90623002688463046FAF775FD5246F3
:10596000059BFAF774FD024600F07EB90020B1F500
:10597000801F07DA352230466146FAF7D2FF064625
:105980006FF0340000EB215024E00000FFFF1F0007
:10599000FFFF0F000000F03F0000F07F00004043D9
:1059A00001FCFFFFE61000000000F0FF0000F0BF68
:1059B0000000E0410000F043FFFFEF3F5555D53FA9
:1059C0000000E03F4715F73FFE822B6544DF5DF89E
:1059D0000BAE543EA0F2FF300190C1F3130040F033
:1059E0007F6141F040510291FE498842D8BF0020BA
:1059F00004DDFD498142C8BF012001DD0D9008E0B2
:105A000000200D900198401C01900298A0F5801094
:105A100002900299F54878440B910D9900EBC10072
:105A2000D0E900230F9330460A920B99FAF70CFD48
:105A3000CDE90601DDE90A2130460F9BFAF763FC48
:105A400002460B460020EA49FAF776FD0591024628
:105A50000B460090DDE90601FAF7FCFC1490E548DE
:105A60008A464FF0000878440299006812904FF07F
:105A7000005040EA61010D980F9B01EB804000F55A
:105A8000002109910A9A1298FAF7DEFC32460B9B24
:105A9000FAF7DDFC42465346FAF7DCFC0646029173
:105AA00040465146099B129AFAF7D4FCDDE90623D9
:105AB000FAF7CDFC3246029BFAF7C6FC059B009A2A
:105AC000FAF7C8FC0091149A049053461046194600
:105AD000FAF7C0FC06460246C7480B46029106216B
